:020000040800F2
:1000000000040020B9030008BB030008BB0300087C
:10001000BB030008BB030008BB030008BB030008C8
:10002000BB030008BB030008BB030008114D000818
:10003000BB030008BB030008BB030008BB030008A8
:10004000BB030008BB030008BB030008BB03000898
:10005000BB030008BB030008BB030008BB03000888
:10006000BB030008BB030008BB03000831310008D4
:10007000C131000851320008E13200087133000834
:100080000134000891340008B12B0008BB030008BC
:10009000BB030008BB030008BB030008BB03000848
:1000A000BB030008BB030008BB030008BB03000838
:1000B000312A0008BB030008BB030008BB0300088B
:1000C000BB030008BB030008BB030008413F000856
:1000D000C13F0008BB030008BB030008112800084B
:1000E000BB030008BB030008BB030008BB030008F8
:1000F000BB030008BB030008BB0300082135000850
:10010000BB03000881270008BB030008414000082A
:10011000BB030008BB030008BB030008BB030008C7
:10012000B135000841360008D136000861370008B3
:10013000F1370008BB030008BB030008BB0300083D
:10014000BB030008BB030008BB030008BB03000897
:100150008138000811390008A1390008BB030008E4
:10016000BB030008BB030008BB030008BB03000877
:10017000BB030008BB030008BB030008BB03000867
:10018000BB030008BB030008BB030008BB03000857
:10019000BB030008C140000841410008BB03000840
:1001A000BB030008BB030008BB030008BB03000837
:1001B000BB030008BB030008BB030008BB03000827
:1001C000BB030008BB030008BB030008BB03000817
:1001D000BB030008313A0008BB030008BB0300085A
:1001E000BB030008BB030008BB030008BB030008F7
:1001F000BB030008BB030008BB030008BB030008E7
:10020000BB030008BB030008BB030008BB030008D6
:10021000BB030008BB030008BB030008BB030008C6
:10022000BB030008BB030008BB030008BB030008B6
:10023000BB030008BB030008BB030008312C000807
:10024000BB030008B12C0008412D0008D12D000887
:10025000612E0008F12E0008812F000811300008DF
:10026000A1300008BB030008BB030008BB03000863
:10027000BB030008BB030008BB030008BB03000866
:10028000BB030008BB030008BB030008BB03000856
:10029000BB030008BB030008BB030008BB03000846
:1002A000BB030008BB030008BB030008BB03000836
:1002B000BB030008BB030008BB030008BB03000826
:1002C000BB030008BB030008BB030008BB03000816
:1002D000BB030008BB030008BB030008BB03000806
:1002E00072B6264880F30888254880F30988254897
:1002F00025490860022080F31488BFF36F8F02F055
:10030000B7F903F05DFF4FF0553020491B4A914289
:100310003CBF41F8040BFAE71D49194A91423CBF22
:1003200041F8040BFAE71B491B4A1C4B9A423EBF9B
:1003300051F8040B42F8040BF8E700201849194A59
:1003400091423CBF41F8040BFAE702F0E1F902F0F8
:10035000CFF9154C154DAC4203DA54F8041B88470D
:10036000F9E704F0E5FC124C124DAC4203DA54F804
:10037000041B8847F9E702F0C3B90000000400201D
:10038000000800200000000808ED00E00000002048
:1003900000040020645F0008000000240000002426
:1003A0000000002430180024E0020008E0020008E9
:1003B000E0020008E002000892E700F000F8FEE723
:1003C0002DE9F04FC1F80CD0D0F80CD0BDE8F08F7B
:1003D000002383F311882846A047002004F068FC1E
:1003E000FEE704F0DDF800DFFEE70000844641EAA6
:1003F000000313F003036DD1403A41D351F8043B9D
:1004000040F8043B51F8043B40F8043B51F8043BEE
:1004100040F8043B51F8043B40F8043B51F8043BDE
:1004200040F8043B51F8043B40F8043B51F8043BCE
:1004300040F8043B51F8043B40F8043B51F8043BBE
:1004400040F8043B51F8043B40F8043B51F8043BAE
:1004500040F8043B51F8043B40F8043B51F8043B9E
:1004600040F8043B51F8043B40F8043B51F8043B8E
:1004700040F8043B51F8043B40F8043B403ABDD2FD
:10048000303211D351F8043B40F8043B51F8043B9F
:1004900040F8043B51F8043B40F8043B51F8043B5E
:1004A00040F8043B103AEDD20C3205D351F8043B2E
:1004B00040F8043B043AF9D2043208D0D2071CBFFA
:1004C00011F8013B00F8013B01D30B880380604623
:1004D000704700BF082A13D38B078DD010F0030399
:1004E0008AD0C3F10403D21ADB071CBF11F8013B09
:1004F00000F8013B80D331F8023B20F8023B7BE758
:10050000043AD9D3013A11F8013B00F8013BF9D282
:100510000B7803704B7843708B788370604670471C
:10052000C3689B0F0CD0012B08D18368C2881804C4
:1005300000F47C10104301308002704700207047A7
:10054000826840F6FC73416803EA8200C2F303420A
:10055000C1F3C23340EA9170093A02330130984046
:100560009040704700000000000000000000000004
:1005700000207047000000000000000000000000A4
:100580000079053818BF0120704700BF0000000047
:100590000379052B06D1826A4FF400730020C1E96C
:1005A000003270470120704700000000000000008A
:1005B000012914BF6FF013000020704700000000F5
:1005C00000EB8103D0F890204FEA411CDB68F0B5C6
:1005D0001C68002604F00304651E022D454D98BFDB
:1005E00005EB844502EB4114C4F8106B9C69002CA8
:1005F00048D05E8A01F158042E436401165101F17E
:1006000010060124B440D2F81C683443C2F81C48D8
:1006100002EB0C040026C4F810695C69002C44D07D
:10062000B3F810C001F13F0E9B8B8E014FEA9C0482
:10063000012B02EB8E0E46F0200688BF5C43D0F8FB
:100640009830E71843EA0443C0F89870CEF80430B5
:10065000166113699806FCD42748446843681B1B3D
:10066000112BFBD94CEA815C01F1480001234001C8
:100670004CEA05058B401550D2F81C080343C2F81C
:100680001C38F0BD02EB411401F110070126BE40F9
:10069000D4F8007B27F40047C4F8007BD2F81C484C
:1006A00024EA0604C2F81C48B2E701F13F008B01BE
:1006B000124C02EB800043F0200344601361136985
:1006C0009B06FCD40C48446843681B1B112BFBD9C8
:1006D00002EB41140123D4F8000903FA01F120F4DC
:1006E0000040C4F80009D2F81C3823EA0103C2F81C
:1006F0001C38F0BD00800010001000E00004000273
:1007000000EB810311F0010FDA68936910B41C68E3
:10071000DC6001D1402C25D8538A1268D0F89000B3
:1007200002F0030C5A1E2244BCF1010FB2FBF3F29B
:1007300002FB03F303F1030323F0030343EAC24381
:1007400000EB411243F0C043C2F8103B0DD009B298
:1007500000EB411010BCD0F8003B43F00443C0F85C
:10076000003B704740241C60D6E7D0F8083800EB07
:10077000411209B213F4807FD2F8003B14BF43F05A
:10078000805343F00053C2F8003BE1E70000000053
:1007900000EB810310B4DC6862691368D360F3B9BD
:1007A000D0F890204FF4002002EB4113C3F8100959
:1007B000236803F00303012B2AD008B202EB401098
:1007C0000123D0F800498B4044F00444C0F80049AC
:1007D000D2F8341810BC0B43C2F83438704709B94A
:1007E000402B26D8B4F810C0D0F890200CF1FF3080
:1007F0001844B0FBFCF043EAC04302EB411043F065
:100800000053C0F81039236803F00303012BD4D13F
:10081000D2F8083808B213F4807F02EB4113D3F802
:10082000004914BF44F0805444F00054C3F8004918
:10083000C4E740231360D5E700000000000000007B
:1008400038B590F870300446152B27D8DFE803F050
:100850002726262626262726260B103E262626264F
:10086000262626262727856FB0F886309D4234D36A
:100870001422302384F8702083F3118862890025C4
:10088000E368204642F0010229469B6962819D602F
:10089000C3E90055FFF734FF85F3118838BDD0F860
:1008A00090304168D3F800290D6842F40012C3F873
:1008B0000029D3F8002B42F40012C3F8002B0DB12D
:1008C0000621A847062384F8703038BDC36F03B1F2
:1008D0009847002384F8703038BDC3681B8AB5FB85
:1008E000F3F203FB1255002DC2D1302383F311889C
:1008F00002892946C36842F001025B6902819D605A
:10090000C3E90055FFF744FF85F311880A2384F8F3
:10091000703038BD00000000000000000000000042
:1009200038B590F870300446152B21D8DFE803F075
:1009300021202020202021202021212120202020B2
:1009400020202020380B0B22302380F8702083F3E6
:10095000118802890025C36842F0010229465B69BB
:1009600002819D60C3E90055FFF712FF85F31188EE
:1009700038BDD0F890304168D3F800290D6842F4B2
:100980000012C3F80029D3F8002B42F40012C3F878
:10099000002B0DB10621A847062384F8703038BD1E
:1009A000C3689B695B68002BE2D1C36F03B19847B2
:1009B000002384F8703038BD000000000000000003
:1009C00001F001038A0748BF43F002034A0748BF0A
:1009D00043F008030A0748BF43F00403CA0648BFB0
:1009E00043F010038A06426B48BF43F020031A43CA
:1009F000426370470000000000000000000000009B
:100A0000024A136843F0C003136070470048004077
:100A100001207047000000000000000000000000FE
:100A2000FEE700BF00000000000000000000000022
:100A3000014B5B6883607047001000E0000000001D
:100A40000E4A0F4B81685B6810B4946802691B1BE7
:100A5000C4685B1A41690134D218026141F1000196
:100A6000426841619342026888BF43609342C0E993
:100A7000023438BF036010BC704700BF400D002433
:100A8000001000E000000000000000000000000076
:100A9000302310B483F311880B4B49425C68201A51
:100AA00008401968821A8A4207D3944205D35A60D3
:100AB000002383F3118810BC70470020002383F3C8
:100AC000118810BC704700BF380D002400000000E2
:100AD000064B49425A68101A08401968884203D3E5
:100AE000824201D35860704700207047380D0024BF
:100AF000302383F311880D4B5B6813F4006302D13C
:100B000083F311887047EFF309834FF08072203B25
:100B1000DA6183F30988064A1168D26889689268A5
:100B200091428CBF034A044A9A61704700ED00E08D
:100B300030030024E3030008E6030008000000007F
:100B400038B50A463023044683F311880848002547
:100B50000221038943F00403038143695B699C60BC
:100B6000C3E90025FFF714FE85F3118838BD00BFE7
:100B70004C02002400000000000000000000000003
:100B8000022906D0032906D00129074818BF0020F2
:100B9000704706487047032A03D8054800EBC20097
:100BA00070470020704700BF8C5D0008305D000872
:100BB000085F0008000000000000000000000000C6
:100BC0002DE9F047DFF8008104464FEA401AD8F8D3
:100BD000906006EB4013D3F80859E907C3F80859A9
:100BE00003D5D6F81038DA0709D42B0605D5012726
:100BF000D6F83438A7403B4218D1BDE8F08708EB5F
:100C00008003D9684B691868DA6890424BD3012297
:100C1000B8F808308F68A24023EA0203A8F8083029
:100C2000002FE2D021464046B847DEE708EB8403B8
:100C3000DA685669D6E90035AB4242D90134D8F8B2
:100C40009090B2F81080E4B209EB0A0E09EB043080
:100C5000A3EB050CDEF81839C4459BB228BFC44687
:100C6000BCEB830FC9D8B468BCF1040F23680360E0
:100C70000BD9ACF10501234621F0030104312144D5
:100C800053F8042F99420260FAD1654433686444F2
:100C9000AB427560B460DBD8D9F8343823EA070377
:100CA000C9F83438A9E7121A00271A605F603023A8
:100CB00083F3118821464046FFF76AFD87F31188C8
:100CC00093E7D8F89090E7E74C020024000000007A
:100CD0002DE9F041244F0446D7F8906006EB40130D
:100CE000D3F8085B2807C3F8085B03D5D6F8143897
:100CF000190731D4EA072DD5D6F81438DB0729D5E2
:100D000007EB8403D9688A6954B9488A5368B3FBEE
:100D1000F0F500FB15331BB91068D36898420DD36A
:100D200001227B89CD68A24023EA02037B818DB139
:100D300021462B460C48BDE8F04118471B1A546069
:100D40003021136081F3118807482146FFF7D8FC52
:100D500084F31188BDE8F08107EB8403214638460F
:100D6000DB685B689847C5E74C0200240000000080
:100D70000C4A4FF080410C48D2F88C3002F5096CD7
:100D800010B44C6A19685C60406860F31F2102F17E
:100D9000900043F8101B634528BF0346C2F88C300F
:100DA00010BC704730030024001000E00000000079
:100DB00070B400224FF0FF348E6800EB421102F154
:100DC000010CD1F800590B46002D05DAD1F8005975
:100DD00045F08045C1F80059D1F8005B002D05DAD7
:100DE000D1F8005B45F08045C1F8005BB242C3F822
:100DF00008496246C3F8084BDFD14FF0011370BCBD
:100E0000C0F81C38704700BF000000000000000060
:100E1000124BB3F88820D20710B504460FD5002234
:100E2000A369A16884F824201B689A688A42FBD8C9
:100E30005A6820462360626014605C6010BD90F8C0
:100E40002420D3F88C10D300806A43F00103C1E959
:100E500002400B70FFF78CFFE1E700BF3003002476
:100E6000114BB3F88820D20710B504460ED50022E6
:100E7000A369A16884F824201B689A688A42FBD27F
:100E80005A68C4E9003214605C6010BD90F82420F8
:100E9000D3F88C10D300806A43F00103C1E902400B
:100EA0000B70FFF765FFE2E730030024000000004D
:100EB000F8B50446006900284CD011F0100306D0A4
:100EC0002378A3F10303B3FA83F35B095B000E06F7
:100ED00048BF43F00403CD053DD58A0543F0080320
:100EE00001D543F01003284A944239D0274A94424E
:100EF0000AD1216B0E224E680F68356825F00F0568
:100F00003560097A8A407A60A16A8A68550706D5F1
:100F10008A6842F010028A608A68D206FCD40025F2
:100F2000C268CD615AB30525194620462570904701
:100F30002378AB4223D0302383F31188606930B12A
:100F400000224FF0FF3362618362FFF789FF0023C5
:100F500083F31188F8BD8F05C3D4002BC3D1F8BD2E
:100F6000256B29680A6822F01F020A600A68D60702
:100F7000FCD469683D222D7BAA400A60C4E70222A6
:100F8000002322702361D6E70000002438000024EB
:100F900038B590F820300446002B36D0836AD3E968
:100FA00000010A6822F00F020A60197A0E23626AB1
:100FB00003FA01F141605068016821F00F010160FE
:100FC000117A12688B405360584B9C423CD0584B6E
:100FD0009C4249D0574B9C4200F08780564B9C4224
:100FE00000F09380554B9C424DD1554BD3F89C203B
:100FF00042F02002C3F89C20D3F89C2022F020026B
:10100000C3F89C20D3F89C303DE0806A02681368E6
:1010100023F01F0313601368D907FCD4027B3D2320
:10102000616A934040680A680360136823F01F03F5
:1010300013601368DB07FCD4087B3D234A688340B8
:1010400013603A4B9C42C2D13D4BD3F8982042F4F6
:101050008052C3F89820D3F8982022F48052C3F825
:101060009820D3F898300EE0354BD3F8902042F416
:101070008042C3F89020D3F8902022F48042C3F835
:101080009020D3F8903061680022E36940204D69D8
:101090001A605A602B4A18614FF0FF302A4098615D
:1010A00042F440429A604A78C2B18A6922F4C0226E
:1010B000DA6040F201108A6818600AB12046904751
:1010C000302383F31188A06820B10023A3608362DA
:1010D000FFF7C6FE002383F3118838BD88691A4ADA
:1010E000024042F00152DA60E3E7154BD3F890205A
:1010F00042F40042C3F89020D3F8902022F400423A
:10110000C3F89020D3F89030BDE70D4BD3F898206A
:1011100042F48012C3F89820D3F8982022F4801269
:10112000C3F89820D3F89830ADE700BF2001002421
:101130005C01002498010024D40100241002002442
:10114000004402581F3EFFFFFFFFB9DF0000000010
:10115000084A9368002B00DD70470133012B936030
:10116000FAD01068002103685A6013608162FFF7AB
:1011700077BE00BF2C150024000000000000000016
:10118000084A9368002B00DD70470133012B936000
:10119000FAD01068002103685A6013608162FFF77B
:1011A0005FBE00BF2015002400000000000000000A
:1011B000F8B5154F57F8044FBC4220D0054600261D
:1011C00004E00B2A1CD02468BC4218D0E3682B43EF
:1011D000E36015B123691D42F5D0D4E90103816BA9
:1011E00090F824200B430A2A8363EAD1826A1342CF
:1011F000E9D08662FFF734FE2468BC42E6D1F8BD30
:10120000826A9A43DFD1F4E77000002400000000F6
:1012100010B530230C4683F3118891F824300C2B41
:1012200010D8DFE803F02D0F0F290B070F0B0F0F5E
:101230000F0F0B00896A8A6801328A60D4E90021A5
:101240000A60516016494FF0FF32B1F88800A2627F
:10125000C00719D50022A369A16884F824201B685F
:101260009A688A42FBD25A68002123606260146047
:101270005C6081F3118810BD8A6A00211160E1E78A
:10128000002383F3118810BDDB00D1F88C1043F0EC
:101290000103C1E902420B70FFF76AFDDAE700BF04
:1012A00030030024000000000000000000000000E7
:1012B000164B022A30B403F11004D961826038BFA2
:1012C000022244601C69046060608C1818614FF051
:1012D00080404463002404610224C460456AA5EB95
:1012E000010C624503D930BC7047294615460134CC
:1012F00021444163426A511BA142F6D2022CF2D929
:101300005A6B42F0010230BC5A637047300300242C
:1013100010B50468A04218D023680021124A036067
:101320005860B2F88830A16213F001030ED0002299
:10133000A369A16884F824201B689A688A42FBD2BA
:101340005A68C4E9003214605C6010BD94F824103F
:10135000D2F88C00CA00C0E9024342F001030370D6
:10136000FFF706FDE3E700BF3003002400000000A4
:10137000464B1B685A1E3F2A2DE9F04F074683B0A3
:1013800071D8032B5AD99B08302282F31188404E22
:101390003268002A50D03F4ADFF8FC80154602EB45
:1013A000830ADFF8F8B0DFF8F89001920DE0D9F881
:1013B000003004350133AA45C9F80030D8F80430AC
:1013C00003F10103C8F8043032D0BBF800407F2C91
:1013D000EDD82A68337D12BA002BE8D13369D6E9FB
:1013E0000010A0EB010CB3EBAC0FE0D0D6F808E096
:1013F0000133013404350EF1040CA4B26045C6F883
:1014000008C0CEF8002088BFB16826483361B160BB
:10141000FFF77EFF244AABF800401388A342D8F8B8
:10142000003038BF14800133AA45C8F80030CCD151
:10143000002383F3118803E082F31188154B019395
:101440007A8940243B69384642F002029B697A81DE
:10145000019A9A6000220121C3E9004203B0BDE86D
:10146000F04FFFF74DB9114A0B4913680469013376
:10147000136043894A6843F0020301324381A36940
:10148000044C4A609C604024E4E700BF040E002442
:1014900084120024C0140024280E0024AC1400245C
:1014A00080120024A4120024AE1400243815002455
:1014B00070B590F87030044613B1002380F8703096
:1014C00004EB81016268CB681B6A19685B68C4F829
:1014D0008010C4F88430936853B32046984738B3DB
:1014E000A36F94F88010B4F886209A422CBF1A4655
:1014F000A267090600F1E180002A00F0948015221D
:10150000302384F8702083F3118862892046E368D1
:1015100042F001029B696281D4E91D5100241960E7
:101520009D6021465C60FFF7EBF884F3118870BD85
:1015300094F8801011F0600608461CD194F88120C0
:1015400001F07F0343EA022340F20232934200F0AB
:10155000698147D8B3F5807F00F0138123D9B3F5B3
:10156000817F00F01D81B3F5407F04D194F8823073
:10157000012B00F0DA80D4F89000D0F800396268CE
:1015800043F400131268C0F80039D0F8003B43F46C
:101590000013C0F8003B12B10621204690470623F5
:1015A00084F8703070BD012B62D0022B52D194F9B7
:1015B000840094F884200028D4F8900002F00F02F0
:1015C000C0F2AC805832520182581504D5D596022B
:1015D0004FF002024CBFA648A648C4E91D020022F3
:1015E000E26780E7B3F5006F00F0148147D9B3F5E7
:1015F000106F39D12378042B00F0A18094F8823049
:101600004BB10421626884F88B302170136813B1E8
:10161000022120469847002394F88000C4E91D3336
:10162000E367030663D40B22302384F8702083F32E
:10163000118822890025E368204642F001022946EC
:101640005B6922819D60C3E90055FFF7A1F885F32E
:10165000118870BD002B8ED1022204F18800E3674F
:1016600060671346A2673EE740F60242934282D18A
:10167000022381480022C4E91D03E26733E7B3F582
:10168000A06F00F0A980A3F5C063012B3FF673AFF4
:1016900061682046B4F884304D6894F8822094F84C
:1016A0008310A84700283FF466AF94F88010D0E973
:1016B0000032E667C4E91D2315E7C2B109223023D1
:1016C00084F8702083F3118822892046E36842F071
:1016D00001025B692281D4E91D51002419609D60DB
:1016E00021465C60FFF754F884F3118870BD142222
:1016F000302384F8702083F3118862890025E36821
:10170000204642F0010229469B6962819D60C3E93F
:101710000055FEF7F5FF85F3118870BD4832520180
:10172000825815047FF529AF51E7B4F88830E66791
:1017300043F00203C4E91D66A4F8883071E7302342
:1017400083F31188A3682022314604F1100003F0CE
:101750000113A36004F0C6F8D4E924010B68C4F8AF
:101760009830FFF725FB86F311880321636884F81E
:101770008B6021701B68002B3FF440AF20469847D8
:101780003CE794F88230012B7FF4F5AEB4F8883052
:10179000E66723F00203C4E91D66A4F8883040E739
:1017A00094F88230002B7FF4E6AE94F8843013F086
:1017B0000F020CD013F0800FD4F8903003EB4213DB
:1017C00048D1D3F8002B22F40012C3F8002B0023D9
:1017D000C4E91D33E36724E7B4F88030B3F5A06FA4
:1017E000F5D194F88210D4F8902084F88A10D2F8B9
:1017F000003823F4FE6343EA011361680D68C2F800
:10180000003825B120460121A84794F88000032321
:101810002370DCE7012204F18B00E6671346C4E97C
:101820001D0260E694F88230002B7FF4A4AE94F899
:10183000843013F00F02CAD013F0800FD4F8903028
:1018400003EB42130DD1D3F8002B42F40012C3F87E
:10185000002BBCE7D3F8002922F40012C3F80029BA
:10186000B5E7D3F8002942F40012C3F80029AEE727
:10187000205E0008EC5C0008605F000800000000CB
:1018800038B5144B01211C68DD6885F824002268F6
:10189000536084F82410B3F888101A608A07DC605B
:1018A00005D529462046BDE83840FEF789BD95F8A4
:1018B0002420D3F88C10D300A86A43F00203C1E9B6
:1018C00002400B70FFF754FA29462046BDE8384025
:1018D000FEF776BD30030024000000000000000089
:1018E0002DE9F0414B1C534D86B0D5F80C8062D0E9
:1018F0002F46514B06464FF0804C57F8100F0A46C2
:10190000CDE90338B8424FF000030593DCF824100A
:1019100000F08380EB698468CB1AD31828BF134684
:101920009C4222D9022A38BF022201EB020ECCF8D7
:1019300034E0DCF824E0AEEB01018A4215D8022243
:10194000013202EB0E01CCF83410DCF82410A1EBCC
:101950000E0E96456AD2022A07D96A6B42F001023E
:101960006A6302E000681B1B84689C42FAD30293FE
:101970006C4682680090D21A436801931C604FF055
:10198000FF33C0E90142AB613046FFF779FF009BAE
:1019900063B12A69A24215D09A68DDE901100244B8
:1019A0000B60C3E901124FF0FF33AB61D8F8280098
:1019B00006B0BDE8F081FFF763FFD8F8280006B055
:1019C000BDE8F0810022BB422B6100925F6029D00C
:1019D0009A684FF0804002990A449A60EB69416A24
:1019E000CC1AA242E2D95B1A1344022B38BF02235D
:1019F000CA184263426A511A9942D7D3022301336B
:101A0000D1184163416A8A1A9A4211D2022BCDD968
:101A10006B6B43F001036B63C8E76C462046FFF72E
:101A200047FCB1E74FF08043DA60BFE78E4687E7B7
:101A30000A46E4E730030024111200080000000009
:101A40002DE9F04F83B09A46C7694FF030090192F3
:101A500089F3118892B304460E46DDF804B0A268FB
:101A6000934532D9A568D4E90420A2EB0008A84523
:101A700032D838D2A5EB0803424631460093FEF730
:101A8000B5FC06EB0801DDF80080E0684246FEF791
:101A9000ADFCE1684144A2686161521BA26045B39C
:101AA0000FB12046B847002383F31188ABEB050B39
:101AB0002E4489F31188BBF1000FD0D10198002387
:101AC00083F3118803B0BDE8F08FD4E904205D46AC
:101AD000A2EB0008A845CCD931462A46FEF786FC81
:101AE00061692944D7E731462A46FEF77FFCE16861
:101AF000D1E70C4BDA68BAF1000F0AD06168042014
:101B0000C2E900410A6051466260FFF7E9FE002821
:101B1000A5D0019BA3EB0B00002383F3118803B036
:101B2000BDE8F08F3003002400000000000000003A
:101B30004FF0FF333030FFF783BF00BF00000000DD
:101B40003030FFF77DBF00BF000000000000000044
:101B500070B5302304460D4683F31188164E08E015
:101B60006268C3E9004213606360FFF7B9FE0028B2
:101B700008DBA3682946042043B9F368002DEFD1A0
:101B80004FF0FF30002383F3118870BDA368A16973
:101B9000013B4A1CA3602369A2619A420D7801D3DC
:101BA000E368A361E3690BB120469847002383F300
:101BB0001188284670BD00BF3003002400000000DB
:101BC0004FF0FF310C30FFF7C3BF00BF0000000033
:101BD0000C30FFF7BDBF00BF000000000000000098
:101BE0002DE9F04F83B09A46C7694FF03009019252
:101BF00089F3118892B304460E46DDF804B0A2685A
:101C0000934532D9A1692269A568A2EB0108A845CC
:101C100032D838D2A5EB0803424630460093FEF78F
:101C2000E5FB06EB0800DDF80080E1684246FEF7C0
:101C3000DDFBE1684144A268A161521BA26045B38B
:101C40000FB12046B847002383F31188ABEB050B97
:101C50002E4489F31188BBF1000FD0D101980023E5
:101C600083F3118803B0BDE8F08FA1695D46226956
:101C7000A2EB0108A845CCD92A463046FEF7B6FBB0
:101C8000A1692944D7E72A463046FEF7AFFBE16851
:101C9000D1E70C4BDA68BAF1000F0AD06168042072
:101CA000C2E900410A6051466260FFF719FE002850
:101CB000A5D0019BA3EB0B00002383F3118803B095
:101CC000BDE8F08F30030024000000000000000099
:101CD0004FF0FF330C30FFF783BF00BF0000000060
:101CE0000C30FFF77DBF00BF0000000000000000C7
:101CF0002DE9F041302304460F46164683F3118840
:101D0000DFF8608008E06568C3E900452B60636028
:101D1000FFF7E6FD002809DBA3683146042053B92C
:101D2000D8F80C30002EEED14FF0FF30002383F3B3
:101D30001188BDE8F0816269A368511C013B6161B3
:101D4000A3601770D4E904329A4201D3E368636157
:101D5000E3690BB120469847002080F31188BDE865
:101D6000F08100BF300300240000000000000000EC
:101D70004FF0FF323030FFF7BBBF00BF0000000064
:101D80003030FFF7B5BF00BF0000000000000000CA
:101D90002DE9F04141F20D15174C30260746BA6B7C
:101DA0007B6C9A60DD60596B11F04502FBD011F03D
:101DB000050F9A6319D15B6913EA040812D1C3F3C2
:101DC0004323042B0BD0053B022B0BD886F3118841
:101DD0000A210820FFF784FD88F31188DFE74046D9
:101DE000BDE8F0810120BDE8F0813846FEF7E8FD4E
:101DF0000120BDE8F08100BF08E0FFFD0000000009
:101E000038B5302383F311880379022B12D00423D1
:101E100004460025037185F31188FFF7B9FF636C51
:101E2000022218B958601860227138BD5D601D60CB
:101E3000227138BD002080F3118838BD00000000F9
:101E4000302310B583F31188436CDA6B8AB9002014
:101E50001865D863D8625A6B12F4807205D04FF0BF
:101E6000FF329A6380F3118810BD82F3118801203C
:101E700010BD064A034604460320D26843F8402FAB
:101E80009362FFF7FDFC636CE1E700BF30030024C1
:101E90002DE9F04F16465A1E0D4683B00A44816A5A
:101EA00004468A4207D9436B012043F080036363F1
:101EB00003B0BDE8F08F06220271002B49D0EF1865
:101EC000DFF8B4804FF0FF39DFF8B0A0636C204634
:101ED000D4F83CB0C3F82480FFF75AFF20B10523A3
:101EE000237103B0BDE8F08F626C4FF49573E16C21
:101EF000C2F83890D3634FF4007393629223D36295
:101F00000123C2F858B01365236BDB0654BF6B0284
:101F10002B46936041F25113D360536B13F045008D
:101F2000FBD013F0050F906315D1536913EA0A0F24
:101F30000B6016D12046FFF783FFD0B9013530463C
:101F40004FF40072E16BFEF751FABD4206F50076E0
:101F5000BCD10020C3E7194620460192FEF730FDB0
:101F6000019A536B2046516B9163FEF729FD0120C6
:101F7000B5E7626CF5E700BF40420F0008E0FFFDE7
:101F80002DE9F04F16465A1E0D4683B00A44816A69
:101F900004468A4207D9436B012043F08003636300
:101FA00003B0BDE8F08F07220271002B48D0EF1874
:101FB0004FF40079DFF8AC80DFF8ACA04FF400728A
:101FC0003146E06B1644FEF711FA636C2046D4F8F4
:101FD0003CB0C3F82480FFF7DBFE20B1052323715A
:101FE00003B0BDE8F08F626C4FF0FF33E16C936398
:101FF0004FF48D73D3639023C2F82890D3620123EA
:10200000C2F858B01365236BDB0654BF6B022B4636
:10201000936041F25813D360536B13F04500FBD02B
:1020200013F0050F90630DD1536913EA0A0F0B608B
:102030000ED12046FFF704FF90B90135BD42BDD156
:102040000020CBE7194620460192FEF7B9FC019A21
:10205000536B2046516B9163FEF7B2FC0120BDE744
:10206000626CF5E740420F0008E0FFFD0000000051
:102070002DE9F04190461E461E4A0546436C0F4628
:102080005A62FFF785FE6C6CF8B94FF0FF3246F4E8
:102090008A56069BA2634FF49572E96CE2630622AE
:1020A000C4F82880E2620122A7652265A360E66089
:1020B000636B13F04502FBD013F0050FA26314D13C
:1020C00062690D4B0A60134043B1636B2846616B34
:1020D000A163FEF775FC0120BDE8F0812846FFF7FB
:1020E000AFFE0028F8D06C6CEFE719462846FEF7E3
:1020F00067FCEAE740420F0008E0FFFD0000000037
:102100006D4B0322816C99422DE9F04F027183B02F
:102110000546426C3DD9694B69480B441B0AA0FB3C
:1021200003031B0953603021136843F0030313605A
:1021300081F3118864210820FFF7D2FB002383F389
:1021400011884FF480526C6CA360E260636B1B06D5
:10215000FCD580214FF4D57241F20813A163A2602F
:10216000E360616B11F04503FBD011F00500A36340
:1021700011D163690122C3F303232A63934243D03D
:10218000002302220120636023602A7103B0BDE8AE
:10219000F08F0023C6E72846FEF712FC002241F22A
:1021A0003713A260E360616B11F04503FBD011F0BF
:1021B000050FA36340F051816269424B1340002B2D
:1021C0006DD002236426DFF8008141F201174FF041
:1021D00030092B63C4F80880E760616B11F0450398
:1021E000FBD011F0040AA3631AD16369002B71DBE1
:1021F000013EC5D089F3118864210820FFF770FBE8
:102200008AF311886C6CE5E741F23713A060E36054
:10221000616B11F04503FBD011F0050FA36303D0F0
:102220002846FEF7CDFBABE76269264B1340002B37
:10223000A6D1DFF898904FF0640A002741F23716D4
:10224000DFF88080A760E660616B11F04503FBD08A
:1022500011F0050FA363E3D1636913EA080F8FD16F
:1022600041F22913C4F80890E360616B11F0450353
:10227000FBD011F0040BA363D2D16369002B29DBDF
:10228000BAF1010A3FF47CAF302383F31188642153
:102290000820FFF725FB8BF311886C6CD2E74FF415
:1022A00080522B63A360E260636B1F06FCD5802322
:1022B000DFF81C90A363BEE7801A0600FF340C0011
:1022C000598B4F0108E0FFFD0080FFC00080FF50E8
:1022D000000010805E0003D52B6B43F010032B63CE
:1022E000002241F20233A260E360616B11F045030A
:1022F000FBD0A36311F03F0392D1216A41F2031294
:10230000A960E169E960A169296161696961A36006
:10231000E260616B11F04503FBD011F0050FA36380
:102320007FF47EAF626941F20933AA63A260E36081
:10233000616B11F04503FBD08806A3637FF470AF97
:10234000216A41F20713A961E169E961A169296282
:1023500061696962A260E360616B11F04503FBD0C3
:1023600011F00500A3637FF45BAF2E6B636906F089
:102370000F06022E00F0A5806B6AEF6B9B0F70D1E9
:10238000A96C804A6368914223F0FF0306D97E4A14
:102390000A447E49A1FB021243EA126343F48053CC
:1023A000022E05F1180063606CD0FEF7B9F86C6C72
:1023B0004FF4007141F21012A862A160E260616BFB
:1023C00011F04503FBD011F0050FA3637FF428AF94
:1023D00062696F4B1340002B7FF4D2AE2B6B13F06E
:1023E0000E0F03F00F0240F08F80EB6A1B78002B7A
:1023F00030D0012B7FF4C4AE636841F23712A96B71
:1024000023F4404343F480436360A160E260616B66
:1024100011F04503FBD011F0050FA3637FF400AF6B
:1024200062695B4B1340002B7FF4AAAE022241F29B
:102430000613A260E360616B11F04503FBD011F05D
:10244000050FA3637FF4ECAE6269514B1340002B80
:102450007FF496AE0522002097E62846FEF7B0FAF4
:10246000AFE600900623402239462846FFF700FEDB
:1024700028BBBB895BBA9B0760D42E6B6C6C06F0E3
:102480000F067DE76B6A002B8FDAEC6B00210823C7
:102490004FF40072009128462146FFF7E9FD70B91C
:1024A00094F8D63094F8D7001B0494F8D41094F81C
:1024B000D52003EB00630B4403EB022077E76C6C41
:1024C0005EE6344A41F20613A260E360616B11F0EC
:1024D0004503FBD011F0050FA3632BD162692C4B90
:1024E0001340002B7FF44CAFA96C2B4A63689142D8
:1024F00023F0FF037FF652AF284A0A442349A1FB89
:10250000021243EA526349E7022A7FF439AEEB6ACA
:102510001B78012B2ED0022B24D0002B9AD063687D
:102520001F4A41F20613A260E360616B11F045039C
:10253000FBD084E72846FEF743FA21E71949062332
:102540004022284600913946FFF792FD0028B6D177
:102550003B7C2E6B03F00F036C6C06F00F060F2B09
:10256000C2D10DE76368104A23F4404343F40043AB
:102570006360D6E763680D4A23F4404343F4804325
:102580006360CEE740787D017FF0FA02893BE65533
:1025900008E0FFFD0001B90380F0FA02FFE0F50555
:1025A0000000B703F1FFFF800002B7030001B7038B
:1025B0000229F8B50C460FD00BD9CC1E012C07D838
:1025C000302383F31188234A0023137083F3118887
:1025D000F8BD0029F4D0F8BD0546302383F31188F7
:1025E0001D4B00261D4F01210361C7E90066C7E9A5
:1025F0000266FDF7E5FF1A4B214628466B61194B31
:10260000C3E90066C3E90266FDF7DAFF6B89164A83
:10261000284643F0020301217E606B814023BA60AB
:102620003B60FEF76DF8114A01200A499368087073
:10263000B34203DD002383F31188F8BD03448342D2
:102640009360F7D0106803685A6013608662FEF7E3
:1026500007FCEFE73C150024CC5D0008040E0024C5
:10266000F05D0008140E0024C01400242C15002472
:1026700010B5BFF34F8FBFF36F8F1C480022C0F817
:102680005022BFF34F8FBFF36F8F436943F4003382
:102690004361BFF34F8FBFF36F8FC0F88420BFF348
:1026A0004F8FD0F8803043F6E074C3F34E3CC3F351
:1026B000C90E4FEA4C1C0CEA0401734641EA8372CE
:1026C000013BC0F860225A1CF8D1ACF1200C1CF17F
:1026D000200FF0D1BFF34F8F436943F48033436140
:1026E000BFF34F8FBFF36F8F10BD00BF00ED00E051
:1026F000704700BF00000000000000000000000064
:10270000FEE700BF00000000000000000000000025
:10271000F8B5154D154F164905F170041548164AC0
:1027200081420DD9043A034652F8046F43F8046B12
:102730009942F9D84B1E1B1A23F0030304331844A3
:10274000874207D9013F00213F1A27F003020432D4
:1027500003F0C8F8A54205D0D5E90420D5E906174D
:102760001035DDE7F8BD00BF245E000830180024F6
:102770003018002430180024645F000800000000B6
:1027800038B51F4DB5F8883013F0040418D01D4B30
:1027900000223021586CC26381F31188186C18B183
:1027A0001A648262FEF75CFB002383F31188B5F89C
:1027B000883013F0040411D0BDE83840FEF798B912
:1027C000302383F311880321D5F88C300E4A197019
:1027D0009A60FEF7CDFA84F31188D8E7302383F3AB
:1027E00011880421D5F88C30074A19709A60FEF7D9
:1027F000BFFA84F31188BDE83840FEF779B900BF0D
:1028000030030024D0000024745A000800000000A7
:102810002DE9F84FDFF80092B9F8883013F004047E
:1028200000F0E0807D4CD4F854B0DBF800A0DBF879
:102830001C502B07CBF8205040F0BA80EA0500F17D
:10284000AC80A80641D54FF03008754F00261EE039
:10285000D4E9083293422BD06269591C01322162BB
:1028600062611D70D4E907329A4201D3A3692362E1
:10287000E068B84205D00368E3605F608662FEF7F7
:10288000EFFA86F31188DBF81C50AB061DD588F3F0
:102890001188DBF8242094F85C5063691540002B04
:1028A000D6D10420FEF784FCD4E908329342D3D178
:1028B0006269002AD0D04FF40060FEF779FC86F3FD
:1028C0001188DBF81C50AB06E1D41AF0800F36D02B
:1028D000290634D54FF03008524E00271CE0A16B7A
:1028E000581C226C0131A0649042A1631D7801D371
:1028F000E36BA364236BB342184605D01A682263C6
:1029000056609F62FEF7ACFACBF8285087F3118827
:10291000DBF81C502B0612D588F31188D4E911235B
:102920009A42DCD1A26B002AD9D00820FEF740FCE5
:102930002AF08003CBF80030002383F311881AF0CB
:10294000400F01D06A0608D4B9F8883013F00404A7
:1029500012D0BDE8F84FFEF7CBB8302383F31188CF
:10296000D4E911239A424BD0002383F31188B9F89C
:10297000883013F00404ECD1302383F31188042150
:10298000D9F88C30284A19709A60FEF7F1F984F36F
:102990001188BDE8F84FFEF7ABB8302383F31188F8
:1029A0004FF48060FEF704FC002383F3118848E7AE
:1029B000C5F3C000EF074FF030034FEA002048BFD7
:1029C00040F02000AE0748BF40F04000690748BF14
:1029D00040F0800083F31188FEF7EAFB002383F3C5
:1029E00011882BE7302383F311880321D9F88C3029
:1029F0000D4A19709A60FEF7BBF984F3118811E74C
:102A0000A36B002BB0D01020FEF7D2FB2AF04003BE
:102A1000CBF80030A8E700BF30030024700000248A
:102A20007C000024A0000024F059000800000000F1
:102A30002DE9F0475B4DB5F8883013F0040413D04E
:102A40004FF080463369F2681340DAB29B076FEAB1
:102A50000202326127D4B5F8883013F0040411D093
:102A6000BDE8F047FEF744B8302383F31188032113
:102A7000D5F88C304C4A19709A60FEF779F984F3D6
:102A80001188DDE7302383F311880421D5F88C30D9
:102A9000454A19709A60FEF76BF984F31188BDE816
:102AA000F047FEF725B8302383F311883F4F4FF0EE
:102AB000000A4FF0300809E08AF31188D4E90331A5
:102AC0002046984788F311886369B3B9EA69716A47
:102AD0002C69881AA368984202EB03092AD3D4E927
:102AE0000032C5F81C9013605A60C4F800A02B692E
:102AF000BB42E1D1C6F80CA0DEE7716AA1EB090088
:102B000083422AD32A69BA4241D091688B4204D9C0
:102B100012685B1A91689942FAD3A36091682260A7
:102B2000C91A536863601C604FF0FF33C2E901416A
:102B3000AB61BEE7BC420CD05B1AE9611344022BC7
:102B4000A36038BF0223CA187263726A511A8B429B
:102B50000CD9002383F311887DE76B6B2A6943F05E
:102B60000203BA426B6319D00346CEE702234FF04B
:102B700080410133D0184863486A821A9A420FD2C2
:102B8000022BE6D96B6B43F001036B63E1E75B1A41
:102B900003EB09022046FEF78BFBDAE70022F9E798
:102BA0000246E6E730030024A85900084003002449
:102BB00038B51A4DB5F8883013F004040ED0184B10
:102BC000184819681960FEF773F9B5F8883013F0E2
:102BD000040411D0BDE83840FDF78ABF302383F3E9
:102BE00011880321D5F88C300F4A19709A60FEF7CE
:102BF000BFF884F31188E2E7302383F311880421BE
:102C0000D5F88C30084A19709A60FEF7B1F884F351
:102C10001188BDE83840FDF76BBF00BF30030024CA
:102C20000020024000000024FC59000800000000C1
:102C300038B51A4DB5F8883013F004040ED0184B8F
:102C4000184819681960FEF733F9B5F8883013F0A1
:102C5000040411D0BDE83840FDF74ABF302383F3A8
:102C600011880321D5F88C300F4A19709A60FEF74D
:102C70007FF884F31188E2E7302383F3118804217D
:102C8000D5F88C30084A19709A60FEF771F884F311
:102C90001188BDE83840FDF72BBF00BF300300248A
:102CA0000060025838000024B459000800000000F9
:102CB00038B51C4DB5F8883013F0040412D01A4B07
:102CC0001A481968426801F00E0159600AB180681B
:102CD0009047B5F8883013F0040411D0BDE83840AF
:102CE000FDF706BF302383F311880321D5F88C301C
:102CF0000F4A19709A60FEF73BF884F31188DEE7FB
:102D0000302383F311880421D5F88C30084A1970D8
:102D10009A60FEF72DF884F31188BDE83840FDF77E
:102D2000E7BE00BF3003002400540258E80200242C
:102D30001C5B000800000000000000000000000014
:102D400038B51D4DB5F8883013F0040414D01B4B72
:102D50001B4A1968090901F00E0108015860D3687F
:102D60000BB110699847B5F8883013F0040411D0FE
:102D7000BDE83840FDF7BCBE302383F31188032142
:102D8000D5F88C300F4A19709A60FDF7F1FF84F383
:102D90001188DCE7302383F311880421D5F88C30C7
:102DA000084A19709A60FDF7E3FF84F31188BDE8C3
:102DB0003840FDF79DBE00BF300300240054025888
:102DC000E8020024045B000800000000000000008E
:102DD00038B51D4DB5F8883013F0040414D01B4BE2
:102DE0001B4A1968090A01F00E010802586053696C
:102DF0000BB190699847B5F8883013F0040411D0EE
:102E0000BDE83840FDF774BE302383F311880321F9
:102E1000D5F88C300F4A19709A60FDF7A9FF84F33A
:102E20001188DCE7302383F311880421D5F88C3036
:102E3000084A19709A60FDF79BFF84F31188BDE87A
:102E40003840FDF755BE00BF30030024005402583F
:102E5000E8020024EC5A0008000000000000000016
:102E600038B51D4DB5F8883013F0040414D01B4B51
:102E70001B4A1968090B01F00E0108035860D36959
:102E80000BB1106A9847B5F8883013F0040411D0DC
:102E9000BDE83840FDF72CBE302383F311880321B1
:102EA000D5F88C300F4A19709A60FDF761FF84F3F2
:102EB0001188DCE7302383F311880421D5F88C30A6
:102EC000084A19709A60FDF753FF84F31188BDE832
:102ED0003840FDF70DBE00BF3003002400540258F7
:102EE000E8020024C85A00080000000000000000AA
:102EF00038B51D4DB5F8883013F0040414D01B4BC1
:102F00001B4A1968090C01F00E0108045860536A45
:102F10000BB1906A9847B5F8883013F0040411D0CB
:102F2000BDE83840FDF7E4BD302383F31188032169
:102F3000D5F88C300F4A19709A60FDF719FF84F3A9
:102F40001188DCE7302383F311880421D5F88C3015
:102F5000084A19709A60FDF70BFF84F31188BDE8E9
:102F60003840FDF7C5BD00BF3003002400540258AF
:102F7000E8020024A45A000800000000000000003D
:102F800038B51D4DB5F8883013F0040414D01B4B30
:102F90001B4A1968090D01F00E0108055860D36A33
:102FA0000BB1106B9847B5F8883013F0040411D0BA
:102FB000BDE83840FDF79CBD302383F31188032121
:102FC000D5F88C300F4A19709A60FDF7D1FE84F362
:102FD0001188DCE7302383F311880421D5F88C3085
:102FE000084A19709A60FDF7C3FE84F31188BDE8A2
:102FF0003840FDF77DBD00BF300300240054025867
:10300000E8020024805A00080000000000000000D0
:1030100038B51D4DB5F8883013F0040414D01B4B9F
:103020001B4A1968090E01F00E0108065860536B1F
:103030000BB1906B9847B5F8883013F0040411D0A9
:10304000BDE83840FDF754BD302383F311880321D8
:10305000D5F88C300F4A19709A60FDF789FE84F319
:103060001188DCE7302383F311880421D5F88C30F4
:10307000084A19709A60FDF77BFE84F31188BDE859
:103080003840FDF735BD00BF30030024005402581E
:10309000E8020024085A00080000000000000000B8
:1030A00038B51D4DB5F8883013F0040414D01B4B0F
:1030B0001B4A1968090F01F00E0108075860D36B0D
:1030C0000BB1106C9847B5F8883013F0040411D098
:1030D000BDE83840FDF70CBD302383F31188032190
:1030E000D5F88C300F4A19709A60FDF741FE84F3D1
:1030F0001188DCE7302383F311880421D5F88C3064
:10310000084A19709A60FDF733FE84F31188BDE810
:103110003840FDF7EDBC00BF3003002400540258D6
:10312000E8020024C0590008000000000000000070
:1031300038B51C4DB5F8883013F0040412D01A4B82
:103140001A481968426801F03D0199600AB1806827
:103150009047B5F8883013F0040411D0BDE838402A
:10316000FDF7C6BC302383F311880321D5F88C30DA
:103170000F4A19709A60FDF7FBFD84F31188DEE7B2
:10318000302383F311880421D5F88C30084A197054
:103190009A60FDF7EDFD84F31188BDE83840FDF736
:1031A000A7BC00BF3003002400000240680D0024CB
:1031B000685A000800000000000000000000000045
:1031C00038B51D4DB5F8883013F0040414D01B4BEE
:1031D0001B4A1968890901F03D0188019860D3688C
:1031E0000BB110699847B5F8883013F0040411D07A
:1031F000BDE83840FDF77CBC302383F31188032100
:10320000D5F88C300F4A19709A60FDF7B1FD84F340
:103210001188DCE7302383F311880421D5F88C3042
:10322000084A19709A60FDF7A3FD84F31188BDE880
:103230003840FDF75DBC00BF3003002400000240B1
:10324000680D00245C5A0008000000000000000027
:1032500038B51D4DB5F8883013F0040414D01B4B5D
:103260001B4A1968090C01F03D0108049860536974
:103270000BB190699847B5F8883013F0040411D069
:10328000BDE83840FDF734BC302383F311880321B7
:10329000D5F88C300F4A19709A60FDF769FD84F3F8
:1032A0001188DCE7302383F311880421D5F88C30B2
:1032B000084A19709A60FDF75BFD84F31188BDE838
:1032C0003840FDF715BC00BF300300240000024069
:1032D000680D0024505A00080000000000000000A3
:1032E00038B51D4DB5F8883013F0040414D01B4BCD
:1032F0001B4A1968890D01F03D0188059860D36962
:103300000BB1106A9847B5F8883013F0040411D057
:10331000BDE83840FDF7ECBB302383F3118803216F
:10332000D5F88C300F4A19709A60FDF721FD84F3AF
:103330001188DCE7302383F311880421D5F88C3021
:10334000084A19709A60FDF713FD84F31188BDE8EF
:103350003840FDF7CDBB00BF300300240000024021
:10336000680D0024445A000800000000000000001E
:1033700038B51C4DB5F8883013F0040412D01A4B40
:103380001A485968426A01F03D01D9600AB1806A61
:103390009047B5F8883013F0040411D0BDE83840E8
:1033A000FDF7A6BB302383F311880321D5F88C30B9
:1033B0000F4A19709A60FDF7DBFC84F31188DEE791
:1033C000302383F311880421D5F88C30084A197012
:1033D0009A60FDF7CDFC84F31188BDE83840FDF715
:1033E00087BB00BF3003002400000240680D0024AA
:1033F000385A000800000000000000000000000033
:1034000038B51D4DB5F8883013F0040414D01B4BAB
:103410001B4A5968890901F03D018801D860D36AC7
:103420000BB1106B9847B5F8883013F0040411D035
:10343000BDE83840FDF75CBB302383F311880321DE
:10344000D5F88C300F4A19709A60FDF791FC84F31F
:103450001188DCE7302383F311880421D5F88C3000
:10346000084A19709A60FDF783FC84F31188BDE85F
:103470003840FDF73DBB00BF300300240000024090
:10348000680D00242C5A0008000000000000000015
:1034900038B51D4DB5F8883013F0040414D01B4B1B
:1034A0001B4A5968090C01F03D010804D860536BB0
:1034B0000BB1906B9847B5F8883013F0040411D025
:1034C000BDE83840FDF714BB302383F31188032196
:1034D000D5F88C300F4A19709A60FDF749FC84F3D7
:1034E0001188DCE7302383F311880421D5F88C3070
:1034F000084A19709A60FDF73BFC84F31188BDE817
:103500003840FDF7F5BA00BF300300240000024048
:10351000680D0024405B000800000000000000006F
:1035200038B51D4DB5F8883013F0040414D01B4B8A
:103530001B4A5968890D01F03D018805D860D36B9D
:103540000BB1106C9847B5F8883013F0040411D013
:10355000BDE83840FDF7CCBA302383F3118803214E
:10356000D5F88C300F4A19709A60FDF701FC84F38E
:103570001188DCE7302383F311880421D5F88C30DF
:10358000084A19709A60FDF7F3FB84F31188BDE8CF
:103590003840FDF7ADBA00BF300300240000024000
:1035A000680D0024345B00080000000000000000EB
:1035B00038B51C4DB5F8883013F0040412D01A4BFE
:1035C0001A481968426C01F03D0199600AB1806C9B
:1035D0009047B5F8883013F0040411D0BDE83840A6
:1035E000FDF786BA302383F311880321D5F88C3098
:1035F0000F4A19709A60FDF7BBFB84F31188DEE770
:10360000302383F311880421D5F88C30084A1970CF
:103610009A60FDF7ADFB84F31188BDE83840FDF7F3
:1036200067BA00BF3003002400040240680D002484
:10363000285B0008000000000000000000000000FF
:1036400038B51D4DB5F8883013F0040414D01B4B69
:103650001B4A1968890901F03D0188019860D36C03
:103660000BB1106D9847B5F8883013F0040411D0F1
:10367000BDE83840FDF73CBA302383F311880321BD
:10368000D5F88C300F4A19709A60FDF771FB84F3FE
:103690001188DCE7302383F311880421D5F88C30BE
:1036A000084A19709A60FDF763FB84F31188BDE83E
:1036B0003840FDF71DBA00BF30030024000402406B
:1036C000680D0024105B00080000000000000000EE
:1036D00038B51D4DB5F8883013F0040414D01B4BD9
:1036E0001B4A1968090C01F03D0108049860536DEC
:1036F0000BB1906D9847B5F8883013F0040411D0E1
:10370000BDE83840FDF7F4B9302383F31188032175
:10371000D5F88C300F4A19709A60FDF729FB84F3B5
:103720001188DCE7302383F311880421D5F88C302D
:10373000084A19709A60FDF71BFB84F31188BDE8F5
:103740003840FDF7D5B900BF300300240004024023
:10375000680D0024F85A0008000000000000000076
:1037600038B51D4DB5F8883013F0040414D01B4B48
:103770001B4A1968890D01F03D0188059860D36DD9
:103780000BB1106E9847B5F8883013F0040411D0CF
:10379000BDE83840FDF7ACB9302383F3118803212D
:1037A000D5F88C300F4A19709A60FDF7E1FA84F36E
:1037B0001188DCE7302383F311880421D5F88C309D
:1037C000084A19709A60FDF7D3FA84F31188BDE8AE
:1037D0003840FDF78DB900BF3003002400040240DB
:1037E000680D0024D45A000800000000000000000A
:1037F00038B51C4DB5F8883013F0040412D01A4BBC
:103800001A485968426E01F03D01D9600AB1806ED4
:103810009047B5F8883013F0040411D0BDE8384063
:10382000FDF766B9302383F311880321D5F88C3076
:103830000F4A19709A60FDF79BFA84F31188DEE74E
:10384000302383F311880421D5F88C30084A19708D
:103850009A60FDF78DFA84F31188BDE83840FDF7D2
:1038600047B900BF3003002400040240680D002463
:10387000B05A000800000000000000000000000036
:1038800038B51D4DB5F8883013F0040414D01B4B27
:103890001B4A5968890901F03D018801D860D36E3F
:1038A0000BB1106F9847B5F8883013F0040411D0AD
:1038B000BDE83840FDF71CB9302383F3118803219C
:1038C000D5F88C300F4A19709A60FDF751FA84F3DD
:1038D0001188DCE7302383F311880421D5F88C307C
:1038E000084A19709A60FDF743FA84F31188BDE81D
:1038F0003840FDF7FDB800BF30030024000402404B
:10390000680D00248C5A0008000000000000000030
:1039100038B51D4DB5F8883013F0040414D01B4B96
:103920001B4A5968090C01F03D010804D860536F27
:103930000BB1906F9847B5F8883013F0040411D09C
:10394000BDE83840FDF7D4B8302383F31188032154
:10395000D5F88C300F4A19709A60FDF709FA84F394
:103960001188DCE7302383F311880421D5F88C30EB
:10397000084A19709A60FDF7FBF984F31188BDE8D5
:103980003840FDF7B5B800BF300300240004024002
:10399000680D0024145A0008000000000000000018
:1039A00038B51D4DB5F8883013F0040415D01B4B05
:1039B0001B4A5968890D01F03D018805D860D36F15
:1039C00013B1D2F880009847B5F8883013F004049A
:1039D00011D0BDE83840FDF78BB8302383F3118850
:1039E0000321D5F88C300F4A19709A60FDF7C0F9A1
:1039F00084F31188DBE7302383F311880421D5F8A1
:103A00008C30084A19709A60FDF7B2F984F3118876
:103A1000BDE83840FDF76CB83003002400040240D4
:103A2000680D0024CC5900080000000000000000D0
:103A30002DE9F84FDFF88C92B9F8883013F00404C0
:103A400000F0EE80A04ED6F890406769A3691F4051
:103A500017F48058676140F06281002FC0F2B58092
:103A60003B0500F1CB80BD040CD5D4F8083813F029
:103A7000060FE36823F470530CBF43F4105343F470
:103A8000A053E36038074DD4F90253D4BA0200F1D1
:103A90001281FB0600F1E3803B03D4F818481AD5E5
:103AA000E60300F13B82A50300F13482600300F1DC
:103AB0002D82210300F10E82E20200F11182A302A5
:103AC00000F11482660200F11782250200F11A82C9
:103AD000E00100F19A8179031AD5E20700F1CC8167
:103AE000A30700F1CF81670700F1D281260700F11B
:103AF000D581E50600F1D881A00600F1DB816106E1
:103B000000F1DE81220600F1E181E30500F184810C
:103B1000B9F8883013F0040400F09080BDE8F84F45
:103B2000FCF7E6BF7368DB68002BADD066489847AA
:103B3000F902ABD54FF0000CD6F890A0DFF88CB1AD
:103B400001226546604807E00135D6F89430EDB2B1
:103B50009B689D42AC4699D80AEB4511D1F80039D3
:103B600003F44023B3F5802FEED1D1F80039002BB8
:103B7000EADAD1F8003943F09043C1F80039D1F8BE
:103B80000039002BFBDB4FEA8C1CD6F890104CF070
:103B900020030B610B699B06FCD4DBF80410DBF8F7
:103BA00004305B1A112BFAD906EB8503318902FA2E
:103BB00005FCDB6821EA0C019B683181002BC3D036
:103BC0002946984701224048BEE7D4F8003E9A07AC
:103BD00040F01481D4F8043823F00103C4F8043809
:103BE00096F88C30337073681B68002B3FF438AF45
:103BF0000521354898473B057FF535AFD6E92401C7
:103C0000FDF7D6F8337886F88C3005233370736867
:103C10001B6813B104212C4898470023B36022E7A6
:103C2000302383F311880321D9F88C30284A197086
:103C30009A60FDF79DF884F3118803E7302383F33E
:103C400011880421D9F88C30214A19709A60FDF747
:103C50008FF884F31188BDE8F84FFCF749BFD6F818
:103C600090100B6A03F4F010C3F30A1203F00F0371
:103C7000B0F5802F00F0D480B0F5402F7FF40CAF6A
:103C800006EB8303DB68186A002A3FF405AF01F5F1
:103C900080550023464613F0030F014600D12E68DD
:103CA000072B03F1010303D801F8016B360A08461C
:103CB0009A42F0D1F0E6D6F890A000254FF0010B23
:103CC00001480FE0300300244C020024001000E003
:103CD000D85900080135D6F89430EDB29B689D4262
:103CE0003FF6D7AE0AEB4512D2F8003B03F440236F
:103CF000B3F5802FEED1D2F8003B0BFA05F1002B83
:103D0000E8DA06EB8503DB68DA68738923EA0103E6
:103D10007381002ADED0294690478248DAE70025E1
:103D20000223242206F10C002946C6F88850B5600B
:103D3000337001F0D7FD202386F87050236123698A
:103D400013F02003FBD1784948684A68121A112AF7
:103D5000FBD90022D6F894704FF000604FF0FF318D
:103D6000C4F834284FF00112BD68C4F81C2804EBD5
:103D70004312AB4203F10103C2F80009C2F8000B81
:103D8000C2F80819C2F8081BF1D138681023606224
:103D900023612369D906FCD4634A516853685B1ACE
:103DA000112BFBD9D4F80038002123F4FE63C4F8AA
:103DB00000385E4BA26913437268A361092312683D
:103DC000C4F81038C4F81438594BF3604FF0C043AE
:103DD000C4F8103B574BC4F8003BC4F81019C4F8A2
:103DE000003900F1100340F48010C6F89830A0624A
:103DF000002A3FF48DAE4B48904789E6D4F8003E48
:103E000023F00303C4F8003EE4E60820FCF760FF5B
:103E100079037FF57DAE60E60820FCF7D1FE77E6FA
:103E2000981C06EB80035B689B69D3E9005AA5EBFD
:103E30000A0E9D68DAB101F5805C294600234546EB
:103E4000884613F0030F414601D1DCF800509E452F
:103E500003F1010303D901F8015B2D0A88469A4258
:103E6000EFD106EB800673689B69D3E901A5154481
:103E70005244C3E901250FE60020FCF7A1FEA30789
:103E80007FF531AE0120FCF79BFE67077FF52EAE74
:103E90000220FCF795FE26077FF52BAE0320FCF7EA
:103EA0008FFEE5067FF528AE0420FCF789FEA0060C
:103EB0007FF525AE0520FCF783FE61067FF522AE77
:103EC0000620FCF77DFE22067FF51FAE0720FCF7DB
:103ED00077FE1AE60320FCF7FBFEE2027FF5EFAD6A
:103EE0000420FCF7F5FEA3027FF5ECAD0520FCF7FE
:103EF000EFFE66027FF5E9AD0620FCF7E9FE25023C
:103F00007FF5E6AD0720FCF7E3FEE1E50220FCF7D4
:103F1000DFFECEE50120FCF7DBFEC7E50020FCF765
:103F2000D7FEC0E54C020024001000E010000C0099
:103F3000A85D0008408000100000000000000000A4
:103F400038B51C4DB5F8883013F0040410D01A4869
:103F5000C269536911690B4093615B0627D4B5F8B8
:103F6000883013F0040411D0BDE83840FCF7C0BD20
:103F7000302383F311880321D5F88C300F4A197050
:103F80009A60FCF7F5FE84F31188E0E7302383F3B1
:103F900011880421D5F88C30084A19709A60FCF712
:103FA000E7FE84F31188BDE83840FCF7A1BDFCF7BB
:103FB000EFFFD4E73003002420010024E05A00087A
:103FC00038B51C4DB5F8883013F0040410D01A48E9
:103FD000C269536911690B4093615B0627D4B5F838
:103FE000883013F0040411D0BDE83840FCF780BDE0
:103FF000302383F311880321D5F88C300F4A1970D0
:104000009A60FCF7B5FE84F31188E0E7302383F370
:1040100011880421D5F88C30084A19709A60FCF791
:10402000A7FE84F31188BDE83840FCF761BDFCF7BA
:10403000AFFFD4E7300300245C010024BC5A000821
:1040400038B51C4DB5F8883013F0040410D01A4868
:10405000C269536911690B4093615B0627D4B5F8B7
:10406000883013F0040411D0BDE83840FCF740BD9F
:10407000302383F311880321D5F88C300F4A19704F
:104080009A60FCF775FE84F31188E0E7302383F330
:1040900011880421D5F88C30084A19709A60FCF711
:1040A00067FE84F31188BDE83840FCF721BDFCF7BA
:1040B0006FFFD4E73003002498010024985A0008C9
:1040C00038B51C4DB5F8883013F0040410D01A48E8
:1040D000C269536911690B4093615B0627D4B5F837
:1040E000883013F0040411D0BDE83840FCF700BD5F
:1040F000302383F311880321D5F88C300F4A1970CF
:104100009A60FCF735FE84F31188E0E7302383F3EF
:1041100011880421D5F88C30084A19709A60FCF790
:1041200027FE84F31188BDE83840FCF7E1BCFCF7BA
:104130002FFFD4E730030024D4010024205A0008C4
:1041400038B51C4DB5F8883013F0040410D01A4867
:10415000C269536911690B4093615B0627D4B5F8B6
:10416000883013F0040411D0BDE83840FCF7C0BC1F
:10417000302383F311880321D5F88C300F4A19704E
:104180009A60FCF7F5FD84F31188E0E7302383F3B0
:1041900011880421D5F88C30084A19709A60FCF710
:1041A000E7FD84F31188BDE83840FCF7A1BCFCF7BB
:1041B000EFFED4E73003002410020024E459000885
:1041C000B44940F2FF700023D1F88820024330B494
:1041D000C1F88820B04CD1F88820B04D1440B04AC6
:1041E000C1F88840D1F88840D1F8E0400443C1F8D4
:1041F000E040D1F808410443AA48C1F80841D1F889
:1042000008414FF68F7453609560D3605461A64C9B
:104210001462A64C5462A64C146002F50062A54CD0
:10422000436084604BF67E74C3604461A24C0462B8
:10423000A24C4462A24C04604FF6FF70A14C536044
:104240009460A14CD36050611462A04C5462A04CA5
:104250001460A04CC2F80434C2F808449E4CC2F862
:104260000C34C2F81404C2F8204404F1F84404F5F4
:104270000814C2F82444994CC2F800446FF4405426
:10428000C2F80438C2F80848A4F17E54C2F80C38C9
:10429000A4F5CB14C2F81408A4F63314C2F82048CD
:1042A0004FF0CC34C2F824488D4CC2F8004802F5D7
:1042B00040628C4C536094608B4CD36050611462AC
:1042C00004F1F844A4F67744546204F15E44A4F582
:1042D0009014A4F2AB541460844CC2F80434C2F8B5
:1042E00008444FF6BF74C2F80C34C2F81444804C32
:1042F000C2F820447F4CC2F824447F4CC2F80044EA
:104300007E4CC2F80438C2F808484FF4A034C2F812
:104310000C484FF6E374C2F814484FF08044C2F8DA
:10432000204842F20424C2F82448754CC2F80048E0
:104330004FF6CF74C2F8043C02F540629060D3603F
:10434000546145F2505414626E4C536214604FF045
:104350005534C2F80434C2F80834C2F80C44C2F828
:104360001404C2F82034C2F82434C2F80034C2F86D
:104370000438C2F80838C2F80C48C2F81408022001
:10438000C2F82038604CC2F82438C2F80038012343
:1043900002F52052C4F80831D1F8F4300343C1F8D3
:1043A000F430D1F81C310343C1F81C31D1F81C3171
:1043B000D06053689904FCD554490123544C002023
:1043C000116093604FF440435249D460106193618F
:1043D0008B699A04FCD50B682E4A43F480730B60FA
:1043E000136F03F44073B3F5007F04D04FF48031B2
:1043F00000231167136727490B6843F001030B6023
:104400000B685B07FCD50023224A0B61136913F08C
:104410003803FBD14FF0804001243F4914605060C5
:104420003E485367D162106113681A4943F48053C0
:1044300013600B689D04FCD50B68164A43F080039B
:104440000B601368DC05FCD5536F124943F0010380
:1044500053674B6F9807FCD5314A0020314B324CE3
:104460008C6248640A64CB620B680A4A43F080534A
:104470000B6013689900FCD5482000234FF4886135
:10448000402490614FF44010D16114622749D364F5
:104490004EE000BF0044025800F8FFFFFC00F3AB01
:1044A0000000025800040258B00B00B00AAA0A002B
:1044B0006BD5AEAACACFA0FC226066000011B0CCBA
:1044C000BA7AAFABFFCCFF03BCCCBB30CCCC0C007A
:1044D000AABBAA023FF03FFACC0C0050EA9FEAAA1E
:1044E000AABAAAAAFFCFCFFFCCCCCC503F0FFFFF78
:1044F000CC0CCC005C5055C5EA1A9AAA0540A10024
:104500005ABDAEFFA955FFFF0080005100C000F06A
:1045100002000001004802580000FF010088100856
:10452000310E0707DD0DC001404040000020005261
:10453000136550653020936508600B681B07FCD13C
:10454000164BD3F8DC2042F00052C3F8DC20D3F83D
:10455000042142F00052C3F80421D3F80421D3F817
:10456000DC2042F08042C3F8DC20D3F8042142F082
:104570008042C3F80421D3F80421D3F8DC2042F0B0
:104580000042C3F8DC20D3F8042142F0004230BCE2
:10459000C3F80421D3F80431704700BF0044025827
:1045A00070B5154C01222568E0682B685C6085F8C1
:1045B00024202360E560FCF72BFCB4F88830064625
:1045C0009B0705D531462846BDE87040FBF7F8BE8D
:1045D00090F82430816ADB00D4F88C2043F0020389
:1045E000C2E902511370FCF7C3FB31462846BDE80F
:1045F0007040FBF7E5BE00BF300300240000000060
:10460000154B1A7D1ABB1A6970B5D3E90014A4EBD7
:10461000010CB2EBAC0F02D14FF0FF3070BD9E68C1
:104620000132351DAC429D60306088BF99680B48EF
:1046300099601A61FCF76CFE094B1A68DB68926896
:104640009B689A4206D9FFF7ABFF002070BD6FF060
:1046500001007047002070BD540E0024740E002429
:1046600030030024000000000000000000000000F3
:104670002DE9F843204E04468846914600F1200774
:1046800007E0656AC3E900752B606362FDF728F9EE
:1046900058B9237D494604204BB923695BB9F368B7
:1046A000B9F1000FEDD14FF0FF30BDE8F8836FF0A6
:1046B0000100BDE8F883E1680A180968E260C8F8FB
:1046C000001061688A4211D2013B04F11800236195
:1046D000FCF71EFE084B1A68DB6892689B689A42DA
:1046E00007D9FFF75DFF0020BDE8F8832268E2608C
:1046F000EAE70020D9E700BF3003002400000000F3
:10470000F0B5302583B007460C4685F31188FFF7D6
:1047100077FF002686F31188002838D02CB91F4A6D
:1047200053690133536103B0F0BD85F311881C4810
:10473000324601A9FFF79CFF86F3118848B985F33B
:104740001188184A13880BB1013B1380002383F3AF
:104750001188302484F311883846FFF751FF002375
:1047600083F311880028DAD184F311880D4A138865
:10477000FF2B07D80C49013308889BB2984213805D
:1047800038BF0B80002383F3118803B0F0BD85F39D
:104790001188044A1388FF2BF4D8EBE7380E002465
:1047A000540E00247C1200247E120024000000001D
:1047B00030B5002383B00278019302F0F003802B20
:1047C00033D0902B15D0A02B60D0B02B2FD0E02B66
:1047D0005ED0C02B6DD0D02B76D0F12A5AD14FF2BB
:1047E00002124378ADF804208DF80630019800BA23
:1047F00016E00924417883788DF8052030228DF861
:1048000004408DF806108DF8073082F31188694B4B
:1048100000241B78DBB284F31188B3B9019800BA85
:104820000021FFF76DFF03B030BD0824E2E70B2441
:10483000417883788DF805208DF804408DF80610B6
:104840008DF80730019800BAEAE782F311885A4BD5
:104850009868411EA14299603DDB84F3118882F380
:1048600011885648042201AD0221038913430381B4
:1048700043695B6983E83400FBF78AFF84F311889E
:104880004F4A13680133136003B030BD0A24CFE7E9
:104890000E24CDE7F22A19D142784FF20321837812
:1048A000ADF804108DF806208DF80730019800BA95
:1048B000B6E70C2143788DF805208DF804108DF8AB
:1048C0000630019800BAABE70D21F3E7F32A08D1CF
:1048D0004FF2023285E7986084F31188019800BA9C
:1048E0009EE7F62A17D0F72A1BD90F23F82A8DF84E
:1048F00005208DF8043041D0931DDBB2022B12D974
:10490000FD2A94BF0021012169B9120442F07060B0
:10491000FFF7F6FE87E74FF20F632A48ADF8043041
:104920007EE70F2484E7302181F31188214A002398
:104930001278D2B283F31188B2B181F311881E4A82
:104940009168481E984290600BDB83F31188042124
:104950000DEB0100FCF7F4F8194A136801331360FA
:1049600061E7916083F31188154A01210198136969
:1049700000BA0B441361FFF7C3FE54E7302181F303
:1049800011880C4A00231278D2B283F3118852B1F5
:1049900081F31188084A9168481E98429060D4DAE1
:1049A000916083F311880198002100BAFFF7A8FEF7
:1049B00039E700BF3C1500242C1500244C020024CC
:1049C000380E00240000F60F000000000000000078
:1049D0004FF00009A64BA74ADB684D46A64EDFF80C
:1049E0009C82DFF89CA22DE98048A64F93B0DA6143
:1049F00010240DE043F20403194240F0A2800F2876
:104A000000F0A780F368013C03F10103F36037D0A5
:104A10004FF0300B8BF31188002269464046FFF7B8
:104A200027FE85F3118858BB8BF311883B880BB1A7
:104A3000013B3B8085F31188009B012244F6087CF2
:104A4000C3F30360C3F3074EC3F3072B02FA00F16D
:104A500011EA0C0FCED003228DF804E08DF805B0DA
:104A60008DF806308DF807204FF0FF3301A950462E
:104A7000FCF7E6FFB368013C03F10103B360C7D163
:104A8000302484F311880A2201A97F48FFF7F0FD42
:104A900085F3118800286DD184F311887B4A13882F
:104AA0000BB1013B138085F31188019B09F148018B
:104AB00009F14B0209F10409694418166A44B9F175
:104AC000400F01F8400C4FEA234001F83F0C4FEA39
:104AD000232001F83E0C02F8403C89D1302282F3B9
:104AE00011886B4B93F800905FFA89F385F3118876
:104AF000002B6AD082F31188664A9368013B002B31
:104B00009360C0F2828085F31188302383F311888B
:104B1000614A138943F004031381536902AA5B6954
:104B2000C3E9015240221A6002215B48FBF730FEC4
:104B300085F31188594A4FF00009536801335360D7
:104B400056E702228DF804E08DF805B08DF80720B5
:104B50008AE70EF10803DBB2072B3FF653AFDD21E6
:104B600021FA03F3DB077FF54DAF8DF804E08DF8F4
:104B7000072079E7B9F1000F3FF43AAF84F31188C9
:104B8000474A9368013B002B93600CDA384B11467F
:104B90000520DB681A609A6252685A6013604B60A5
:104BA0000A21FCF79DFE85F31188302282F31188DB
:104BB000374B1B78DBB285F3118863B937498A69B3
:104BC00002EB990299468A6112E7344A9946936941
:104BD000103393610CE782F311882E4A9368013BEE
:104BE000002B93602ADB85F31188302383F311882F
:104BF000294A138943F004031381536902AA5B69AC
:104C0000C3F80090C3E901528EE722490520184BF2
:104C10004A68DB68196099625A6013604B6014211E
:104C2000FCF75EFE85F3118800283FF46EAF1B4A47
:104C30004FF00009936910339361D9E615490520B7
:104C40000B4B4A68DB68196099625A6013604B60CD
:104C50001421FCF745FE85F311880028C5D00F4AC2
:104C6000936903EB99034FF000099361C0E600BF1D
:104C70003003002488590008280E002484120024E0
:104C8000A0000024AC140024540E00247C12002444
:104C90003C1500242C1500244C020024380E00245E
:104CA00020150024000000000000000000000000AB
:104CB00038B5302383F31188124BDC6804F12C05DE
:104CC000E36AA0629D4207D194F8263083B10F2099
:104CD000BDE83840FCF7D4BD1A681846E262FCF71C
:104CE000BFF8E36AAB42F7D194F82630002BEED13F
:104CF00094F825309B07EAD1D4E9043213605A6056
:104D0000E5E700BF300300240000000000000000C1
:104D1000EFF30983203383F30988002383F3118899
:104D2000704700BF0000000000000000000000000D
:104D30003F4B00224FF0FF303E4CD3F880103E4DE9
:104D40002DE98048C3F8800089B0D3F88010C3F8FB
:104D50008020D3F88010D3F88410C3F88400D3F8EF
:104D60008410C3F88420D3F88410D96F2143D96705
:104D7000DC6F32492C40DC67DC6FD3F8884021437C
:104D80002F4CC3F88810D3F88810C1F30A01C3F878
:104D900088102146D3F88850D3F89050C3F890007B
:104DA000D3F89050C3F89020D3F89050D3F8945093
:104DB000C3F89400D3F89450C3F89420D3F89450D7
:104DC000D3F89850C3F89800D3F89850C3F89820B7
:104DD000D3F89850D3F88C50C3F88C00D3F88C508B
:104DE000C3F88C20D3F88C50D3F89C50C3F89C00A7
:104DF000D3F89C00C3F89C20D3F89C30114B226060
:104E0000114803F1A00401E053F8140C14330260BC
:104E10004A60A34241F8082FF6D10C494FF0FF3009
:104E200000230B4C48600B4D19460B48226017E0DD
:104E300000440258FFEFFF7F0010008000F8FFFFE2
:104E4000E8020024645B0008085402580054025829
:104E5000680D0024EC5B00081000024055F8330098
:104E600004EB830202330160202B5160F6D14FF036
:104E7000FF32D54CD5487026A260C025E2604FF0C5
:104E800080648260D24BC26090204FF4003283F87D
:104E90007A03C3F88C41DC604FF0805483F831030F
:104EA0008020C3F884215A6083F81C63C94AC3F880
:104EB00080411C60062483F82753C3F8840158609E
:104EC0004FF01053C2F89840C348C2F89C300523F5
:104ED000C2F8A000C2F89430536A43F4803353629E
:104EE000C2F88410BFF34F8FD2F8805043F6E076BB
:104EF000C5F34E30C5F3C905400100EA06012C4652
:104F000041EA8473013C671CC2F87432F8D120383E
:104F100010F1200FF1D10194BFF34F8FBFF36F8FCA
:104F2000AE4A0025AE494FF0010B02F11800AD4F1B
:104F300001F118034FF4802C4D6081F800B00D6230
:104F4000556115621563A84EDFF8A0E2DFF8A08274
:104F5000DFF8A092DFF8A0A2C1E90633C2E906009B
:104F60009B4B5020C1E90B75C1E90255C1E90455BD
:104F7000C2E90155C2E9035583F81203C3F880C1A1
:104F8000C3F800C04FF0004C82F800B083F87F03F4
:104F90009A48D062C3F88CC1C3F80CC0DFF860C275
:104FA000C1F828C0DFF85CC2C1F834C09649DFF808
:104FB0005CC2916242F28A5151634FF44031D6F89B
:104FC000D82042F02002C6F8D820D6F8002142F0BE
:104FD0002002C6F80021D6F80021D6F8802042F041
:104FE0002002C6F88020D6F8802022F02002C6F8E1
:104FF0008020D6F88020B960D6F8D820844F22F0DF
:1050000020023C46C6F8D820D6F8002122F0200223
:10501000C6F80021D6F80021D6F8E02042F08072D0
:10502000C6F8E020D6F8082142F08072C6F80821C0
:10503000D6F80821D6F8882042F08072C6F8882079
:10504000D6F8882022F08072C6F88820D6F888200A
:1050500081605046D6F8E0206E4922F08072C6F892
:10506000E020D6F8082122F08072C6F80821D6F890
:105070000821694A44F8042B684A7C6007F10C0453
:10508000FA61674A7D613A64103A87F808B0FA63BA
:105090003F65C7E90344634CBC61C7E9084407F1B5
:1050A0003004C7E91122C7E90C445F4A102482F892
:1050B00004B0BC631446556315649564C2E90A558F
:1050C0005A4AFA645A4A7A655A4ABA655A4A226072
:1050D0005A4A62645A4AE2635A4AE2646FF05F04D1
:1050E0000822C7E90A578EF800B083F82343CEF8A8
:1050F0000450C3F884215A600EF10C02CEF8085017
:1051000081F800B0CEE90322102283F82443CEF8C0
:105110001450C3F884215A604B4A4D61CEF82C20BC
:10512000303281F82050CEF8302001F10C028EF898
:1051300020508CF800B0C1E90322434ACA623032E1
:105140000A63424ACEF81C20A2F57842C1E9015513
:10515000CA613D4AC1E909550CF10C01CEE9095576
:10516000CCE90155CCE9031183F8334321464FF4D0
:105170000024CCF81450C3F884415C604FF4001450
:105180008CF82050CCF8245088F800B083F85513E0
:10519000CCF82850C3F888419C600424CCF82C201B
:1051A000C8F82C203032C8F81450CCF83020C8F899
:1051B000302008F10C0288F8205089F800B0C9F8B6
:1051C0001450C8E9032243E00000024000040240FA
:1051D00000E100E000ED00E01B000C0338000024BB
:1051E0000000002400230240004402582001002453
:1051F000D4010024100200244C0200240063025851
:1052000000200240162C0200006002589801002481
:10521000700000245C010024385F00081015002491
:105220002015002400150024D0000024010A0008E5
:10523000004800400024F400A45E00080070005202
:10524000000004300002043016000100003001406C
:1052500009F10C02C9E90322C64ACCF81C2002F568
:105260008A32C8F81C20C44AC8E90155C8E9095562
:10527000C9E90155C9F81C204FF4800283F8561380
:105280002946C3F888219A6041F2180341F20A02C4
:1052900000F830BB89F820B0C9E90B234022C9E9E6
:1052A000095500F01FFBD6F8E830B44943EA0B0378
:1052B000CAE90155C6F8E830D6F8103143EA0B03C5
:1052C000C6F81031D6F810314FF08043AC4EB560BF
:1052D000CA6B42EA0B02CA63AA4ACAF89020AA4AD9
:1052E000CAF8942040F67F429A62019ADA629D6180
:1052F0005D63DD605D60C3F814B0C3F800B00023E7
:1053000086F800B0CDE902250022CDE90455CDE9AB
:10531000062302A8FBF78CFBFBF792FB013CF8D1BC
:105320009A4A4FF0300C9A4B02F10C0199485461A3
:10533000994D9C605C61DC6275602C63C2E903116D
:105340000421D96159639549196299630299B16041
:1053500093490160934941609349C2E90144116056
:1053600003F110021A6114229A6103F124025A62B5
:1053700003F128029A621C221A6303F13C02DA63E9
:1053800003F140021A6403F14402C3E900335A6492
:10539000864BAB638CF3118862B6854B4FF6FF0EDC
:1053A0006C63EC618349844AC5E90154D86800EA1A
:1053B0000E000143D960D3F8FC1041F08071C3F8AE
:1053C000FC107E49C2F8B01F116841F00101116064
:1053D0002022DA7783F822C04FF080432D60596A8B
:1053E00005F11003C5E904334FF0FF330A46AB6102
:1053F00003F50103C5F8883005F19003C5F88C303A
:105400002346C5E90823C5F8844005EB041301349D
:1054100093F89020802C6FF3020283F89020F4D14F
:10542000DFF89C814FF0010966494FF0020B664896
:1054300008F12402A96508F14001C0F8FC2000F140
:10544000F803A96608F11401AA6208F14402E960B0
:105450005E496C64C0F8C4105D49EC670024C0F874
:10546000E410EB645B49EB6200F58C73C0F800510B
:10547000C0F8F880C0F8C840C0F8F090C0F8289193
:1054800080F80E91A0F80CB1C0F804116D65C0F859
:105490000801C5F85080EC65A5F8609085F8629029
:1054A000C5E91B2200F1C402C0F8F42000F58A729D
:1054B000C0E94844C5E91D44C0E94523C0F81C3192
:1054C000E830FBF7CDFC86F800B084F31188302378
:1054D00083F3118840490A78002A00F0A98084F3F8
:1054E0001188DAF890203025D2F8043843F002030E
:1054F000C2F8043885F3118843F698210820FCF798
:10550000EFF9002484F3118885F31188334B2422AA
:1055100021463348CAF8043000F0E4F99AF8003024
:10552000012B00F04081022200238AF8002083F33F
:105530001188DAF8902043F690482A4E6427D2F872
:105540000438302523F00203C2F80438337803F01E
:10555000FF04002B48D185F311884FF4FA7108201D
:10556000FCF7BEF984F31188337803F0FF04002BB5
:10557000F1D039E0003C0040001400580010005CFD
:10558000400D002400000840145E00084C0D00246B
:10559000F00C0024380D002430030024D10A000848
:1055A0003018002400000824910A0008F05C00086C
:1055B00000ED00E00003FA05001000E055CEACC598
:1055C00058030024045D0008C00B0024210A0008D1
:1055D000D103000894590008240E0024285F000815
:1055E000580200243C15002402A8ADF808808DF86C
:1055F0000A70FFF7DDF885F311884FF47A710820FF
:105600000024FCF76DF984F311884FF4725302A85B
:105610008DF80A40ADF80830FFF7CAF885F3118815
:1056200042F228310820FCF75BF984F311888DE7FA
:1056300081F8009082F3118883F311883B7A012B63
:105640000ED1924BD3F8E82042F48022C3F8E82030
:10565000D3F8102142F48022C3F81021D3F810317E
:10566000BA6D43F6095340210126134447F612222E
:105670004FF0020CB3FBF2F27B6DDA604FF0FF32B9
:10568000596040F22D119E6019601A62002387F85C
:105690005C2087F808C083F311887D497D487E4AE5
:1056A00008600B610B7513611375C1E9020000F509
:1056B0008060486079481060C2E9020000F500701F
:1056C00050607748C0E9000083607648C0E9000078
:1056D000836001F11800C1E9060001F12000C1E971
:1056E000080002F11801C2E9061102F12001C2E925
:1056F00008116D4A13806D4A13806D4A13806D4AFC
:1057000013806D4A1360302282F311886B4C6C4A0F
:1057100004F52177E86A04F52E71C4F8A422C4F8D0
:10572000B4728122674FC4F8B022C4F88472664F05
:10573000C4F8BC02A4F8CCC2C4F8B88284F8CE6223
:10574000C4F88832C4F8E82204F53672C4F8C842B6
:10575000C4F8C052C4F8C472C4E9B8330160E86840
:10576000C4F8D03204F53573E962C4F8D432C4E920
:10577000B622D4F8B02283689A4240F28280FBF7C6
:1057800047FBB5F8883084F8CC6204F52A749A0790
:105790000646EC6067D531464C48FAF711FE002307
:1057A00083F311889DE6394B2025DAF89000D3F871
:1057B000D810474A41F00061C3F8D810D3F800115F
:1057C00041F00061C3F80011D3F80011D3F8801044
:1057D00041F00061C3F88010D3F8801021F000611F
:1057E000C3F88010D3F88030E02382F86533394B5A
:1057F000C2F88C51D560C360374BC0F80038C02365
:10580000C0F8004E03604FF4041383630369002B58
:10581000FCDA0123314A0361516853685B1A0B2B90
:10582000FBD90369DB07FCD42C4A516853685B1A27
:10583000112BFBD90369002BFCDA0024DAF8941051
:105840008460FBF7B5FA264BC0F81048C0F814483E
:10585000C0F81C4883614FF0FF334361836843F015
:10586000010383605FE690F82430D5F88C20DB00DC
:10587000816A946043F00203D1601370FBF778FAF9
:1058800089E704F52A70FBF7EBFA88E70044025831
:10589000540E00247C0E002484120024AC12002438
:1058A0002C150024201500247C1200247E120024D4
:1058B000AC140024AE1400248012002440150024EF
:1058C000D1030008D14900089C590008E8170024BA
:1058D00000E100E04014004003002002001000E05E
:1058E000083C30C0830730B548D0541E002A3FD052
:1058F000CAB2034601E0013C3AD303F8012B9D07ED
:10590000F9D1032C2DD9CDB245EA05250F2C45EA56
:10591000054536D9A4F1100222F00F0C03F1200E38
:10592000E6444FEA121C03F1100242E9045542E931
:10593000025510327245F8D10CF1010214F00C0F2F
:1059400003EB021204F00F0C13D0ACF1040323F0AC
:1059500003030433134442F8045B9342FBD10CF07D
:1059600003042CB1C9B21C4403F8011B9C42FBD1B7
:1059700030BD64461346002CF4D1F9E703461446C3
:08598000BFE71A46A446E0E768
:105988004D4944495F5553425F54580069646C65FA
:10599800000000006E6F6E616D65000063300000EE
:1059A800566563746F724230000000005665637478
:1059B8006F72323343000000566563746F7232367B
:1059C80030000000566563746F723135380000008E
:1059D800566563746F723144340000005665637411
:1059E8006F72313938000000566563746F72444332
:1059F80000000000566563746F72383800000000BC
:105A0800566563746F7232354300000056656374DF
:105A18006F72313534000000566563746F72313926
:105A280034000000566563746F723830000000005F
:105A3800566563746F7237430000000056656374DF
:105A48006F72373800000000566563746F72373420
:105A580000000000566563746F7237300000000064
:105A6800566563746F7236430000000056656374B0
:105A78006F72313034000000566563746F723235CE
:105A880038000000566563746F72313530000000CD
:105A9800566563746F723130430000005665637455
:105AA8006F72323534000000566563746F7231339B
:105AB80030000000566563746F72443000000000C7
:105AC800566563746F723235300000005665637432
