:020000040800F2
:1000000000040020B9030008BB030008BB0300087C
:10001000BB030008BB030008BB030008BB030008C8
:10002000BB030008BB030008BB03000881530008A2
:10003000BB030008BB030008BB030008BB030008A8
:10004000BB030008BB030008BB030008BB03000898
:10005000BB030008BB030008BB030008BB03000888
:10006000BB030008BB030008BB030008111F000806
:10007000511F0008911F0008D11F0008112000081F
:100080005120000891200008111B0008BB03000844
:10009000BB030008BB030008BB030008BB03000848
:1000A000BB030008BB030008BB030008BB03000838
:1000B000F1160008BB030008BB030008BB030008DF
:1000C000BB030008BB030008BB030008E1390008BC
:1000D000513A0008BB030008BB030008C116000822
:1000E000BB030008BB030008BB030008BB030008F8
:1000F000BB030008BB030008BB030008D1200008B5
:10010000BB03000891160008BB030008C13A0008B1
:10011000BB030008BB030008BB030008BB030008C7
:10012000112100085121000891210008D121000867
:1001300011220008BB030008BB030008BB03000832
:10014000BB030008BB030008BB030008BB03000897
:100150005122000891220008D1220008BB030008A8
:10016000BB030008BB030008BB030008BB03000877
:10017000BB030008BB030008BB030008BB03000867
:10018000BB030008BB030008BB030008BB03000857
:10019000BB030008313B0008A13B0008BB0300087B
:1001A000BB030008BB030008BB030008BB03000837
:1001B000BB030008BB030008BB030008BB03000827
:1001C000BB030008BB030008BB030008BB03000817
:1001D000BB030008D12A0008BB030008BB030008CA
:1001E000BB030008BB030008BB030008BB030008F7
:1001F000BB030008BB030008BB030008BB030008E7
:10020000BB030008BB030008BB030008BB030008D6
:10021000BB030008BB030008BB030008BB030008C6
:10022000BB030008BB030008BB030008BB030008B6
:10023000BB030008BB030008BB030008BB030008A6
:10024000BB030008C11B0008011C0008411C00087A
:10025000811C0008C11C0008011D0008411D000888
:10026000811D0008BB030008BB030008BB03000896
:10027000BB030008BB030008BB030008BB03000866
:10028000BB030008BB030008BB030008BB03000856
:10029000BB030008BB030008BB030008BB03000846
:1002A000BB030008BB030008BB030008BB03000836
:1002B000BB030008BB030008BB030008BB03000826
:1002C000BB030008BB030008BB030008BB03000816
:1002D000BB030008BB030008BB030008BB03000806
:1002E00072B6264880F30888254880F30988254897
:1002F00025490860022080F31488BFF36F8F00F057
:100300000FF904F00DF84FF0553020491B4A914287
:100310003CBF41F8040BFAE71D49194A91423CBF22
:1003200041F8040BFAE71B491B4A1C4B9A423EBF9B
:1003300051F8040B42F8040BF8E700201849194A59
:1003400091423CBF41F8040BFAE700F039F900F0A4
:1003500027F9154C154DAC4203DA54F8041B8847B5
:10036000F9E705F075F8124C124DAC4203DA54F877
:10037000041B8847F9E700F01BB9000000040020C7
:10038000000800200000000808ED00E00000002048
:100390000004002078610008000000240000002410
:1003A00000000024F4140024E0020008E002000829
:1003B000E0020008E002000892E700F000F8FEE723
:1003C0002DE9F04FC1F80CD0D0F80CD0BDE8F08F7B
:1003D000002383F311882846A047002004F088FDFD
:1003E000FEE704F03DFC00DFFEE70000844641EA42
:1003F000000313F003036DD1403A41D351F8043B9D
:1004000040F8043B51F8043B40F8043B51F8043BEE
:1004100040F8043B51F8043B40F8043B51F8043BDE
:1004200040F8043B51F8043B40F8043B51F8043BCE
:1004300040F8043B51F8043B40F8043B51F8043BBE
:1004400040F8043B51F8043B40F8043B51F8043BAE
:1004500040F8043B51F8043B40F8043B51F8043B9E
:1004600040F8043B51F8043B40F8043B51F8043B8E
:1004700040F8043B51F8043B40F8043B403ABDD2FD
:10048000303211D351F8043B40F8043B51F8043B9F
:1004900040F8043B51F8043B40F8043B51F8043B5E
:1004A00040F8043B103AEDD20C3205D351F8043B2E
:1004B00040F8043B043AF9D2043208D0D2071CBFFA
:1004C00011F8013B00F8013B01D30B880380604623
:1004D000704700BF082A13D38B078DD010F0030399
:1004E0008AD0C3F10403D21ADB071CBF11F8013B09
:1004F00000F8013B80D331F8023B20F8023B7BE758
:10050000043AD9D3013A11F8013B00F8013BF9D282
:100510000B7803704B7843708B788370604670471C
:1005200010B5BFF34F8FBFF36F8F1C480022C0F888
:100530005022BFF34F8FBFF36F8F436943F40033F3
:100540004361BFF34F8FBFF36F8FC0F88420BFF3B9
:100550004F8FD0F8803043F6E074C3F34E3CC3F3C2
:10056000C90E4FEA4C1C0CEA0401734641EA83723F
:10057000013BC0F860225A1CF8D1ACF1200C1CF1F0
:10058000200FF0D1BFF34F8F436943F480334361B1
:10059000BFF34F8FBFF36F8F10BD00BF00ED00E0C2
:1005A000704700BF000000000000000000000000D5
:1005B000FEE700BF00000000000000000000000097
:1005C000F8B5154D154F164905F170041548164A32
:1005D00081420DD9043A034652F8046F43F8046B84
:1005E0009942F9D84B1E1B1A23F003030433184415
:1005F000874207D9013F00213F1A27F00302043246
:1006000005F0F6F9A54205D0D5E90420D5E906178D
:100610001035DDE7F8BD00BF945A0008F41400243B
:10062000F4140024F4140024786100080000000091
:1006300008B501F085F801F063FF00F031FA00F031
:10064000C7FC00F065FC00F0FBFC00F029FD03F0A6
:100650008FFFBDE8084000F003B800BF00000000B5
:1006600003F05EBD0000000000000000000000007C
:100670004FF08043586A70470000000000000000FF
:100680004FF080430021022258631961DA607047FD
:100690004FF080430022DA60704700BF0000000086
:1006A0004FF08043586370470000000000000000D6
:1006B000F8B51546826804460B46AA4200D2856802
:1006C000A1692669761AB54218D30AD82A4618466F
:1006D000FFF78CFEE268A3682846A2615B1BA3605B
:1006E000F8BDAF1B32461846FFF780FE3A4630444D
:1006F000E168FFF77BFEE2683A44ECE72A461846D9
:10070000FFF774FEA2692A44E5E700BF000000007D
:10071000836893422DE9F04104460F4612D2856862
:10072000D4E90460361AB54212D318D82A4639469D
:10073000FFF75CFEE268A368284662615B1BA3606A
:10074000BDE8F081D4E904601546361AB542ECD212
:100750002A463946FFF74AFE62692A44EBE7A5EBD1
:10076000060832463946FFF741FE4246B919E068AD
:10077000FFF73CFEE2684244DDE700BF00000000F6
:1007800010B40A440024C361019B8460C16010BCA2
:1007900002610362C0E90000C0E90511704700BFB3
:1007A000D0E90532934211D0826810B501325C1C49
:1007B000826044611970D0E904329A4201D3C3685F
:1007C0004361002104F00CFC002010BD8268002A67
:1007D000EAD04FF0FF30704700000000000000003A
:1007E00070B5302305460E4683F3118803E004F00C
:1007F000DFFB002819DBAC6831462846002CF6D018
:10080000AB68A969013B4A1CAB602B69AA619A429B
:100810000C7801D3EB68AB61EB690BB128469847C4
:10082000002383F31188204670BD84F3118870BDC6
:100830002DE9F04F83B09A46C6693027019287F3BD
:100840001188CAB183460D46DDF804904FF00008C8
:100850004A4629465846FFF72BFF0446584694B1AE
:1008600006B1B04788F31188A9EB0409254487F342
:100870001188B9F1000FEBD10198002383F311889F
:1008800003B0BDE8F08F514604F092FB0028DFD0A2
:10089000019BA3EB0900002383F3118803B0BDE89B
:1008A000F08F00BF0000000000000000000000000A
:1008B00010B4C3618C18019B0461826010BCC160DC
:1008C0000362C0E90000C0E90511704700000000A4
:1008D000F8B5302304460F46164683F3118803E02B
:1008E00004F066FB002819DBA56831462046002D80
:1008F000F6D06269A368511C013B6161A360177067
:10090000D4E904329A4201D3E3686361E3690BB12D
:1009100020469847002080F31188F8BD85F31188A0
:10092000F8BD00BF00000000000000000000000053
:10093000D0E905239A4210D08268591C013210B5C3
:10094000816182601C780369994201D3C368836125
:10095000002104F045FB204610BD8268002AEBD040
:100960004FF0FF30704700BF0000000000000000A3
:100970002DE9F04F83B09A46C6693027019287F37C
:100980001188CAB183460D46DDF804904FF0000887
:100990004A4629465846FFF7BBFE0446584694B1DE
:1009A00006B1B04788F31188A9EB0409254487F301
:1009B0001188B9F1000FEBD10198002383F311885E
:1009C00003B0BDE8F08F514604F0F2FA0028DFD002
:1009D000019BA3EB0900002383F3118803B0BDE85A
:1009E000F08F00BF000000000000000000000000C9
:1009F00001F01F0C012349090CF1010CB1EB521F4E
:100A000003FA0CF310B503F1FF334FEA521402F06E
:100A10001F0E05D850F82400184020FA0EF010BD23
:100A200050F8211050F8242003EA0100CEF12001F3
:100A300022FA0EF38840184310BD00BF00000000EA
:100A4000C3689B0F08D08368C288180400F47C1028
:100A50001043013080027047826840F6FC734168A1
:100A600003EA8200C2F30342C1F3C23340EA917049
:100A7000093A02330130984090407047000000006E
:100A800090F8D63090F8D7101B0490F8D42090F846
:100A9000D50003EB0163134403EB0020704700BF54
:100AA00000F0C6BF000000000000000000000000D1
:100AB00003460022012118305A611970C3E901224E
:100AC000C3E9032204F0DCBA0000000000000000CB
:100AD0000379052B06D1826A4FF400730020C1E927
:100AE0000032704701207047000000000000000045
:100AF00003F1FF3C10B58C44D0F828E00446F445DF
:100B000005D9436B012043F08003636310BD4FF0B0
:100B1000060C80F804C002F0C3FC0523237110BD4D
:100B200003F1FF3C10B58C44D0F828E00446F445AE
:100B300005D9436B012043F08003636310BD4FF080
:100B4000070C80F804C002F0DBFC0523237110BD04
:100B500038B50579052D01D0012038BD082304469C
:100B6000037102F0FDFC257138BD00BF00000000DC
:100B700003232DE9F041037184B0044602F050FBD9
:100B800000222046114602F0C3FB03AB4FF4D5729E
:100B90000821204602F0E4FBE8B9039B0122C3F3DD
:100BA00003232263934209D02046012502F090FBE3
:100BB00002232846237104B0BDE8F081024603AB4E
:100BC0003721204602F0CCFB0028EDD1039AA24B3E
:100BD00013408BB1E8E703AB00223721204602F037
:100BE000BFFB002835D1039B9B4A1A408ABB1146A4
:100BF0002046226302F08CFB236B03F00F03022BD1
:100C000029D0964F6425964ADFF84C82012B18BFF5
:100C1000174610E0039E16EA080FC5D102F088FBC4
:100C200003466420002BBFD1039B002B28DB013D32
:100C3000BAD004F08DF903AB00223721204602F030
:100C40008FFB064603AB3A4629212046002EE1D011
:100C5000AAE7022323636425824E06E0039B002B50
:100C60000EDB013DA0D004F073F903AB3246012145
:100C7000204602F05DFB03466420002BEED093E794
:100C80005A0003D5236B43F01003236304F10803D8
:100C900000220221204602F07BFB002884D102467C
:100CA00004F138030321204602F05AFB00287FF4A8
:100CB0007BAF04F11806A26B09212046334602F0EF
:100CC00067FB00287FF470AF02ABA26B07212046C0
:100CD00002F046FB054600287FF466AF236B03F065
:100CE0000F03022B5DD07E227F213046E76BFFF79A
:100CF0007FFE70B10623402239462046009502F05F
:100D000067FB00287FF450AFBB895BBA9B0700F1FB
:100D10008D800021204602F0A3FA236B03F00F031D
:100D2000022B6BD03046FFF78BFEA06202AB4FF474
:100D300000721021204602F013FB054600287FF4C4
:100D400033AF029B444E33427FF42EAF236B13F03C
:100D50000E0F03F00F0233D1E36A1978F9B10129BC
:100D60007FF422AF204602F0BBFA03ABA26B37211F
:100D7000204602F0F5FA00287FF416AF039B3342B9
:100D80007FF412AF03AB02220621204602F0E8FAFC
:100D900000287FF409AF039B33427FF405AF05239E
:100DA00007E703AB304A0621204602F0D9FA0028B3
:100DB000AFD1039B28491940B1FA81F14909A9E74C
:100DC000022A7FF4F1AEE36A1978012942D00229A0
:100DD0003ED00029E3D0254E204602F081FA03AB35
:100DE00032460621204602F0BBFA00287FF4DCAE32
:100DF000039A194B1340002BD1D0D5E67E227F21D8
:100E00003046FFF7F5FD01288CD9E56B00234FF440
:100E10000072204600932946082302F0D9FA0028E0
:100E20007FF4C2AE2846FFF72BFE7EE7104B402230
:100E3000394620460093062302F0CAFA00287FF4C0
:100E4000B3AE397C01F00F010F3918BF012161E702
:100E5000084EC1E7084EBFE708E0FFFD0080FF50E5
:100E6000000010800080FFC00001B9030000B7033C
:100E7000F1FFFF800002B7030001B703000000008C
:100E800030B5104D83B0044603E0022A16D804F0B2
:100E90005FF801ABA26B0D21204602F061FA034618
:100EA0000A2043B9019AC2F343212A42A1F1050263
:100EB00004D10429E9D1184603B030BD01231846F6
:100EC00003B030BD08E0FFFD00000000000000009E
:100ED00038B5302383F311880379022B0FD0042215
:100EE00004460023027183F31188FFF7C9FF05460A
:100EF000204602F0EDF902232846237138BD002573
:100F000085F31188284638BD00000000000000006D
:100F100002F066B9000000000000000000000000C0
:100F2000002304490122016002714363C0E90A33CE
:100F3000704700BF145B00080000000000000000C4
:100F40000C30FFF775BC00BF00000000000000007F
:100F50004FF0FF330C30FFF76BBC00BF0000000008
:100F60003030FFF705BD00BF0000000000000000AA
:100F70004FF0FF333030FFF7FBBC00BF0000000034
:100F80000C30FFF72DBC00BF000000000000000087
:100F90004FF0FF310C30FFF723BC00BF0000000012
:100FA0003030FFF795BC00BF0000000000000000DB
:100FB0004FF0FF323030FFF78BBC00BF0000000065
:100FC000012914BF6FF013000020704700000000DB
:100FD00003F0F6B800000000000000000000000070
:100FE00003460349012243F8041B02724360704721
:100FF000385B000800000000000000000000000056
:1010000038B5436904460D463BB1294604F10C004E
:10101000FFF7C6FB00280BDB38BD0421084404F0B1
:10102000E7F8294604F10C00FFF7BAFB0028F3DAD1
:10103000201D4FF40061BDE8384004F0D9B800BF6E
:1010400002F0E6BD0000000000000000000000000B
:101050000346002201210C301970C3E9012204F07B
:101060000FB800BF000000000000000000000000FA
:1010700010B53023044683F31188416002F040FE2E
:101080000023984214BF01220222227083F31188A8
:1010900010BD00BF000000000000000000000000C4
:1010A00001F0DEBA000000000000000000000000B7
:1010B00001234022002110B5044600F8303B04F023
:1010C00097FC0023C4E9013310BD00BF00000000FD
:1010D00070B5022300250446242203702946C0F877
:1010E00088500C3040F8045C04F082FC204684F800
:1010F000705001F0C5FA63681B6823B12946204689
:10110000BDE87040184770BD0000000000000000FE
:10111000027805214368017080F88C201B6810B5A7
:1011200004460BB1042198470023A36010BD00BF03
:1011300090F88C104268017013680BB105211847B4
:10114000704700BF00000000000000000000000029
:1011500070B590F87030044613B1002380F87030F9
:1011600004F18002204601F02BFB63689B6853B3B7
:101170002046984738B3A56F94F88030B4F886209D
:10118000AA422CBF2A46A267190600F1DA80002A7B
:1011900000F08D801522302384F8702083F31188AD
:1011A00062892046E36842F001029B696281D4E9CA
:1011B0001D51002419609D6021465C6001F010FB08
:1011C00084F3118870BD94F8803013F060061846DF
:1011D0001CD194F8812003F07F0545EA022540F2F6
:1011E0000232954200F0518140D8B5F5807F00F081
:1011F00008811DD9B5F5817F00F01281B5F5407FDA
:1012000004D194F88230012B00F0D38000212046D5
:1012100001F046FE0021204601F032FE63681B68A3
:1012200013B1062120469847062384F8703070BD1C
:10123000012D61D0022D51D194F98430204694F8CB
:101240008410002B01F00F01C0F2AC8001F098FA7D
:10125000012800F0AC800228D8D19A49022300224C
:10126000C4E91D13E26794F8803087E7B5F5006F95
:1012700000F0038147D9B5F5106F39D12378042BDD
:1012800000F0A18094F882304BB10421626884F8A8
:101290008B302170136813B1022120469847002338
:1012A00094F88000C4E91D33E367030663D40B227E
:1012B000302384F8702083F3118822890025E368A5
:1012C000204642F0010229465B6922819D60C3E904
:1012D000005501F01DFB85F3118870BD002D95D1DF
:1012E000022204F18801E56761671546A26745E7B8
:1012F00040F60242954289D1022573490022C4E991
:101300001D15E2673AE7B5F5A06F00F09F80A5F5DF
:10131000C065012D3FF67AAF61682046B4F884308D
:101320004D6894F8822094F88310A84700283FF471
:101330006DAF94F88030D0E90052E667C4E91D250E
:101340001CE7C2B10922302384F8702083F311888E
:1013500022892046E36842F001025B692281D4E9D8
:101360001D51002419609D6021465C6001F0D0FA97
:1013700084F3118870BD1422302384F8702083F325
:10138000118862890025E368204642F0010229465F
:101390009B6962819D60C3E9005501F021FA85F3E4
:1013A000118870BD01F0FCF901287FF454AF474962
:1013B00054E7B4F88830E66743F00203C4E91D66D9
:1013C000A4F8883071E7302383F31188A3682022C2
:1013D000314604F1100003F00113A36004F008FB90
:1013E000204601F0C5F986F311880321636884F86B
:1013F0008B6021701B68002B3FF444AF2046984758
:1014000040E794F88230012B7FF400AFB4F88830C5
:10141000E66723F00203C4E91D66A4F8883044E7B8
:1014200094F88230002B7FF4F1AE94F8843013F0FE
:101430000F0106D01E06204639D401F041FD94F874
:1014400080000023C4E91D33E3672EE7B4F8803041
:10145000B3F5A06FF5D194F88230204684F88A3035
:1014600001F076F963681B6813B1012120469847A3
:10147000032394F880002370E3E7012204F18B0139
:10148000E6671546C4E91D1278E694F88230002B11
:101490007FF4BCAE94F8843013F00F01D1D01D0658
:1014A000204609D401F0ECFC94F88000C9E701F073
:1014B00017FD94F88000C4E701F0F2FC94F8800076
:1014C000BFE700BF605B0008685B0008645B000862
:1014D00038B590F870300446152B27D8DFE803F0B4
:1014E0002726262626262726260B103826262626B9
:1014F000262626262727856FB0F886309D422ED3D4
:101500001422302384F8702083F311886289002527
:10151000E368204642F0010229469B6962819D6092
:10152000C3E9005501F05CF985F3118838BD00214D
:1015300001F0B6FC0021204601F0A2FC63681B68A4
:1015400013B1062120469847062384F8703038BD31
:10155000C36F03B19847002384F8703038BDC36867
:101560001B8AB5FBF3F203FB1255002DC8D13023C3
:1015700083F3118802892946C36842F001025B693E
:1015800002819D60C3E9005501F0C2F985F311881D
:101590000A2384F8703038BD00000000000000000D
:1015A00038B590F870300446152B21D8DFE803F0E9
:1015B0002120202020202120202121212020202026
:1015C00020202020320B0B22302380F8702083F360
:1015D000118802890025C36842F0010229465B692F
:1015E00002819D60C3E9005501F092F985F31188ED
:1015F00038BD002101F054FC0021204601F040FCE0
:1016000063681B6813B1062120469847062384F8B7
:10161000703038BDC3689B695B68002BE8D1C36F2D
:1016200003B19847002384F8703038BD00000000F3
:101630000A4A09014FEA501C0123C9B200B500F063
:101640001F0E104403FA0EF380F8001302EB8C0116
:10165000C1F8803142F82C305DF804FB00E100E075
:1016600000F01F0C0122084B002102FA0CF24FEA95
:10167000501C184403EB8C03C3F88020C3F880216E
:1016800080F80013704700BF00E100E00000000098
:1016900010B5074C204603F03BF8064801F068FF00
:1016A000204603F04DF8BDE8104003F0A9BE00BF8E
:1016B000845B0008B401002400000000000000006A
:1016C00010B5074C204603F023F8064802F0A0FDB1
:1016D000204603F035F8BDE8104003F091BE00BF8E
:1016E000785B0008300300240000000000000000C8
:1016F00010B5064C204603F00BF802F041FD2046E1
:1017000003F01EF8BDE8104003F07ABE6C5B0008E1
:1017100008B509217A20FFF78BFF09213120FFF757
:1017200087FF07211C20FFF783FF0C212720BDE83E
:101730000840FFF77DBF00BF000000000000000070
:1017400038B50022334B4FF0FF31334CD3F88000D3
:10175000C3F88010D3F88000C3F88020D3F880004D
:10176000D3F88400C3F88410D3F88400C3F884202D
:10177000D3F88400D86F294D2043D867DC6F284800
:101780002C40DC67DC6FD3F888402043C3F8880026
:10179000D3F88800C0F30A00C3F88800D3F88800A3
:1017A000D3F89000C3F89010D3F89000C3F89020BD
:1017B000D3F89000D3F89400C3F89410D3F89400B1
:1017C000C3F89420D3F89400D3F89800C3F8981085
:1017D000D3F89800C3F89820D3F89800D3F88C0079
:1017E000C3F88C10D3F88C00C3F88C20D3F88C008D
:1017F000D3F89C00C3F89C10D3F89C10C3F89C202D
:10180000D3F89C3000F0DCFA00F082FDBDE83840EF
:10181000FFF77EBF00440258FFEFFF7F00100080FB
:1018200000F8FFFF000000000000000000000000C2
:101830006F4B02206F49704A10B40124C1F808416F
:10184000D3F8F4100143C3F8F410D3F81C1101438A
:10185000C3F81C11D3F81C31D06053689C04FCD52C
:1018600066490123664C0020116093604FF44043A9
:101870006149D460106193618B699804FCD50B6851
:101880005B4A43F480730B60136F03F44073B3F54A
:10189000807F04D04FF48031002311671367544ACE
:1018A000136F43F019031367136F9907FCD513687F
:1018B0004F4943F0010313600B685B07FCD500231D
:1018C0004B4A0B61136913F03803FBD14FF0804191
:1018D00001244C48146051604B495367D062116138
:1018E0001368434843F48033136003689C03FCD5BA
:1018F00003683F4943F4805303600B689804FCD5A8
:101900000B683B4A43F080030B601368D905FCD594
:10191000516F374B41F0010151675A6F9207FCD567
:1019200000223A483A4998623A4C5A633A48196355
:101930003A49DA639C635A641864D96219682C4A7C
:1019400041F0A8511960136803F02853B3F1285FE0
:10195000F9D148244FF488614020002394614FF46A
:101960004014D1614FF0005110623220D1642C49F3
:1019700013655465936508600B6803F00F03022B31
:10198000FAD11B4A136943F003031361136903F08F
:101990003803182BFAD1D2F8DC3010BC43F00053D6
:1019A000C2F8DC30D2F8043143F00053C2F80431FD
:1019B000D2F80431D2F8DC3043F08043C2F8DC3096
:1019C000D2F8043143F08043C2F80431D2F8043134
:1019D000D2F8DC3043F00043C2F8DC30D2F80431F6
:1019E00043F00043C2F80431D2F80431704700BF1D
:1019F00000440258008000510048025800C000F026
:101A0000020000010000FF01008810084240400071
:101A10008F030F078F4F07078F0F07075505FF012C
:101A20000020005200000000000000000000000044
:101A300070B51E4C00261E4D2046FFF739F81D4A92
:101A40001D4B05211220C4E90A25C4E90C63FFF7E8
:101A5000EFFD1A4BD3F8D82042F02002C3F8D8206B
:101A6000D3F8002142F02002C3F80021D3F800216E
:101A7000D3F8802042F02002C3F88020D3F88020E1
:101A800022F02002C3F88020D3F88020AE60D3F883
:101A9000D82022F02002C3F8D820D3F8002122F069
:101AA0002002C3F80021D3F8003170BD00000024EB
:101AB0000023024000200240162C0200004402587D
:101AC000104B98420DD0826A9368590706D59368E7
:101AD00043F0100393609368DB06FCD40023D361CA
:101AE0007047016B0A68136823F01F0313601368C3
:101AF000DB07FCD491F80CC03D234A6803FA0CF3D1
:101B00001360E0E700000024000000000000000077
:101B100070B5264802F0FCFD254D264A2E69136853
:101B2000136066B313F0100406D02C78A4F10304FC
:101B3000B4FA84F464096400180648BF44F004044D
:101B4000D90523D59A0544F0080401D544F01004C2
:101B50001748FFF7B5FFF3681BB3052221462A702B
:101B600098472B78052B1CD0302383F311884FF036
:101B7000FF31114803F00CFA002383F311880B485E
:101B800002F0DEFDBDE8704003F03ABC9B05DDD4F9
:101B9000002CDDD1054802F0D3FDBDE8704003F014
:101BA0002FBC022200232A702B61DDE7905B000826
:101BB0000000002400200240140000240000000067
:101BC0000A4808B502F0A4FD094B0A4819684268A2
:101BD00001F00E0159600AB180689047034802F095
:101BE000AFFDBDE8084003F00BBC00BFF05B000890
:101BF00000540258380000240000000000000000DB
:101C00000B4810B502F084FD0A4B0B481968C268F6
:101C1000090901F00E010C015C600AB100699047EE
:101C2000034802F08DFDBDE8104003F0E9BB00BFA2
:101C3000E45B000800540258380000240000000053
:101C40000B4810B502F064FD0A4B0B481968426955
:101C5000090A01F00E010C025C600AB1806990472C
:101C6000034802F06DFDBDE8104003F0C9BB00BFA2
:101C7000D85B00080054025838000024000000001F
:101C80000B4810B502F044FD0A4B0B481968C269B5
:101C9000090B01F00E010C035C600AB1006A904769
:101CA000034802F04DFDBDE8104003F0A9BB00BFA2
:101CB000CC5B0008005402583800002400000000EB
:101CC0000B4810B502F024FD0A4B0B481968426A14
:101CD000090C01F00E010C045C600AB1806A9047A7
:101CE000034802F02DFDBDE8104003F089BB00BFA2
:101CF000C05B0008005402583800002400000000B7
:101D00000B4810B502F004FD0A4B0B481968C26A73
:101D1000090D01F00E010C055C600AB1006B9047E3
:101D2000034802F00DFDBDE8104003F069BB00BFA1
:101D3000B45B000800540258380000240000000082
:101D40000B4810B502F0E4FC0A4B0B481968426BD3
:101D5000090E01F00E010C065C600AB1806B904721
:101D6000034802F0EDFCBDE8104003F049BB00BFA2
:101D7000A85B00080054025838000024000000004E
:101D80000B4810B502F0C4FC0A4B0B481968C26B33
:101D9000090F01F00E010C075C600AB1006C90475E
:101DA000034802F0CDFCBDE8104003F029BB00BFA2
:101DB0009C5B00080054025838000024000000001A
:101DC0000B4800220B4B0146026003F1A00C0A48AD
:101DD00001E053F8140C143302604A60634541F883
:101DE000082FF6D1054B4FF0FF325A60704700BF05
:101DF00038000024145C00080854025800540258AB
:101E00000728F8B5044606D9082815D101204FF057
:101E1000070C002402E00120A446A040204E3568B3
:101E200005420CD04FF0010E01E0054207D001340D
:101E3000A4450EFA04F0F8D200252846F8BD054363
:101E4000184F356006EBC40604EB8405C6E9012390
:101E5000154BA60007EB8505D3F8E00040F4001011
:101E6000C3F8E000D3F8080140F40010C3F80801FB
:101E7000D3F8083112B1687CFFF7DAFB33190E2270
:101E8000002007EB830157F823404B68097A8A400A
:101E9000196821F00F011960626018602846F8BDCA
:101EA00038000024FC5B00080044025800000000D9
:101EB00010B50446407CFFF7D3FB0E4B247C012178
:101EC0001A680020A14022EA0102D1B21A60C3E9D7
:101ED000010071B9084BD3F8E02022F40012C3F8D6
:101EE000E020D3F8082122F40012C3F80821D3F827
:101EF000083110BD380000240044025800000000E2
:101F0000C3681960704700BF0000000000000000B7
:101F10000A4808B502F0FCFB094B0A4819684268F8
:101F200001F03D0199600AB180689047034802F0D2
:101F300007FCBDE8084003F063BA00BFF05C00088E
:101F4000000002407C0000240000000000000000AF
:101F50000B4810B502F0DCFB0A4B0B481968C2684D
:101F6000890901F03D018C019C600AB1006990472C
:101F7000034802F0E5FBBDE8104003F041BA00BFA2
:101F8000E45C0008000002407C0000240000000027
:101F90000B4810B502F0BCFB0A4B0B4819684269AC
:101FA000090C01F03D010C049C600AB18069904766
:101FB000034802F0C5FBBDE8104003F021BA00BFA2
:101FC000D85C0008000002407C00002400000000F3
:101FD0000B4810B502F09CFB0A4B0B481968C2690C
:101FE000890D01F03D018C059C600AB1006A9047A3
:101FF000034802F0A5FBBDE8104003F001BA00BFA2
:10200000CC5C0008000002407C00002400000000BE
:102010000A4808B502F07CFB094B0A485968426A35
:1020200001F03D01D9600AB1806A9047034802F08F
:1020300087FBBDE8084003F0E3B900BFC05C0008BF
:10204000000002407C0000240000000000000000AE
:102050000B4810B502F05CFB0A4B0B485968C26A8A
:10206000890901F03D018C01DC600AB1006B9047E9
:10207000034802F065FBBDE8104003F0C1B900BFA2
:10208000B45C0008000002407C0000240000000056
:102090000B4810B502F03CFB0A4B0B485968426BE9
:1020A000090C01F03D010C04DC600AB1806B904723
:1020B000034802F045FBBDE8104003F0A1B900BFA2
:1020C000505D0008000002407C0000240000000079
:1020D0000B4810B502F01CFB0A4B0B485968C26B49
:1020E000890D01F03D018C05DC600AB1006C904760
:1020F000034802F025FBBDE8104003F081B900BFA2
:10210000445D0008000002407C0000240000000044
:102110000A4808B502F0FCFA094B0A481968426CF3
:1021200001F03D0199600AB1806C9047034802F0CC
:1021300007FBBDE8084003F063B900BF385D000845
:10214000000402407C0000240000000000000000A9
:102150000B4810B502F0DCFA0A4B0B481968C26C48
:10216000890901F03D018C019C600AB1006D904726
:10217000034802F0E5FABDE8104003F041B900BFA2
:102180002C5D0008000402407C00002400000000D8
:102190000B4810B502F0BCFA0A4B0B481968426DA7
:1021A000090C01F03D010C049C600AB1806D904760
:1021B000034802F0C5FABDE8104003F021B900BFA2
:1021C000205D0008000402407C00002400000000A4
:1021D0000B4810B502F09CFA0A4B0B481968C26D07
:1021E000890D01F03D018C059C600AB1006E90479D
:1021F000034802F0A5FABDE8104003F001B900BFA2
:10220000145D0008000402407C000024000000006F
:102210000A4808B502F07CFA094B0A485968426E30
:1022200001F03D01D9600AB1806E9047034802F089
:1022300087FABDE8084003F0E3B800BF085D000876
:10224000000402407C0000240000000000000000A8
:102250000B4810B502F05CFA0A4B0B485968C26E85
:10226000890901F03D018C01DC600AB1006F9047E3
:10227000034802F065FABDE8104003F0C1B800BFA2
:10228000FC5C0008000402407C0000240000000008
:102290000B4810B502F03CFA0A4B0B485968426FE4
:1022A000090C01F03D010C04DC600AB1806F90471D
:1022B000034802F045FABDE8104003F0A1B800BFA2
:1022C000A85C0008000402407C000024000000001C
:1022D0000B4810B502F01CFA0A4B0B485968C26F44
:1022E000890D01F03D018C05DC6012B1D0F8800051
:1022F0009047034802F024FABDE8104003F080B88C
:102300009C5C0008000402407C00002400000000E7
:1023100000220D4830B40D4C13460D4D226001E0F3
:1023200055F8330004EB830102330260202B4A602E
:10233000F6D14FF0FF330749074A8B60CB609360BB
:10234000D36030BC704700BF100002407C00002406
:102350005C5D000800000240000402400000000034
:10236000F8B5122820D8DFE800F00A0A0A0A0A0A9B
:102370000A0A0A0A0A0A0A0A0A0A6F7479004FF05E
:10238000010C05460CFA00FC374E346814EA0C0FB9
:102390000DD04FF0010E02E014EA0C0F07D001300F
:1023A000A8420EFA00FCF7D900252846F8BD44EAF9
:1023B0000C04346006EBC0062C4CC6E901235FFA1E
:1023C0008CF3060104EB001573B1294BD3F8D80048
:1023D00040F00100C3F8D800D3F8000140F001003C
:1023E000C3F80001D3F800311CF47F4F1CD1A05971
:1023F000036823F01F030360036813F00103FBD19C
:1024000034443D26212794F80CC006FA0CF6D4F883
:1024100004C0CCF8006003604761002AC5D0A07BEF
:10242000FFF706F92846F8BD114BD3F8D80040F065
:102430000200C3F8D800D3F8000140F00200C3F84E
:102440000001D3F80031D2E74FF0010C0F25002036
:102450009AE74FF0010C0725002095E74FF0800C1C
:102460000F25072090E700BF7C0000245C5D00087A
:1024700000440258000000000000000000000000BE
:1024800010B50446807BFFF7EBF81649607B01220C
:102490000B68824023EA0203DAB20B6072B9124A77
:1024A000D2F8D81021F00101C2F8D810D2F80011EA
:1024B00021F00101C2F80011D2F8002113F47F4F7E
:1024C0000ED1094BD3F8D82022F00202C3F8D8204D
:1024D000D3F8002122F00202C3F80021D3F8003122
:1024E00010BD00BF7C000024004402580000000022
:1024F00083681960704700BF000000000000000002
:10250000704700BF00000000000000000000000055
:102510002DE9F04F02F00309C2F34114C2F3800623
:10252000C2F3C105C2F3C317CE4600224FF00F0B12
:10253000A04616E00368072A0AEA030343EA0E03EB
:1025400003604AD8036A23EA040343EA0C030362E4
:10255000490840D076000132AD004FEA88084FEAC2
:102560008E0ECB07F4D501244368B9F1020F04FAAB
:1025700002F423EA04034FF0030443EA0603436032
:102580004FEA420304FA03F3846824EA03046FEA7F
:10259000030A44EA05048460C46824EA030C02F0D8
:1025A00007044CEA08034FEA8404C36007FA04FCFA
:1025B0000BFA04F4BED1072A16D8036A23EA0403EF
:1025C00043EA0C030362036849080AEA030343EA87
:1025D0000E030360BED1BDE8F08F436A23EA040313
:1025E00043EA0C034362B3E7436A23EA040343EA82
:1025F0000C034362E7E700BF00000000000000009A
:1026000070B400224FF0FF348E6800EB421102F1EB
:10261000010CD1F800590B46002D05DAD1F800590C
:1026200045F08045C1F80059D1F8005B002D05DA6E
:10263000D1F8005B45F08045C1F8005BB242C3F8B9
:1026400008496246C3F8084BDFD14FF0011370BC54
:10265000C0F81C38704700BF0000000000000000F8
:1026600010B5044C2046FEF723FD034A034BC4E992
:10267000242310BD00010024000008408C5E0008E7
:10268000F8B52023D0F8905007462B612C6914F040
:102690002004FBD112204FF0006601F0B9FFD7F8FB
:1026A00094C04FF001134FF0FF31DCF80800C5F87B
:1026B0003448C5F81C3805EB4413844204F1010486
:1026C000C3F80069C3F8006BC3F80819C3F8081B06
:1026D000F1D1DCF800301021D7F89020C7F89830FD
:1026E0006B621161146914F01004FBD1122001F027
:1026F0008FFFD5F80028124B22F4FE621149C5F86D
:102700000028AA6913430922AB61C5F81028D7F83D
:102710009830C5F81428F9604FF0C0410A4AC5F84E
:10272000101B03F1100143F48013C5F8002BC5F80A
:102730001049C5F80029C7F89810AB62F8BD00BF72
:1027400010000C00685E00084080001000000000CF
:10275000D0F8902090F88A10D2F8003823F4FE6365
:1027600043EA0113C2F80038704700BF00000000C0
:102770000346D0E924010A68C3F89820FFF740BF58
:102780005831D0F8903049015B5813F4004004D020
:1027900013F4001F0CBF022001207047000000004E
:1027A0004831D0F8903049015B5813F4004004D010
:1027B00013F4001F0CBF022001207047000000002E
:1027C00000EB8100C3681B6A19685B681160536085
:1027D000704700BF00000000000000000000000083
:1027E00000EB8103DA68936910B41C68DC6009B9F6
:1027F000402C25D8538A1268D0F8900002F0030CC0
:102800005A1E2244BCF1010FB2FBF3F202FB03F3A8
:1028100003F1030323F0030343EAC24300EB411235
:1028200043F0C043C2F8103B0DD009B200EB411099
:1028300010BCD0F8003B43F00443C0F8003B7047A5
:1028400040241C60D6E7D0F8083800EB411209B2EA
:1028500013F4807FD2F8003B14BF43F0805343F061
:102860000053C2F8003BE1E7000000000000000058
:102870002DE9F041244F0446D7F8906006EB401351
:10288000D3F8085B2807C3F8085B03D5D6F81438DB
:10289000190731D4EA072DD5D6F81438DB0729D526
:1028A00007EB8403D9688A6954B9488A5368B3FB33
:1028B000F0F500FB15331BB91068D36898420DD3AF
:1028C00001227B89CD68A24023EA02037B818DB17E
:1028D00021462B460C48BDE8F04118471B1A5460AE
:1028E0003021136081F3118807482146FFF778FFF4
:1028F00084F31188BDE8F08107EB84032146384654
:10290000DB685B689847C5E7000100240000000011
:1029100000EB810310B4DC6862691368D360F3B91B
:10292000D0F890204FF4002002EB4113C3F81009B7
:10293000236803F00303012B2AD008B202EB4010F6
:102940000123D0F800498B4044F00444C0F800490A
:10295000D2F8341810BC0B43C2F83438704709B9A8
:10296000402B26D8B4F810C0D0F890200CF1FF30DE
:102970001844B0FBFCF043EAC04302EB411043F0C3
:102980000053C0F81039236803F00303012BD4D19E
:10299000D2F8083808B213F4807F02EB4113D3F861
:1029A000004914BF44F0805444F00054C3F8004977
:1029B000C4E740231360D5E70000000000000000DA
:1029C0002DE9F84FDFF8049104464FEA401BD9F88F
:1029D000906006EB4013D3F80859E907C3F808598B
:1029E00003D5D6F81038DA070CD42B0608D54FF0EB
:1029F0000108D6F8343808FA04F813EA080F18D199
:102A0000BDE8F88F09EB8003D9684B691868DA686C
:102A100090424AD30122B9F808308F68A24023EAD5
:102A20000203A9F80830002FDFD021464846B847F6
:102A3000DBE709EB8403DB685E69D6E90075AF422A
:102A400041D90134D9F890A0B3F81090E4B20AEB60
:102A50000B0E0AEB0430A7EB050CDEF81839CC4559
:102A60009BB228BFCC46BCEB830FC9D8B468BCF17D
:102A7000040F236803600BD9ACF10501234621F054
:102A800003010431214453F8042F99420260FAD122
:102A900065446444BD42C6E90154DCD3DAF83438F5
:102AA00023EA0803CAF83438AAE7121A00271A6082
:102AB0005F60302383F3118821464846FFF728FFE3
:102AC00087F3118891E7D9F890A0E7E70001002487
:102AD0002DE9F84FA64EA74801F01AFED6F89070DF
:102AE0007D69BB691D4015F480587D6140F02481EB
:102AF000002DC0F2AB80290500F1BE80AA040CD5E0
:102B0000D7F8083813F0060FFB6823F470530CBF96
:102B100043F4105343F4A053FB602B074AD4EC0258
:102B200050D4A80200F1DB80EB0600F1AD802B034E
:102B3000D7F818481AD5E70300F19A81A60300F1E7
:102B40009381600300F18C81210300F16D81E20229
:102B500000F17081A30200F17381670200F17681B8
:102B6000260200F17981E00100F1F08069031AD5B5
:102B7000E20700F12B81A30700F12E81670700F126
:102B80003181260700F13481E50600F13781A00686
:102B900000F13A81610600F13D81220600F1408199
:102BA000E30500F1DA80734801F0CAFDBDE8F84F93
:102BB00002F026BC7368DB68002BB0D06C489847E5
:102BC000EC02AED50021D6F890B04FF00109DFF845
:102BD000A0A10C4607E00134D6F89430E4B29B681B
:102BE0009C4221469DD80BEB4412D2F8003903F4E5
:102BF0004023B3F5802FEED1D2F80039002BEADA6A
:102C0000D2F8003943F09043C2F80039D2F80039C5
:102C1000002BFBDB8901D6F8902041F020011161E7
:102C200013699906FCD4122001F0F2FC09FA04F1B0
:102C300006EB8403DB689A68338923EA0103338156
:102C4000002AC8D0214650469047C4E7D7F8003E36
:102C5000980705D0D7F8003E23F00303C7F8003EDD
:102C6000D7F80438424823F00103C7F80438FEF7C8
:102C70005FFA29057FF542AFD6E92401FFF7C0FCD2
:102C80003B48FEF745FA39E7D6F890100B6A03F493
:102C9000F010C3F30A1203F00F03B0F5802F6BD0CE
:102CA000B0F5402F7FF443AF06EB8303DB68186A6F
:102CB000002A3FF43CAF01F5805400239E070146F3
:102CC00001D1D4F80080072B03F1010304D801F8E7
:102CD000018B4FEA182808469A42EFD127E7D6F829
:102CE000909000244FF0010ADFF884B007E001342F
:102CF000D6F89430E4B29B689C423FF615AF09EBDE
:102D00004412D2F8003B03F44023B3F5802FEED1F8
:102D1000D2F8003B0AFA04F1002BE8DA06EB840350
:102D2000DB68DA68738923EA01037381002ADED045
:102D3000214658469047DAE73046FEF7C9F90D4874
:102D400001F0FEFCBDE8F84F02F05ABB0820FFF787
:102D50008FFD69037FF527AF0AE70820FFF730FEF4
:102D6000044801F0EDFCBDE8F84F02F049BB00BF9C
:102D7000000100245C5E0008981C06EB80035B6881
:102D80009B69D3E90049A4EB090E9C68CAB101F51F
:102D9000805C002313F0030F214601D1DCF8008092
:102DA0009E4503F1010304D901F8018B4FEA18286D
:102DB0000C469A42EED106EB800673689B69D3E914
:102DC000019414444A44C3E90124B0E60020FFF70B
:102DD000F7FDA3077FF5D2AE0120FFF7F1FD6707EE
:102DE0007FF5CFAE0220FFF7EBFD26077FF5CCAED7
:102DF0000320FFF7E5FDE5067FF5C9AE0420FFF7E8
:102E0000DFFDA0067FF5C6AE0520FFF7D9FD610600
:102E10007FF5C3AE0620FFF7D3FD22067FF5C0AED7
:102E20000720FFF7CDFDBBE60320FFF721FDE202FF
:102E30007FF590AE0420FFF71BFDA3027FF58DAE5A
:102E40000520FFF715FD67027FF58AAE0620FFF724
:102E50000FFD26027FF587AE0720FFF709FD82E60A
:102E60000220FFF705FD6FE60120FFF701FD68E690
:102E70000020FFF7FDFC61E60000000000000000FC
:102E8000D0F8903003EB4111D1F8003B43F400132C
:102E9000C1F8003B704700BF0000000000000000C8
:102EA000D0F8903003EB4111D1F8003943F400130E
:102EB000C1F80039704700BF0000000000000000AA
:102EC000D0F8903003EB4111D1F8003B23F400130C
:102ED000C1F8003B704700BF000000000000000088
:102EE000D0F8903003EB4111D1F8003923F40013EE
:102EF000C1F80039704700BF00000000000000006A
:102F000001F001038A0748BF43F002034A0748BFA4
:102F100043F008030A0748BF43F00403CA0648BF4A
:102F200043F010038A06426B48BF43F020031A4364
:102F30004263704700000000000000000000000035
:102F4000F8B5302305460F46164683F31188446CC6
:102F5000E36BA3B900232365E363E362606B10F4C2
:102F6000807008D04FF0FF32A26383F31188012FE5
:102F70000CD81846F8BD80F311880120F8BD4FF039
:102F8000FF31403001F0F4FF6C6CE3E76A6C41F212
:102F90000C119360D160516B11F04503FBD093632A
:102FA00011F0050303D1526918463260F8BD284676
:102FB000FFF7A6FF0120F8BD0000000000000000A0
:102FC000F8B5446C06464FF0FF30F76CA0634FF441
:102FD0008D70E0635802A0629020E062A265012239
:102FE0002265326BD20658BF4902012BA16019D964
:102FF00041F25912E260616B11F04500FBD011F013
:10300000050FA0632FD161692F4A39600A406ABB5E
:103010003A4619463046FFF793FF002850D1002565
:103020002846F8BD41F25812E260656B15F0450183
:10303000FBD015F0050FA16330D16169224A3960D8
:103040000A407ABB3A4619463046FFF779FF0546F3
:103050000028E4D0736C30465A6B596B9963FFF7C4
:103060004FFF2846F8BD3046FFF74AFF636B3046F6
:10307000616BA163FFF744FF002241F20C13A260D1
:10308000E360616B11F04503FBD011F0050FA36302
:1030900011D1636901253B602846F8BD29463046B9
:1030A000FFF72EFF636B0125616B3046A163FFF7CD
:1030B00027FF2846F8BD30460125FFF721FFAFE77F
:1030C000746CF76CD2E700BF08E0FFFD0000000061
:1030D000F8B5446C06464FF0FF30F76CA0634FF430
:1030E0009570E0635802A0629220E062A26501221E
:1030F0002265326BD20658BF4902012BA16019D953
:1031000041F25212E260616B11F04500FBD011F008
:10311000050FA0632FD161692F4A39600A406ABB4D
:103120003A4619463046FFF70BFF002850D10025DC
:103130002846F8BD41F25112E260656B15F0450179
:10314000FBD015F0050FA16330D16169224A3960C7
:103150000A407ABB3A4619463046FFF7F1FE05466B
:103160000028E4D0736C30465A6B596B9963FFF7B3
:10317000C7FE2846F8BD3046FFF7C2FE636B3046F7
:10318000616BA163FFF7BCFE002241F20C13A26049
:10319000E360616B11F04503FBD011F0050FA363F1
:1031A00011D1636901253B602846F8BD29463046A8
:1031B000FFF7A6FE636B0125616B3046A163FFF745
:1031C0009FFE2846F8BD30460125FFF799FEAFE780
:1031D000746CF76CD2E700BF08E0FFFD0000000050
:1031E00010B5074C2046FDF79BFE064B0020064914
:1031F000064AA164E263C4E91003054BE36410BD11
:10320000B40100240070005280F0FA020000043083
:103210000002043000000000000000000000000078
:103220000A4BD0E9112199420ED9094B09480B44A8
:103230001B0AA0FB03031B0953606420136843F0BF
:103240000303136001F084BE0023F5E7801A060033
:10325000FF340C00598B4F010000000000000000FB
:10326000012910B4D0E9111011D0124A4B689042D4
:1032700023F0FF0306D9104A104C0244A4FB02427B
:1032800043EA126343F4805310BC4B6070470C4A0E
:103290004B68904223F0FF03F4D90A4A074C0244DA
:1032A000A4FB024210BC43EA526343F480534B60D8
:1032B000704700BF40787D017FF0FA02893BE655F8
:1032C00080F0FA02FFE0F5050000000000000000B9
:1032D0000022436C5A601A60704700BF0000000073
:1032E000426C0129536823F4404307D0022901D0DE
:1032F00011B1704743F400435360704743F4804377
:103300005360704700000000000000000000000053
:10331000406C41F480518260C160436B1B06FCD558
:1033200080238363704700BF00000000000000009E
:1033300010B541F48851446CA260E160616B11F0FA
:103340004502FBD0A26311F0040203D1616910466B
:10335000196010BDFFF7D4FD012010BD0000000072
:1033600010B541F48851446CA260E160616B11F0CA
:103370004502FBD0A26311F0050203D1616910463A
:10338000196010BDFFF7BCFD012010BD000000005A
:1033900010B541F49851446CA260E160616B11F08A
:1033A0004502FBD0A26311F03F0209D1216A104609
:1033B0001960E2695A60A2699A606269DA6010BDB8
:1033C000FFF79EFD012010BD00000000000000007E
:1033D0002DE9F04190461C4642F21072436C0546BE
:1033E0000F465A62FDF74CFD58BB44F48A534FF028
:1033F000FF326C6C0646E86CA2634FF49572E26390
:103400000622C4F82880E2620122A7652265069A96
:10341000A260E360616B11F04503FBD011F0050F72
:10342000A36326D162691B4B026013405BB1636BDF
:103430000126616B2846A163FFF762FD3046BDE8B7
:10344000F0816C6CF3E7302383F311886B6CDA6BDB
:10345000BAB900221A65DA63DA62596B11F4807125
:103460000BD04FF0FF31996382F311883046BDE8ED
:10347000F0812846FFF744FDD9E781F311886C6C91
:10348000D5E74FF0FF3105F1400001F071FD6B6CA5
:10349000DFE700BF08E0FFFD0000000000000000C3
:1034A00053B32DE9F04704460D46904601EB03095E
:1034B00042F2107A636C2046E76BC3F824A0FDF754
:1034C000DFFC06462946012301353A46204616B15F
:1034D0000120BDE8F087FFF7FBFD4FF400720346C3
:1034E00040469044002BF3D1E16BFCF77FFFA945E8
:1034F000E0D10020BDE8F087002070470000000008
:1035000053B32DE9F04704460D46164601EB030977
:1035100042F2107A4FF400723146E06B1644FCF729
:1035200065FF636C2046D4F83C80C3F824A0FDF707
:10353000A7FC07462946012301354246204617B11C
:103540000120BDE8F087FFF73BFD0028F8D1A94531
:10355000E0D10020BDE8F0870020704700000000A7
:103560000020704700000000000000000000000084
:1035700010B5426C00243023D46383F311882146B4
:10358000403001F005FD84F3118810BD00000000FB
:103590000022124B0A604A60426910B41340402472
:1035A00042780C6143F440434FF0FF348C618B60F0
:1035B00042B1836910BC23F4C023CB6040F20113F5
:1035C0000B6070478269064B10BC134043F00153F7
:1035D000CB6040F201130B60704700BF1F3EFFFF3E
:1035E000FFFFB9DF00000000000000000000000045
:1035F00090F8203010B4002B34D0836AD3E9004116
:103600000A6822F00F020A60197A0E23426A03FA4E
:1036100001F161605468216821F00F012160117A85
:1036200012688B405360474B98423AD0464B9842C1
:103630004BD0464B98425CD0454B98426DD0454BA1
:10364000984251D1444BD3F89C2042F02002C3F859
:103650009C20D3F89C2022F02002C3F89C20D3F8B1
:103660009C3041E0846A2268136823F01F031360D2
:103670001368D907FCD4227B3D23416A93406468D8
:103680000A682360136823F01F0313601368DB07C5
:10369000FCD40C7B3D234A68A3401360294B98421D
:1036A000C4D12D4BC169D3F89820406842F48052B0
:1036B00010BCC3F89820D3F8982022F48052C3F8A5
:1036C0009820D3F89830FFF763BF234BD3F89020AE
:1036D00042F48042C3F89020D3F8902022F4804234
:1036E000C3F89020D3F89030C16910BC4068FFF750
:1036F0004FBF194BC169D3F89020406842F4004293
:1037000010BCC3F89020D3F8902022F40042C3F8F4
:103710009020D3F89030FFF73BBF0F4BC169D3F82F
:103720009820406842F4801210BCC3F89820D3F867
:10373000982022F48012C3F89820D3F89830FFF72D
:1037400027BF00BF04020024400200247C020024A2
:10375000B8020024F40200240044025800000000D3
:1037600043685B7810B5002B50D190F820300146AB
:10377000DBB1836AD3E90040026822F00F020260E5
:103780000E22187ACB69824062605A6912F4604F47
:10379000FBD1496AD1E90040026822F00F020260C1
:1037A0000E22097A8A40626024E0806A0268136807
:1037B00023F01F0313601368DB07FCD490F80CC0E0
:1037C0003D22406802FA0CF2CB6902605A6912F499
:1037D000604FFBD1486A01680A6822F01F020A6044
:1037E0000A68D407FCD490F80CC03D22416802FA64
:1037F0000CF20A601A6842F480621A601A68920534
:10380000FCD44FF0FF3200209A6110BDFFF7F0FEAC
:10381000002010BD000000000000000000000000BB
:1038200010B504460B4800F0DBFE2046FFF7E0FE33
:1038300063689B680BB120469847302383F3118857
:10384000002104F1080001F0A3FB002383F3118899
:1038500010BD00BF985E00080000000000000000DE
:103860000B0700D47047FFF7DBBF00BF000000006C
:1038700011F00C0F00D17047FFF7D2BF000000001D
:1038800011F00C0F70B50D4604462DD166683378E3
:1038900093B1EA0603D573686BB120469847AB062F
:1038A00009D563685B6833B10422204622709847CB
:1038B0002378042B2FD070BD2046FFF751FF73688B
:1038C00063B304222046227098472378042B25D026
:1038D000302383F31188002104F1080001F058FB24
:1038E000002383F3118870BD0E4800F079FE204656
:1038F000FFF77EFE63689B680BB120469847302334
:1039000083F31188002104F1080001F041FB00233A
:1039100083F31188BAE70323237070BD0223237059
:10392000D6E700BF985E000800000000000000001D
:1039300070B50D46090704462DD46668337893B1F7
:103940006A0703D573686BB120469847AB0709D562
:1039500063685B6833B1042220462270984723785D
:10396000042B2FD070BD2046FFF7FAFE736863B3B7
:1039700004222046227098472378042B25D0302338
:1039800083F31188002104F1080001F001FB0023FA
:1039900083F3118870BD0E4800F022FE2046FFF729
:1039A00027FE63689B680BB120469847302383F35A
:1039B0001188002104F1080001F0EAFA002383F3E2
:1039C0001188BAE70323237070BD02232370D6E762
:1039D000985E0008000000000000000000000000E9
:1039E00010B5154C154800F093FEE2695369116952
:1039F0000B4093615B0606D4104800F0A1FEBDE8C1
:103A0000104001F0FDBC2046FFF7F2FD63689B68A3
:103A10000BB120469847302383F3118800210848D2
:103A200001F0B6FA002383F31188044800F088FE01
:103A3000BDE8104001F0E4BC04020024D45E00089C
:103A40000C02002400000000000000000000000044
:103A500010B5154C154800F05BFEE2695369116919
:103A60000B4093615B0606D4104800F069FEBDE888
:103A7000104001F0C5BC2046FFF7BAFD63689B68A3
:103A80000BB120469847302383F311880021084862
:103A900001F07EFA002383F31188044800F050FE01
:103AA000BDE8104001F0ACBC40020024C85E000834
:103AB0004802002400000000000000000000000098
:103AC00010B5154C154800F023FEE26953691169E1
:103AD0000B4093615B0606D4104800F031FEBDE850
:103AE000104001F08DBC2046FFF782FD63689B68A3
:103AF0000BB120469847302383F3118800210848F2
:103B000001F046FA002383F31188044800F018FE00
:103B1000BDE8104001F074BC7C020024BC5E0008CB
:103B200084020024000000000000000000000000EB
:103B300010B5154C154800F0EBFDE26953691169A9
:103B40000B4093615B0606D4104800F0F9FDBDE818
:103B5000104001F055BC2046FFF74AFD63689B68A2
:103B60000BB120469847302383F311880021084881
:103B700001F00EFA002383F31188044800F0E0FD01
:103B8000BDE8104001F03CBCB8020024B05E000863
:103B9000C00200240000000000000000000000003F
:103BA00010B5154C154800F0B3FDE2695369116971
:103BB0000B4093615B0606D4104800F0C1FDBDE8E0
:103BC000104001F01DBC2046FFF712FD63689B68A2
:103BD0000BB120469847302383F311880021084811
:103BE00001F0D6F9002383F31188044800F0A8FD02
:103BF000BDE8104001F004BCF4020024A45E0008FB
:103C0000FC02002400000000000000000000000092
:103C10002DE9F0412D4D0024DFF8B48028462D4FCA
:103C2000FDF716FA2C4B85F820400A21EB61232082
:103C30006C622F63294EC5E90A48294DFDF7F8FC4F
:103C40002846FDF705FA274B85F820400A21EB614D
:103C500024206C622F63C5E90A48234DFDF7E8FC78
:103C60002846FDF7F5F9214B0A213320EB6185F851
:103C700020406C622F63C5E90A48FDF7D9FC304645
:103C8000FDF7E6F91A4D1B4B0A21552086F8204016
:103C9000F36174623763C6E90A48FDF7C9FC284638
:103CA000FDF7D6F90123144941F20A0285F82030C4
:103CB00041F21803E96156206C620A212B63C5E9C1
:103CC0000A42BDE8F041FDF7B3BC00BF0402002486
:103CD000160001004600010000300140B802002437
:103CE00040020024003800407C020024003C0040D8
:103CF000F4020024005001400014005800000000AD
:103D000010B503784FF0FF320446012B82631ED0BA
:103D1000406894F82020436903F01F030133002A10
:103D20003BD1082BE26A5DD8236B22F4F04223F4E6
:103D3000F0430178002950D042F4847243F4847334
:103D4000E169C4E90B23FFF723FC002010BDC74B3A
:103D5000984268D0C64B984200F0D980C54B984233
:103D600000F09B80C44B984200F00B81C34B9842FB
:103D700000F03F81E26994F8203002F13001606880
:103D80002032002B44D0636A5B6899604369A16A62
:103D900003F01F03496801338A60082BE26A10D8D8
:103DA000236B22F4706223F47063017821B142F036
:103DB000240243F02403C3E722F0240223F0240367
:103DC000BEE7102B236B22F4706223F470631AD8C1
:103DD00042F4A06243F4A063E7E722F4847223F480
:103DE0008473ADE7102B236B22F4F04223F4F043ED
:103DF00004D842F4205243F420539AE742F4A042FC
:103E000043F4A04395E742F4206243F42063CCE7F7
:103E1000636A1B689960A16A4369096803F01F031C
:103E20008A6001337DE70346954A0A211020FEF798
:103E300097FA6062002800F016812346914A0A2111
:103E40001020FEF78DFAA062002800F009812521DC
:103E5000606AFEF74DFB2621A06AFEF749FB8A4BFC
:103E6000D3F8F02042F48052C3F8F020D3F81821A0
:103E700042F48052C3F81821D3F81821D3F89820BF
:103E800042F48052C3F89820D3F8982022F480524C
:103E9000C3F89820D3F898306CE70346784A0A2193
:103EA0001020FEF75DFA6062002800F0DC802346F7
:103EB000744A0A211020FEF753FAA062002800F08D
:103EC000CF803D21606AFEF713FB3E21A06AFEF71A
:103ED0000FFB6D4BD3F8E82042F40042C3F8E82012
:103EE000D3F8102142F40042C3F81021D3F8102176
:103EF000D3F8902042F40042C3F89020D3F89020E9
:103F000022F40042C3F89020D3F8903032E7034601
:103F10005B4A0A211020FEF723FA6062002800F0B5
:103F2000A2802346574A0A211020FEF719FAA06200
:103F3000002800F095802721606AFEF7D9FA282131
:103F4000A06AFEF7D5FA504BD3F8E82042F480423D
:103F5000C3F8E820D3F8102142F48042C3F81021BE
:103F6000D3F81021D3F8902042F48042C3F8902077
:103F7000D3F8902022F48042C3F89020D3F89030F8
:103F8000F8E603463E4A0A211020FEF7E9F960628E
:103F9000002868D023463B4A0A211020FEF7E0F9AA
:103FA000A06200285CD05521606AFEF7A1FA562174
:103FB000A06AFEF79DFA344BD3F8F02042F4801249
:103FC000C3F8F020D3F8182142F48012C3F8182166
:103FD000D3F81821D3F8982042F48012C3F898201F
:103FE000D3F8982022F48012C3F89820D3F89830A0
:103FF000C0E60346254A0A210820FDF701FF60625A
:1040000088B32346224A0A210820FDF7F9FEA06260
:1040100000283FD00B21606AFDF772FF0C21A06AD7
:10402000FDF76EFF184BD3F8F42042F02002C3F8DE
:10403000F420D3F81C2142F02002C3F81C21D3F84D
:104040001C21D3F89C2042F02002C3F89C20D3F816
:104050009C2022F02002C3F89C20D3F89C3089E6F3
:10406000606AFEF70DFA6FF0100010BD0402002424
:10407000400200247C020024B8020024F402002440
:1040800081380008713800080044025831390008AE
:1040900061380008606AFDF70BFF6FF0100010BD7B
:1040A000C36910B49A68446802F01F0C64780CF17C
:1040B000010C1CB91A6842F400721A605A6992071E
:1040C000FCD5BCF1080F18D8C9B283F82010C2691A
:1040D0005169CC07FCD5416893F830304C78D8B2A0
:1040E00034B9136843F48063136013689B05FCD4F0
:1040F0004FF0FF3310BC93617047BCF1100F08D82C
:1041000089B219845A69D107FCD5188E1A4680B233
:10411000E6E719625A69D207FCD5186B1A46DFE741
:10412000124A4FF080430021D2F8E80040F001002D
:1041300030B4C2F8E80044F61F65D2F810010C4C08
:1041400040F00100C2F810010120D2F81021E26B0A
:104150000243E2634FF0FF329D62DA629961596374
:10416000D96059605861186030BC704700440258EB
:104170000010005C000000000000000000000000D3
:104180004FF0804208B51169D3680B40D9B29B0744
:104190006FEA0101116100D408BD302383F3118857
:1041A00000F02EFA002383F3118808BD0000000000
:1041B000024A136843F0C003136070470048004090
:1041C00010B50D4C82B02046FCF70AFF04F10C003C
:1041D0000023102209490094FCF7D2FA084B102260
:1041E000084904F130000094FCF762FB064A074BD3
:1041F000C4E9152302B010BD30030024900300244D
:10420000B1410008A00300240048004000E1F5058A
:104210002DE9F047456D0646D5F800A0EC69220768
:104220002C6253D1E20545D4A00610D54FF03008DA
:10423000002788F311886B6A304696F85C101940A5
:10424000FCF7DEFE87F31188EC69A306F1D41AF0BF
:10425000800F1ED021061CD506F1300830274FF004
:10426000000905E0A86289F31188EC69220610D5DF
:1042700087F311884046FCF75BFB0028F2DA08213F
:10428000301D00F0B5FF2AF080032B60002383F37C
:1042900011881AF0400F0BD0630609D5302383F341
:1042A0001188D6E911239A422BD0002383F3118879
:1042B000BDE8F087302383F311884FF48061301D0F
:1042C00000F096FF002383F31188ADE7C4F3C0012B
:1042D000E3074FF030034FEA012148BF41F02001CE
:1042E000A70748BF41F04001600748BF41F0800187
:1042F00083F31188301D00F07BFF002383F31188C6
:1043000090E7B36B002BD0D01021301D00F070FF70
:104310002AF040032B60C8E7000000000000000006
:10432000664A00236648D2F8881070B440F2FF74E1
:10433000644D45F250562143C2F88810D2F88810D7
:1043400008406149C2F88800D2F88800D2F8E0003D
:104350002043C2F8E000D2F8080120435B4CC2F8C9
:104360000801D2F808214FF68F724B608D604FF034
:104370005535CB604A61564A56480A62564A4A62E7
:10438000564A0A604FF6FF71554A6360A2604BF6C9
:104390007E72E3606261534A2262534A6262534A08
:1043A0002260534C43608460524CC360416104629C
:1043B000514C524A4462524C046000F50060514C2A
:1043C00053609460504CD3605161146204F1F8441E
:1043D00004F5081454624D4C14606FF4405443606B
:1043E00002F500628460A4F17E54C360A4F5CB148E
:1043F0004161A4F6331404624FF0CC344462444C5F
:104400000460444C53609460434CD3605161146227
:1044100004F1F844A4F67744546204F15E44A4F530
:104420009014A4F2AB5414603C4CC0F80438C0F8AB
:1044300008484FF6BF74C0F80C38C0F81448384C20
:10444000C0F82048374CC0F82448374CC0F8004822
:104450003648C2F80438C2F808084FF4A030344C8B
:10446000C2F80C084FF6E370C2F814084FF0804011
:10447000C2F8200842F20420C2F824082D48C2F8ED
:1044800000084FF6CF7263602B48A160E360626161
:1044900026622A4A2A4E6362266043608360C560B2
:1044A000416103624362036053609360D560516170
:1044B00013625362136070BCFDF7BAB9004402582E
:1044C00000F8FFFFFC00F3AB0000025800040258A4
:1044D000B00B00B0000802580AAA0A006BD5AEAAB9
:1044E000CACFA0FC226066000011B0CCBA7AAFAB94
:1044F000FFCCFF03BCCCBB30CCCC0C00000C025872
:10450000AABBAA023FF03FFACC0C0050EA9FEAAAED
:10451000AABAAAAAFFCFCFFFCCCCCC503F0FFFFF47
:10452000CC0CCC005C5055C5EA1A9AAA0540A100F3
:10453000002002585ABDAEFF00240258002802583D
:10454000A955FFFF0000000000000000000000006F
:104550000120704700000000000000000000000083
:104560000020704700000000000000000000000074
:10457000704700BF000000000000000000000000C5
:1045800030B587B0114D00230122684604242A70FB
:10459000C5E9013300F034FD684600F041FD68468E
:1045A00000F046FD013CF7D1009BAB6000F050FEEF
:1045B00000F096FE00F0B4FE0549064800F098FBB6
:1045C00002232B7084F3118807B030BD700D0024D6
:1045D000E45E0008B00300240000000000000000BA
:1045E00008B5044672B600F0C3F80349034B032232
:1045F000C1F884401A70FEE7B0030024700D002457
:1046000000F0A6B90000000000000000000000005B
:10461000034A516853685B1A9842FBD8704700BF41
:10462000001000E00000000000000000000000009A
:10463000024A536B03435363704700BFB003002427
:1046400038B50C4CD4F88C50FCF712F8D4F88C30F8
:1046500004F50961084A686050681A6860F31F220F
:1046600043F8102B04F190028B4228BF1346C4F884
:104670008C3038BDB0030024001000E000000000C2
:1046800002460749002342F8081B426000EB031270
:104690000133117A802B6FF302011172F6D170474A
:1046A000FFFF80000000000000000000000000008C
:1046B000094BB3F88820D20700D5704790F8242022
:1046C00010B4D3F88C40D30043F00103C4E90201D5
:1046D000237010BCFFF7B4BFB0030024000000003B
:1046E0000A4BB3F88820920700D5704710B491F8B0
:1046F0002420D3F88C40D300896A43F00203C4E934
:104700000201237010BCFFF79BBF00BFB003002461
:104710000A4AB2F8883010B513F0040400D010BD76
:10472000302383F311880321D2F88C3019709860FC
:10473000FFF786FF84F3118810BD00BFB00300248B
:104740000A4AB2F8883010B513F0040400D010BD46
:10475000302383F311880421D2F88C3019709860CB
:10476000FFF76EFF84F3118810BD00BFB003002473
:10477000064BB3F88820120700D57047D3F88C3069
:10478000052298601A70FFF75BBF00BFB0030024DA
:10479000F8B51446144D03460E4605F11002022CDE
:1047A000E9614FF00207846038BF022442602A6941
:1047B0000260506008192B61FBF762FFFBF758FF9E
:1047C000821B0346A24207D2022F00D8F8BD012067
:1047D000BDE8F840FFF72CBF7C1C301927461E4669
:1047E000FBF75EFFEAE700BFB00300240000000013
:1047F0002DE9F843DFF89C9007460E46FBF738FF9B
:104800004B46804653F8105F9D4237D0D9F81C4084
:10481000AB68041B341928BF3446A34215D89C4208
:1048200004D92D68E41AAB68A342FAD36B684FF041
:10483000FF32BC60C7E900531F60AB686F601B1B91
:10484000AB60C9F81820BDE8F883022E4FF00205CE
:1048500038BF022608EB0600FBF722FFFBF708FF34
:10486000A0EB0808464510D9022D03D8D9F81050FE
:10487000AB68D4E70120FFF7DBFEF7E732460146DD
:104880003846BDE8F843FFF783BF013580462E4622
:10489000E0E700BFB00300240000000000000000BB
:1048A00003610023C2604361FFF7A2BF0000000064
:1048B00070B5234C236998420DD00368D0E90121DB
:1048C00013605A609A680A4400219A604FF0FF33DF
:1048D0000160A36170BD02682346002143F8102FD8
:1048E0005360016022699A4221D0936881680B4429
:1048F0009360FBF7BDFEE56923690446421B9B6894
:104900009342E7D91D4402262D1AB54238BF3546D9
:104910006019FBF7C5FEFBF7ABFE041BA5420AD9E5
:10492000022ED7D90120BDE87040FFF781BEBDE857
:104930007040FBF7ADBE013604463546E8E700BFE0
:10494000B003002400000000000000000000000090
:104950002DE9F84F3C4E00274FF0300906F11008C2
:1049600009E087F31188D4E903312046984789F399
:1049700011886369ABB93469FBF77AFEF3690546C0
:10498000A268C11A8A422CD89D18D4E90010F5619A
:1049900001604860276033694345E2D1FBF778FE48
:1049A000DFE7FBF765FE6369A0EB050B82465B451D
:1049B0002FD3316941453DD08A68934204D90968B3
:1049C0009B1A8A689A42FAD34A68A360C4E9001223
:1049D00014608A684C60D21A4FF0FF338A60B3616A
:1049E000C9E73169414512D013440227F0611B1A0F
:1049F000BB421E46A36038BF3E46A819FBF750FED7
:104A0000FBF736FE451BAE4210D9022F09D8BDE890
:104A1000F88F0220FFF70CFE3169414512D05B464A
:104A2000CAE70120BDE8F84FFFF702BE013705468F
:104A30003E46E2E72B441A1A51462046BDE8F84F9D
:104A4000FFF7A6BE0022F7E7B00300240000000035
:104A500010B530230C4683F3118891F824300C2BC9
:104A600010D8DFE803F02B0F0F270B070F0B0F0FEA
:104A70000F0F0B008A6A936801339360D4E9003208
:104A800013605A604FF0FF312046A162FFF710FE1D
:104A90000022A369A16884F824201B689A688A42CE
:104AA000FBD25A6800212360626014605C6081F36D
:104AB000118810BD8B6A00221A60E3E7002383F39C
:104AC000118810BD00000000000000000000000080
:104AD00010B50446816AFFF7EBFD0022A369A168C7
:104AE00084F824201B689A688A42FBD25A682046C0
:104AF0002360626014605C6010BD00BF00000000B5
:104B000038B50B4B01211C68DD6885F82400204670
:104B1000226853601A6084F824102946DC60FFF78D
:104B2000DFFD29462046BDE83840FBF749BC00BF01
:104B3000B00300240000000000000000000000009E
:104B4000F0B54B1C1C4C87B00546E6681FD03346B9
:104B50001A4A6846FFF7A4FEE768012287F8245046
:104B6000394625682B6828465C6085F82420236038
:104B7000E560FFF7B5FD39462846FBF721FC009BB1
:104B800013B16846FFF794FEB06A07B0F0BD27681E
:104B9000012286F8240031463B6838465C6087F87D
:104BA00024202360E760FFF79BFD38463146FBF782
:104BB00007FCB06A07B0F0BDB0030024514A0008FA
:104BC00070B51C4E05468268F4688162A3689A42FB
:104BD0001FD9A16A2046FFF76BFD0022A369A168D7
:104BE00084F824201B689A688A42FBD85A682146B8
:104BF0002846C4E90032146001225C6085F8242054
:104C0000F560FFF76DFD21462846BDE87040FBF7D3
:104C1000D7BBFFF74DFD0022AB69A96885F82420BA
:104C20001B689A688A42FBD25A68C5E9003215604F
:104C30005D6070BDB00300240000000000000000B3
:104C4000044B1A68DB6890689B68984294BF002008
:104C500001207047B00300240000000000000000A5
:104C600038B5134B01211D68DC682A682046536063
:104C70001A6085F82410A16ADD60FFF719FD002293
:104C8000A369A16884F824201B689A688A42FBD82B
:104C90005A68214623602846626014605C60FFF712
:104CA0001FFD21462846BDE83840FBF789BB00BF01
:104CB000B00300240000000000000000000000001D
:104CC000044B1A68DB6892689B689A4201D9FFF727
:104CD000C7BF7047B00300240000000000000000C0
:104CE000FEE700BF00000000000000000000000020
:104CF00070B5214B0025044686B081630E460563DE
:104D0000586000F04DFB04F1100304F12802A56087
:104D10006563C4E904334FF0FF33C4E90A22C4E9F0
:104D20000635C4E90044FBF7A3FC2B46024604F118
:104D30008800C4E90823C4F88450FFF7A1FC04F1FB
:104D40003C0180230D4A204600F022F80122034650
:104D5000716803926846E36083F82420084A196268
:104D60000092084B05950493D6E90312CDE9011290
:104D700000F076F806B070BD700D0024085F0008E2
:104D8000F85E0008E14C0008000000000000000090
:104D900010B400248B60CA6101F110028C63886139
:104DA000C1E90F43022401238C8400F1280481F817
:104DB0002630C36AC1E904431A6001F12C0401F1F1
:104DC0003003C26208464B63C1E90B4310BC704715
:104DD00070B5D0E90234456800211D4A4FF0020E3B
:104DE00043F8285C4FF0010C05691A4E43F86C5CDF
:104DF000456943F84C6C43F8685C0568A3F13800DA
:104E000003F8231C03F824EC03F822CC43F8404CAD
:104E100043F8084CD46A43F82C5CA3F16C0543F8C2
:104E2000344C43F83C5C02F1280543F8302C43F83D
:104E3000385C43E904112060A3F11801A3F11C04BC
:104E4000D062A3F1480043F8141C43E9074170BD48
:104E5000B0030024D103000800000000000000009F
:104E600008B5FFF7B5FFBDE80840FFF731BE00BF4A
:104E700038B5302484F3118848390025441818497E
:104E8000A2602264A4F1240244F8041CE26001221E
:104E9000049984F8262044F8243C44F8201C02217C
:104EA000104B114AA18404F11001206203F1280083
:104EB000E261DA6A206104F12C006261A361E563BA
:104EC000A563116004F13002D9622946E0622046F0
:104ED000C4E90C22FFF774FE85F31188204638BD23
:104EE000D1030008B0030024005F000800000000A8
:104EF00038B5302383F31188124BDC6804F12C059C
:104F0000E36AA0629D4207D194F8263083B10F2056
:104F1000BDE83840FFF7F4BD1A681846E262FFF7B3
:104F2000D7FDE36AAB42F7D194F82630002BEED1DF
:104F300094F825309B07EAD1D4E9043213605A6013
:104F4000E5E700BFB00300240000000000000000FF
:104F500008B50146302383F311880820FFF7F0FDE0
:104F6000002383F3118808BD00000000000000004A
:104F7000054A0346D26821B1026003209362FFF71D
:104F8000DFBD4FF0FF307047B00300240000000089
:104F90000346006820B100221A608162FFF798BDC5
:104FA000704700BF0000000000000000000000008B
:104FB000084AD26851B1034610B444681060042016
:104FC0005460226010BC5A60FFF7BABD4FF0FF304A
:104FD000704700BFB0030024000000000000000084
:104FE00003460068834205D002681A6053608162FC
:104FF000FFF76EBD704700BF00000000000000001A
:1050000030B40023002400254FF0FF32C0E90445EE
:10501000C0E9002330BCC0E9023370470000000043
:10502000014B5B6883607047001000E000000000E7
:105030000E4A0F4B81685B6810B4946802691B1BB1
:10504000C4685B1A41690134D218026141F1000160
:10505000426841619342026888BF43609342C0E95D
:10506000023438BF036010BC704700BF700D0024CD
:10507000001000E000000000000000000000000040
:105080000023C0E900008360704700BF00000000FB
:1050900070B52F4B04468068DD6830B3AA6883681A
:1050A000934207D290F824308260062B36D0072B2B
:1050B00020D09BB1234603E09968AA68914202D3AD
:1050C0001B689C42F8D15A6806202B606A60156004
:1050D0005D60AC62BDE87040FFF712BDD0E9003200
:1050E00013605A60FFF7F4FCE4E7EB6BC4E902538A
:1050F000EC6370BD866AD0E9003213605A603346B3
:1051000003E099688268914202D31B689E42F8D1FD
:105110005A68C0E9003210605860CBE7866AD0E96F
:10512000003213605A60334603E099688268914206
:1051300002D31B689E42F8D15A6803604260106037
:105140005860B068AA6883689342ABD3B2E700BFE7
:10515000B003002400000000000000000000000078
:1051600008B5302383F31188FFF792FF002383F300
:10517000118808BD000000000000000000000000D1
:10518000174A302310B5D46883F311880268C368C6
:105190008242E3631DD00146206C4BB11A689342F2
:1051A00003D09268904238BF1046DB68002BF5D1DF
:1051B000A0600868C26B03680B605960C1E9020215
:1051C000C163FFF785FCFFF77BFD002383F31188A4
:1051D00010BD00239360002383F3118810BD00BF2E
:1051E000B0030024000000000000000000000000E8
:1051F000F8B50468A04221D007460D46002604E019
:105200000B2A1CD02468A74218D0E3682B43E36024
:1052100015B123691D42F5D0D4E90103816B90F8E3
:1052200024200B430A2A8363EAD1826A1342E9D01D
:105230008662FFF74DFC2468A742E6D1F8BD826A7A
:105240009A43DFD1F4E700BF000000000000000037
:10525000024B0349034AC3E9001270477C0D002446
:10526000F8140024000008240000000000000000E2
:10527000084B494210B45C68201A08401968821A29
:105280008A4204D3A24202D810BC5A607047002060
:1052900010BC70477C0D00240000000000000000DE
:1052A000302310B483F311880B4B49425C68201AF9
:1052B00008401968821A8A4207D3944205D35A607B
:1052C000002383F3118810BC70470020002383F370
:1052D000118810BC704700BF7C0D00240000000046
:1052E000044B0022044903F10C009A60C3E9001248
:1052F000FFF7C6BE840D0024A15200080000000084
:1053000010B40024C0E90223C0E9004110BC70477A
:105310000022FFF7ADBF00BF00000000000000004A
:1053200038B5124C124D2046FFF7AAFE04F11001C9
:105330002B460422216114216018FFF7E1FF04F1DC
:10534000240004F128012B460422C4E909011C2190
:1053500004F12C00FFF7D4FF04F13C0104F14002FA
:1053600004F14403C4E90F12636438BDA00D0024A6
:1053700011530008000000000000000000000000C1
:10538000EFF30983203383F30988002383F3118823
:10539000704700BF00000000000000000000000097
:1053A0004FF0300C00B58CF3118862B60E4B4FF6FF
:1053B000FF0E0E49D8680E4A00EA0E0001430D4860
:1053C000D960D3F8FC1041F08071C3F8FC10C2F82A
:1053D000B00F2020116841F001011160D87783F8E7
:1053E00022C05DF804FB00BF00ED00E00003FA05F9
:1053F000001000E055CEACC5000000000000000029
:10540000302383F311880D4B5B6813F4006302D1E2
:1054100083F31188704710B5EFF309844FF0807360
:10542000203CE36184F30988FFF70AFC10B1044BC8
:10543000A36110BD034BA36110BD00BF00ED00E0F0
:10544000E3030008E603000800000000000000007D
:1054500008B5FBF7EDF8FFF793F800F021F800F03E
:1054600067F900210A4A084600F052FA094A102159
:10547000002000F04DFA084A2021002000F048FAF0
:1054800000F05EF942F21070FFF762FDFAE700BF2C
:10549000345F0008405F0008485F0008000000001B
:1054A00008B500F07DFABDE8084000F051BA00BF31
:1054B0002DE9F843934D00F073FA40F29A228021CF
:1054C0002846914CFDF724F8284640F29A224FF4E2
:1054D0008071FDF71DF8284640F29A224FF40071C2
:1054E000FDF716F84021012220460D462027DFF85F
:1054F0001C82FDF70DF80122202120464FF01009F3
:10550000FDF706F8012210212046FDF701F8804939
:105510002583404627837F4EFBF7AAFD4FF4FA70A0
:10552000A4F81A90FFF714FD4FF4FA70A4F818903D
:10553000FFF70EFD3046FFF713FEAE2167834046AE
:105540006583FEF7ADFD30462583FFF719FE304633
:10555000FFF706FED521678340466583FEF7A0FD71
:1055600030462583FFF70CFE3046FFF7F9FD80211A
:10557000678340466583FEF793FD30462583FFF73A
:10558000FFFD3046FFF7ECFDA821678340466583A9
:10559000FEF786FD30462583FFF7F2FD3046FFF724
:1055A000DFFD3F21678340466583FEF779FD304686
:1055B0002583FFF7E5FD3046FFF7D2FDD321678352
:1055C00040466583FEF76CFD30462583FFF7D8FD26
:1055D0003046FFF7C5FD0021678340466583FEF72F
:1055E0005FFD30462583FFF7CBFD3046FFF7B8FD62
:1055F0002946678340466583FEF752FD3046258382
:10560000FFF7BEFD3046FFF7ABFD8D2167834046B7
:105610006583FEF745FD30462583FFF7B1FD304633
:10562000FFF79EFD1421678340466583FEF738FD32
:1056300030462583FFF7A4FD3046FFF791FD39463C
:10564000678340466583FEF72BFD30462583FFF7D1
:1056500097FD3046FFF784FD002167834046658350
:10566000FEF71EFD30462583FFF78AFD3046FFF723
:1056700077FDA121678340466583FEF711FD304623
:105680002583FFF77DFD3046FFF76AFDC82167835C
:1056900040466583FEF704FD30462583FFF770FD25
:1056A0003046FFF75DFDDA21678340466583FEF7EC
:1056B000F7FC30462583FFF763FD3046FFF750FDCA
:1056C0001221678340466583FEF7EAFC3046258356
:1056D000FFF756FD3046FFF743FDAF216783404695
:1056E0006583FEF7DDFC30462583FFF749FD4FF467
:1056F00080620021084800F07BF9084B084A1A60D4
:10570000BDE8F8830014025800200258B8020024B3
:10571000585F0008E4140024E80D0024E811002478
:105720008C5F000800000000000000000000000086
:105730004FF480620021014800F05AB9E80D0024BE
:105740002DE9F04FB02383B0284FDFF8A490294C07
:10575000294E019340254FF0200A4846A7F1800BBF
:10576000FFF7FEFC01993046A4F81AA06583A8460D
:10577000FEF796FC48462583FFF702FD4846FFF7F3
:10578000EFFC0021A4F81AA030466583FEF788FCE0
:1057900048462583FFF7F4FC4846FFF7E1FC10215B
:1057A000A4F81AA030466583FEF77AFC48462583A4
:1057B000FFF7E6FC4846FFF7D3FCA4F818A0A4F8CE
:1057C0001A8030461BF8011FFEF76AFC2583BB4593
:1057D000F5D1019D48460BF1800701350195FFF792
:1057E000CFFCB82DB6D103B0BDE8F08F670E002412
:1057F000E414002400200258B80200240000000035
:1058000010B50A4C0A49E36893F82520D96152077C
:105810000AD4FFF795FF4FF4A570FFF799FBE368F3
:1058200093F825305B07F4D510BD00BFB00300240A
:10583000505F0008000000000000000000000000B1
:105840002DE9F04F2E4F83B0D7F800B00190BBF197
:10585000000F4FD09BF806300D46914693424CD82E
:105860009BF80730934238BF4FF03F099BF8043054
:10587000002B3FD00024AA46224E4FF001082146BB
:105880002546DBF80C30484600919847D7F800B021
:1058900000999BF805403CB3019B00221944134634
:1058A00002E0D3B29C421FD920FA03FC01321CF063
:1058B000010FF6D053447F294FEAE30C03F0070EA3
:1058C000EFD801EBCC1C3F2B08FA0EFE1FFA8CFC24
:1058D000E7DC16F80C304EEA030ED3B206F80CE003
:1058E0009BF805409C42DFD801359BF80430E9B2B3
:1058F0008B42C6D803B0BDE8F08F4FF03F09B5E743
:10590000E8110024E80D0024000000000000000061
:10591000F8B50D4B1B68AAB1A3B11E7915461B7AC9
:1059200012781E44F6B26AB104460F4608E02046DB
:1059300039463444FFF784FF15F8012FE4B20AB169
:105940002306F4D5F8BD00BFE811002400000000D4
:1059500030B50D4D83B02C680CB103B030BDFFF7EE
:10596000A7FD21464FF48062084800F041F8FFF798
:10597000E7FE074B80224FF43C7100940548FFF787
:1059800077FA286003B030BDEC110024E80D002444
:1059900001580008F0110024000000000000000081
:1059A000302310B583F31188074C23781BB10023F3
:1059B00083F3118810BD0548FFF762FB01232370B4
:1059C000002383F3118810BDE0140024E4140024A4
:1059D0002038C3B25E2B07D8042905D800EB80001D
:1059E000024B0344585C7047002070479C5F0008DE
:1059F000830730B548D0541E002A3FD0CAB20346B0
:105A000001E0013C3AD303F8012B9D07F9D1032CA7
:105A10002DD9CDB245EA05250F2C45EA054536D9E5
:105A2000A4F1100222F00F0C03F1200EE6444FEA1D
:105A3000121C03F1100242E9045542E902551032EA
:105A40007245F8D10CF1010214F00C0F03EB0212B5
:105A500004F00F0C13D0ACF1040323F00303043360
:105A6000134442F8045B9342FBD10CF003042CB1C5
:105A7000C9B21C4403F8011B9C42FBD130BD6446F3
:105A80001346002CF4D1F9E703461446BFE71A4643
:045A9000A446E0E761
:105A940078610008F4140024F4140024F41400249D
:105AA4007861000800000030000000300000003081
:105AB4007861000800000030000000300000003071
:105AC4007861000804020430040204300402043043
