:020000040800F2
:1000000000040020B9030008BB030008BB0300087C
:10001000BB030008BB030008BB030008BB030008C8
:10002000BB030008BB030008BB030008111700084E
:10003000BB030008BB030008BB030008BB030008A8
:10004000BB030008BB030008BB030008BB03000898
:10005000BB030008BB030008BB030008BB03000888
:10006000BB030008BB030008BB030008E10800084D
:100070002109000861090008A1090008E109000838
:10008000210A0008610A0008BB030008BB0300083E
:10009000BB030008BB030008BB030008BB03000848
:1000A000BB030008BB030008BB030008BB03000838
:1000B000C1060008BB030008BB030008BB0300081F
:1000C000BB030008BB030008BB030008BB03000818
:1000D000BB030008BB030008BB030008910600082F
:1000E000BB030008BB030008BB030008BB030008F8
:1000F000BB030008BB030008BB030008A10A0008FB
:10010000BB03000861060008BB030008BB0300082E
:10011000BB030008BB030008BB030008BB030008C7
:10012000E10A0008210B0008610B0008A10B000880
:10013000E10B0008BB030008BB030008BB03000879
:10014000BB030008BB030008BB030008BB03000897
:10015000210C0008610C0008A10C0008BB0300087A
:10016000E10C0008C10E0008BB030008BB03000837
:10017000BB030008BB030008BB030008BB03000867
:10018000BB030008BB030008BB030008BB03000857
:10019000BB030008BB030008BB030008BB03000847
:1001A000BB030008BB030008BB030008BB03000837
:1001B000BB030008BB030008BB030008BB03000827
:1001C000BB030008BB030008BB030008BB03000817
:1001D000BB030008BB030008BB030008BB03000807
:1001E000BB030008BB030008BB030008BB030008F7
:1001F000BB030008BB030008BB030008BB030008E7
:10020000BB030008BB030008BB030008BB030008D6
:10021000BB030008BB030008BB030008BB030008C6
:10022000BB030008BB030008BB030008BB030008B6
:10023000BB030008BB030008BB030008BB030008A6
:10024000BB030008BB030008BB030008BB03000896
:10025000BB030008BB030008BB030008BB03000886
:10026000BB030008BB030008BB030008BB03000876
:10027000BB030008BB030008BB030008BB03000866
:10028000BB030008BB030008BB030008BB03000856
:10029000BB030008BB030008BB030008BB03000846
:1002A000BB030008BB030008BB030008BB03000836
:1002B000BB030008BB030008BB030008BB03000826
:1002C000BB030008BB030008BB030008BB03000816
:1002D000BB030008BB030008BB030008BB03000806
:1002E00072B6264880F30888254880F30988254897
:1002F00025490860022080F31488BFF36F8F00F057
:1003000077F800F0EDFE4FF0553020491B4A91423E
:100310003CBF41F8040BFAE71D49194A91423CBF22
:1003200041F8040BFAE71B491B4A1C4B9A423EBF9B
:1003300051F8040B42F8040BF8E700201849194A59
:1003400091423CBF41F8040BFAE700F0A1F800F03D
:100350008FF8154C154DAC4203DA54F8041B88474E
:10036000F9E701F00DFA124C124DAC4203DA54F8E1
:10037000041B8847F9E700F083B800000004002060
:10038000000800200000000808ED00E00000002048
:1003900000040020A419000800000024000000242C
:1003A00000000024600A0024E0020008E0020008C7
:1003B000E0020008E002000892E700F000F8FEE723
:1003C0002DE9F04FC1F80CD0D0F80CD0BDE8F08F7B
:1003D000002383F311882846A047002001F020F96C
:1003E000FEE701F0F5F800DFFEE700000000000086
:1003F00010B5BFF34F8FBFF36F8F1C480022C0F8BA
:100400005022BFF34F8FBFF36F8F436943F4003324
:100410004361BFF34F8FBFF36F8FC0F88420BFF3EA
:100420004F8FD0F8803043F6E074C3F34E3CC3F3F3
:10043000C90E4FEA4C1C0CEA0401734641EA837270
:10044000013BC0F860225A1CF8D1ACF1200C1CF121
:10045000200FF0D1BFF34F8F436943F480334361E2
:10046000BFF34F8FBFF36F8F10BD00BF00ED00E0F3
:10047000704700BF00000000000000000000000006
:10048000FEE700BF000000000000000000000000C8
:10049000F8B52B4D2B4F2C4905F170042B482C4AF5
:1004A00088420DD2043A034652F8046F43F8046BB5
:1004B0008B42F9D34B1E1B1A23F003030433184459
:1004C000B84207D2013F00213F1A27F0030204324D
:1004D00001F058F9A54205D0D5E90420D5E9061761
:1004E0001035DDE71B480023C0F88430BFF34F8F81
:1004F000D0F8805043F6E076C5F34E34C5F3C90515
:10050000640104EA06012B4641EA8372013BC0F80C
:100510006C225A1CF8D1203C14F1200FF1D1BFF30A
:100520004F8FBFF36F8FBFF34F8FBFF36F8F0023DA
:10053000C0F85032BFF34F8FBFF36F8FF8BD00BFCD
:1005400028180008600A0024600A0024600A0024B9
:10055000A419000800ED00E0000000000000000009
:100560004FF08043586A7047000000000000000010
:100570004FF080430021022258631961DA6070470E
:100580004FF080430022DA60704700BF0000000097
:100590004FF08043586370470000000000000000E7
:1005A000D0E90532934211D0826810B501325C1C4B
:1005B000826044611970D0E904329A4201D3C36861
:1005C0004361002101F064F8002010BD8268002A18
:1005D000EAD04FF0FF30704700000000000000003C
:1005E000D0E905239A4210D08268591C013210B517
:1005F000816182601C780369994201D3C368836179
:10060000002101F045F8204610BD8268002AEBD099
:100610004FF0FF30704700BF0000000000000000F6
:1006200038B5436904460D463BB1294604F10C0038
:10063000FFF7B6FF00280BDB38BD0421084401F0AA
:1006400037F8294604F10C00FFF7AAFF0028F3DA77
:10065000201D4FF40061BDE8384001F029B800BF0B
:1006600010B5074C204600F093FE064800F088FCC9
:10067000204600F0A5FEBDE8104001F059B800BFCB
:10068000C0180008C00000240000000000000000A6
:1006900010B5074C204600F07BFE064800F098FCA1
:1006A000204600F08DFEBDE8104001F041B800BFCB
:1006B000B418000810010024000000000000000031
:1006C00010B5064C204600F063FE00F069FC2046A1
:1006D00000F076FEBDE8104001F02AB8A818000826
:1006E0006F4B02206F4AD3F8F410014310B4C3F8E3
:1006F000F410D3F81C110143C3F81C11D3F81C31BA
:10070000D06053689C04FCD5674800230121674CE6
:1007100010604FF440409160D4606549136190616E
:10072000604ACB6293699804FCD513685C4943F432
:10073000807313600B6F03F44073B3F5807F04D0B4
:100740004FF4803200230A670B67554A136F43F05A
:1007500019031367136F9907FCD51368504943F0C9
:10076000010313600B685B07FCD500234C4A0B6147
:10077000136913F03803FBD101204FF080414FF093
:100780000054106051604B484B49D4605367D062AD
:1007900011611368424843F4A023136003689C036B
:1007A000FCD503683E4943F4805303600B6898040A
:1007B000FCD50B683A4A43F080030B601368D905F7
:1007C000FCD5516F364B41F0010151675A6F9207CA
:1007D000FCD5002239483A4998623A4C5A633A4863
:1007E00019633A49DA639C635A641864D9621968D8
:1007F0002B4A41F0A8511960136803F02853B3F154
:10080000285FF9D148244FF4886140200023946187
:100810004FF48014D1614FF0005110623220D16446
:100820002B4913655465936508600B6803F00F034B
:10083000022BFAD11A4A136943F0030313611369B7
:1008400003F03803182BFAD1D2F8DC3010BC43F097
:100850000053C2F8DC30D2F8043143F00053C2F840
:100860000431D2F80431D2F8DC3043F08043C2F8CE
:10087000DC30D2F8043143F08043C2F80431D2F8BE
:100880000431D2F8DC3043F00043C2F8DC30D2F857
:10089000043143F00043C2F80431D2F80431704708
:1008A000004402580048025800C000F00200000155
:1008B000000400580000FF0100881008424040007A
:1008C0008F030F078F4F07078F0F07075505FF018E
:1008D00000200052000000000000000000000000A6
:1008E0000A4808B500F054FD094B0A4819684268E7
:1008F00001F03D0199600AB180689047034800F01B
:100900005FFDBDE8084000F013BF00BF20190008DC
:100910000000024000000024000000000000000071
:100920000B4810B500F034FD0A4B0B481968C2683B
:10093000890901F03D018C019C600AB10069904772
:10094000034800F03DFDBDE8104000F0F1BE00BFDF
:1009500014190008000002400000002400000000FC
:100960000B4810B500F014FD0A4B0B48196842699A
:10097000090C01F03D010C049C600AB180699047AC
:10098000034800F01DFDBDE8104000F0D1BE00BFDF
:1009900008190008000002400000002400000000C8
:1009A0000B4810B500F0F4FC0A4B0B481968C269FB
:1009B000890D01F03D018C059C600AB1006A9047E9
:1009C000034800F0FDFCBDE8104000F0B1BE00BFE0
:1009D000FC18000800000240000000240000000095
:1009E0000A4808B500F0D4FC094B0A485968426A25
:1009F00001F03D01D9600AB1806A9047034800F0D8
:100A0000DFFCBDE8084000F093BE00BFF01800080E
:100A10000000024000000024000000000000000070
:100A20000B4810B500F0B4FC0A4B0B485968C26A79
:100A3000890901F03D018C01DC600AB1006B90472F
:100A4000034800F0BDFCBDE8104000F071BE00BFDF
:100A5000E41800080000024000000024000000002C
:100A60000B4810B500F094FC0A4B0B485968426BD8
:100A7000090C01F03D010C04DC600AB1806B904769
:100A8000034800F09DFCBDE8104000F051BE00BFDF
:100A9000801900080000024000000024000000004F
:100AA0000B4810B500F074FC0A4B0B485968C26B38
:100AB000890D01F03D018C05DC600AB1006C9047A6
:100AC000034800F07DFCBDE8104000F031BE00BFDF
:100AD000741900080000024000000024000000001B
:100AE0000A4808B500F054FC094B0A481968426CE2
:100AF00001F03D0199600AB1806C9047034800F015
:100B00005FFCBDE8084000F013BE00BF6819000894
:100B1000000402400000002400000000000000006B
:100B20000B4810B500F034FC0A4B0B481968C26C36
:100B3000890901F03D018C019C600AB1006D90476C
:100B4000034800F03DFCBDE8104000F0F1BD00BFDF
:100B50005C190008000402400000002400000000AE
:100B60000B4810B500F014FC0A4B0B481968426D95
:100B7000090C01F03D010C049C600AB1806D9047A6
:100B8000034800F01DFCBDE8104000F0D1BD00BFDF
:100B9000501900080004024000000024000000007A
:100BA0000B4810B500F0F4FB0A4B0B481968C26DF6
:100BB000890D01F03D018C059C600AB1006E9047E3
:100BC000034800F0FDFBBDE8104000F0B1BD00BFE0
:100BD0004419000800040240000000240000000046
:100BE0000A4808B500F0D4FB094B0A485968426E20
:100BF00001F03D01D9600AB1806E9047034800F0D2
:100C0000DFFBBDE8084000F093BD00BF38190008C5
:100C1000000402400000002400000000000000006A
:100C20000B4810B500F0B4FB0A4B0B485968C26E74
:100C3000890901F03D018C01DC600AB1006F904729
:100C4000034800F0BDFBBDE8104000F071BD00BFDF
:100C50002C190008000402400000002400000000DD
:100C60000B4810B500F094FB0A4B0B485968426FD3
:100C7000090C01F03D010C04DC600AB1806F904763
:100C8000034800F09DFBBDE8104000F051BD00BFDF
:100C9000D8180008000402400000002400000000F2
:100CA0000B4810B500F074FB0A4B0B485968C26F33
:100CB000890D01F03D018C05DC6012B1D0F8800097
:100CC0009047034800F07CFBBDE8104000F030BDC9
:100CD000CC180008000402400000002400000000BE
:100CE00070B5704D7048AB6B9C6900F051FBAA6BFE
:100CF00004F0FE0314F01001D3614AD120062CD475
:100D0000610623D52B78032B00F08D80286B0168BA
:100D10000B6823F01F030B600B68DB07FCD4047B1C
:100D20003D234168A3400B605368302143F4804366
:100D30005360136823F04003136081F3118800218E
:100D40005A4800F095FC002383F31188564800F0C0
:100D500037FBBDE8704000F0EBBC2B78032B52D082
:100D60002B6B1B685B68FF2B00F28C801B04686890
:100D70005468806803434E48204003434A480B436D
:100D800043F48063536000F01BFBBDE8704000F04B
:100D9000CFBC286B01680B6823F01F030B600B6846
:100DA000DC07FCD4047B3D234168A340686B0B60E7
:100DB00001680B6823F01F030B600C6814F001043A
:100DC000FBD141683D23007B83400B605368A968D9
:100DD00043F4804341F00401A9603021536013685B
:100DE00023F04603136081F311886FF001012F484F
:100DF00000F03EFC84F311882B4800F0E1FABDE8D6
:100E0000704000F095BC6B6B1B685868FF283ED89B
:100E100000046B6856689C68254B334023430343AA
:100E20000B43536092E7686B01680B6823F01F0364
:100E30000B600B6813F00103FBD144683D21007B7C
:100E400081402160296B0968486800283FF46CAF35
:100E50004868FF2820D800046C685668A4682043BE
:100E6000134C344020430343042043F48063536015
:100E70000B6843F001030B605368287043F4005380
:100E8000536063E74FF47F034FF080716FE74FF4D7
:100E90007F004FF08071BCE74FF47F004FF080730C
:100EA000DAE700BF8400002498190008A00000249D
:100EB000FFFF00FE00000000000000000000000036
:100EC00038B52C4C2C48A36B9D6900F061FA216B5E
:100ED000A36B05F47C52DA610A68136823F01F03E0
:100EE00013601368DB07FCD4087B3D234A6883400A
:100EF000616B13600A68136823F01F0313601368A3
:100F0000D807FCD4087B3D234A68E90503FA00F3BF
:100F10001360A36844BF43F00103A360AA0502D590
:100F200043F00203A360680519D543F00803E90400
:100F3000A36002D543F02003A360302383F311881C
:100F40006FF001010D4800F093FB002383F311883B
:100F5000094800F035FABDE8384000F0E9BBEA0482
:100F6000E8D4002BE9D1044800F02AFABDE8384063
:100F700000F0DEBB840000248C190008A0000024CF
:100F8000302310B583F311880024436C4030214690
:100F9000DC6300F06DFB84F3118810BD00000000DD
:100FA0004FF0804208B51169D3680B40D9B29B0756
:100FB0006FEA0101116100D408BD302383F3118869
:100FC00000F086F9002383F3118808BD00000000BB
:100FD0002DE9F047456D0646EC6922072C6256D193
:100FE000E20548D4A00610D54FF03008002788F35A
:100FF00011886B6A304696F85C101940FFF710FBB9
:1010000087F31188EC69A306F1D4D5F800A01AF093
:10101000800F1DD021061BD506F1300830274FF078
:10102000000905E0A86289F31188EC6922060FD552
:1010300087F311884046FFF7D3FA0028F2DA082137
:10104000301D00F035FB2AF0800A002383F311885D
:101050001AF0400F0BD0630609D5302383F31188B3
:10106000D6E911239A422DD0002383F31188C5F8C5
:1010700000A0BDE8F087302383F311884FF480612E
:10108000301D00F015FB002383F31188AAE7C4F399
:10109000C001E3074FF030034FEA012148BF41F0A0
:1010A0002001A70748BF41F04001600748BF41F059
:1010B000800183F31188301D00F0FAFA002383F3D6
:1010C00011888DE7B36B002BCED01021301D2AF094
:1010D000400A00F0EDFAC7E7000000000000000041
:1010E0005C4A40F2FF715C480023DFF870C12DE9D3
:1010F000F043D2F888404FF05538594D0C43DFF893
:1011000064E1DFF86491C2F88840D2F88840574F14
:101110002040574C574EC2F88800D2F88800D2F8C9
:10112000E0000843C2F8E000D2F8080108434FF697
:10113000FF71C2F80801D2F808214F4A6360A56028
:10114000E2604E4A616122624D4A4E4862624E4AF6
:101150004E4D22604E4C4360846004F115644D4A4C
:1011600004F58A2404F29144C4604BF67E74446111
:101170004FF4300403624462474C046047485360B4
:1011800090604748474CD06047485161106240F634
:101190000820536210604FF47022CEF80430CEF86D
:1011A0000820CEF80C904FF07709CEF81410CEF846
:1011B0002030CEF824904FF420293C48CEF80090FF
:1011C000CCF80430CCF80830CCF80C80CCF81410F3
:1011D000CCF82030CCF82430CCF800307B60BB60F9
:1011E000C7F80C8079613B627B623B604FF04C67D3
:1011F0007360B7602E4F2F4AF7604FF6BF77776165
:101200002D4F336277622D4F37600F266B60AE60D3
:101210002B4EEE6069612B626B622B606360A36092
:10122000C4F80C8061612362636223604360836061
:10123000C0F80C80416103624362036053609360B5
:10124000C2F80C805161136253621360BDE8F04331
:10125000FFF746BA0044025800F8FFFF001002589A
:101260003CC0FFFF000C0258555550550014025861
:10127000000002580018025851550040B00B00B051
:101280000AAA0A00000402582880AEAA001C0258CC
:10129000C3C0003C00080258814000180C0F000C2D
:1012A0005150550100200258B000BB0000240258E4
:1012B000550515510028025800B0B00000108008F4
:1012C00050555555000000000000000000000000CF
:1012D00000F0BEB8000000000000000000000000A8
:1012E000024AD36B0343D363704700BF70010024ED
:1012F00038B50C4CD4F8EC50FFF732F9D4F8EC3098
:1013000004F50F61084A686050681A6860F31F228C
:1013100043F8102B04F1F0028B4228BF1346C4F8A7
:10132000EC3038BD70010024001000E00000000027
:10133000094BB3F8E820D20700D57047027F10B4FC
:10134000D3F8EC40D30043F00103C4E90201237059
:1013500010BCFFF7CDBF00BF7001002400000000EB
:10136000094BB3F8E820920700D5704710B40A7F04
:10137000D3F8EC40D300496B43F00203C4E9020107
:10138000237010BCFFF7B4BF700100240000000000
:101390000A4AB2F8E83010B513F0040400D010BDCA
:1013A000302383F311880321D2F8EC301970986050
:1013B000FFF79EFF84F3118810BD00BF7001002469
:1013C0000A4AB2F8E83010B513F0040400D010BD9A
:1013D000302383F311880421D2F8EC30197098601F
:1013E000FFF786FF84F3118810BD00BF7001002451
:1013F000F8B5154D14460E462F6A05F11003E96144
:10140000BA42C0E9013238BF3C462B6903605860DC
:1014100028610819FFF7ACF8FFF7A2F8821B034612
:10142000A24209D22B6A9F4200D8F8BD2F62012048
:10143000BDE8F840FFF754BF7C1C301927461E4614
:10144000FFF7A6F8E8E700BF7001002400000000E5
:101450002DE9F84F3D4E00274FF0300906F11008F6
:1014600009E087F31188D4E903312046984789F3CE
:1014700011886369ABB93469FFF772F8F3690546FF
:10148000A268C11A8A422CD89D18D4E90010F561CF
:1014900001604860276033694345E2D1FFF770F887
:1014A000DFE7FFF75DF86269A0EB050B82465A455E
:1014B00030D3336943453FD099688A4204D91B68C9
:1014C000521A99689142FAD35968A260C4E900316E
:1014D0000C6099685C60891A4FF0FF329960B261C4
:1014E000C9E73169414513D01344376AF0611B1ACB
:1014F000BB42A36038BF3B461C462819FFF748F89B
:10150000FFF72EF8451BAC4212D9336A9F4209D827
:10151000BDE8F88F0220FFF7E3FE3369434513D09F
:101520005A46C9E737620120BDE8F84FFFF7D8BE39
:10153000013705463C46E0E72A44121A5146204648
:10154000BDE8F84FFFF754BF0022F7E77001002411
:1015500010B50446416BFFF7EBFE00222369A1683A
:1015600022771B689A688A42FBD25A682046236019
:10157000626014605C6010BD0000000000000000AC
:1015800038B50A4B01211C68DD682877204622689F
:1015900053601A6021772946DC60FFF7E1FE294697
:1015A0002046BDE83840FEF70BBF00BF70010024A5
:1015B000044B1A68DB6890689B68984294BF0020CF
:1015C00001207047700100240000000000000000AE
:1015D00038B5124B01211D68DC682A68204653602B
:1015E0001A602977616BDD60FFF7A2FE0022236994
:1015F000A16822771B689A688A42FBD85A682146FC
:1016000023602846626014605C60FFF7A9FE2146F3
:101610002846BDE83840FEF7D3BE00BF7001002465
:1016200038B5302383F31188104BDC6804F138059A
:10163000A36B60639D4206D1A37F7BB10F20BDE801
:101640003840FFF79DBF1A681846A263FFF780FF76
:10165000A36BAB42F7D1A37F002BEFD1E36A002B42
:10166000ECD1D4E9093213605A60E7E77001002435
:101670000346006820B100221A604163FFF768BF8B
:10168000704700BF000000000000000000000000E4
:1016900003460068834205D002681A6053604163C4
:1016A000FFF756BF704700BF0000000000000000B9
:1016B000F8B50468A04220D007460D46002604E095
:1016C0000B2A1BD02468A74217D0E3682B43E360A2
:1016D00015B123691D42F5D0D4E90103416C027FA5
:1016E0000B430A2A4364EBD1426B1342EAD04663B0
:1016F000FFF72EFF2468A742E7D1F8BD426B9A435B
:10170000E0D1F4E70000000000000000000000004D
:10171000EFF30983203383F30988002383F31188CF
:10172000704700BF00000000000000000000000043
:10173000302383F311880D4B5B6813F4006302D1EF
:1017400083F31188704710B5EFF309844FF080736D
:10175000203CE36184F30988FFF72AFF10B1044BB2
:10176000A36110BD034BA36110BD00BF00ED00E0FD
:10177000E3030008E603000800000000000000008A
:1017800000207047830730B548D0541E002A3FD050
:10179000CAB2034601E0013C3AD303F8012B9D078E
:1017A000F9D1032C2DD9CDB245EA05250F2C45EAF8
:1017B000054536D9A4F1100222F00F0C03F1200EDA
:1017C000E6444FEA121C03F1100242E9045542E9D3
:1017D000025510327245F8D10CF1010214F00C0FD1
:1017E00003EB021204F00F0C13D0ACF1040323F04E
:1017F00003030433134442F8045B9342FBD10CF01F
:1018000003042CB1C9B21C4403F8011B9C42FBD158
:1018100030BD64461346002CF4D1F9E70346144664
:08182000BFE71A46A446E0E709
:10182800A4190008600A0024600A0024600A002441
:10183800A41900080000003000000030000000304B
:10184800A41900080000003000000030000000303B
:10185800A41900080000043000000430000004301F
:10186800A419000800000038000000380000003803
:10187800A419000800080020000800200008002023
:10188800A41900080000000000000000000000008B
:10189800A419000800008038000080380000803853
:1018A800566563746F7242300000000056656374B9
:1018B8006F72444300000000566563746F723130E4
:1018C80034000000566563746F72313538000000CB
:1018D800566563746F723135340000005665637461
:1018E8006F72383000000000566563746F723743BA
:1018F80000000000566563746F72373800000000FE
:10190800566563746F72373400000000566563745F
:101918006F72373000000000566563746F7236438B
:1019280000000000566563746F72313530000000A6
:10193800566563746F723133300000005665637406
:101948006F72313243000000566563746F72313232
:1019580038000000566563746F723132340000003D
:10196800566563746F7231323000000056656374D7
:101978006F72464300000000566563746F72383416
:1019880000000000566563746F7231363400000041
:0C199800566563746F7231363000000039
:04000005080003B933
:00000001FF
