:020000040800F2
:1000000000040020B9030008BB030008BB0300087C
:10001000BB030008BB030008BB030008BB030008C8
:10002000BB030008BB030008BB03000841400008F5
:10003000BB030008BB030008BB030008BB030008A8
:10004000BB030008BB030008BB030008BB03000898
:10005000BB030008BB030008BB030008BB03000888
:10006000BB030008BB030008BB030008511B0008CA
:10007000911B0008D11B0008111C0008511C00082E
:10008000911C0008D11C0008BB030008BB0300083A
:10009000BB030008BB030008BB030008BB03000848
:1000A000BB030008BB030008BB030008BB03000838
:1000B00011180008BB030008BB030008BB030008BD
:1000C000BB030008BB030008BB030008BB03000818
:1000D000BB030008BB030008BB030008E1170008CE
:1000E000BB030008BB030008BB030008BB030008F8
:1000F000BB030008BB030008BB030008111D000878
:10010000BB030008B1170008BB030008BB030008CD
:10011000BB030008BB030008BB030008BB030008C7
:10012000511D0008911D0008D11D0008111E000876
:10013000511E0008BB030008BB030008BB030008F6
:10014000BB030008BB030008BB030008BB03000897
:10015000911E0008D11E0008111F0008BB030008F3
:1001600001210008E1220008BB030008BB030008CE
:10017000BB030008BB030008BB030008BB03000867
:10018000BB030008BB030008BB030008BB03000857
:10019000BB030008BB030008BB030008BB03000847
:1001A000BB030008BB030008BB030008BB03000837
:1001B000BB030008BB030008BB030008BB03000827
:1001C000BB030008BB030008BB030008BB03000817
:1001D000BB030008BB030008BB030008BB03000807
:1001E000BB030008BB030008BB030008BB030008F7
:1001F000BB030008BB030008BB030008BB030008E7
:10020000BB030008BB030008BB030008BB030008D6
:10021000BB030008BB030008BB030008BB030008C6
:10022000BB030008BB030008BB030008BB030008B6
:10023000BB030008BB030008BB030008BB030008A6
:10024000BB030008BB030008BB030008BB03000896
:10025000BB030008BB030008BB030008BB03000886
:10026000BB030008BB030008BB030008BB03000876
:10027000BB030008BB030008BB030008BB03000866
:10028000BB030008BB030008BB030008BB03000856
:10029000BB030008BB030008BB030008BB03000846
:1002A000BB030008BB030008BB030008BB03000836
:1002B000BB030008BB030008BB030008BB03000826
:1002C000BB030008BB030008BB030008BB03000816
:1002D000BB030008BB030008BB030008BB03000806
:1002E00072B6264880F30888254880F30988254897
:1002F00025490860022080F31488BFF36F8F00F057
:100300000FFC02F03DFE4FF0553020491B4A914250
:100310003CBF41F8040BFAE71D49194A91423CBF22
:1003200041F8040BFAE71B491B4A1C4B9A423EBF9B
:1003300051F8040B42F8040BF8E700201849194A59
:1003400091423CBF41F8040BFAE700F039FC00F0A1
:1003500027FC154C154DAC4203DA54F8041B8847B2
:10036000F9E703F025FF124C124DAC4203DA54F8C2
:10037000041B8847F9E700F01BBC000000040020C4
:10038000000800200000000808ED00E00000002048
:1003900000040020986000080000002404000024ED
:1003A000200E00241C250024E0020008E0020008C2
:1003B000E0020008E002000892E700F000F8FEE723
:1003C0002DE9F04FC1F80CD0D0F80CD0BDE8F08F7B
:1003D000002383F311882846A047002003F090FBF8
:1003E000FEE703F02DFA00DFFEE7000080F000409A
:1003F00002E000BF81F0004142001FBF5FEA4103FD
:1004000092EA030F7FEA226C7FEA236C6AD04FEAFC
:100410001262D2EB1363C1BFD21841404840414041
:10042000B8BF5B42192B88BF704710F0004F40F4F3
:10043000000020F07F4018BF404211F0004F41F40F
:10044000000121F07F4118BF494292EA030F3FD0DB
:10045000A2F1010241FA03FC10EB0C00C3F12003EE
:1004600001FA03F100F0004302D5494260EB40007D
:10047000B0F5000F13D3B0F1807F06D340084FEAE8
:10048000310102F10102FE2A51D2B1F1004F40EBDD
:10049000C25008BF20F0010040EA03007047490045
:1004A00040EB0000013A28BFB0F5000FEDD2B0FAE2
:1004B00080FCACF1080CB2EB0C0200FA0CF0AABF05
:1004C00000EBC25052421843BCBFD04018437047A3
:1004D00092F0000F81F4000106BF80F400000132A9
:1004E000013BB5E74FEA41037FEA226C18BF7FEA80
:1004F000236C21D092EA030F04D092F0000F08BFC2
:100500000846704790EA010F1CBF0020704712F0A8
:100510007F4F04D1400028BF40F00040704712F1E7
:1005200000723CBF00F50000704700F0004343F04C
:10053000FE4040F4000070477FEA226216BF084682
:100540007FEA23630146420206BF5FEA412390EA45
:10055000010F40F4800070474FF0000304E000BF3B
:1005600010F0004348BF40425FEA000C08BF7047EC
:1005700043F0964301464FF000001CE050EA0102B0
:1005800008BF70474FF000030AE000BF50EA0102C5
:1005900008BF704711F0004302D5404261EB4101B2
:1005A0005FEA010C02BF84460146002043F0B643D7
:1005B00008BFA3F18053A3F50003BCFA8CF2083AFC
:1005C000A3EBC25310DB01FA02FC634400FA02FC05
:1005D000C2F12002BCF1004F20FA02F243EB02000C
:1005E00008BF20F00100704702F1200201FA02FC6E
:1005F000C2F1200250EA4C0021FA02F243EB020061
:1006000008BF20EADC7070474FF0FF0C1CEAD052A4
:100610001EBF1CEAD15392EA0C0F93EA0C0F6FD065
:100620001A4480EA010C400218BF5FEA41211ED043
:100630004FF0006343EA501043EA5111A0FB01312F
:100640000CF00040B1F5000F3EBF490041EAD37104
:100650005B0040EA010062F17F02FD2A1DD8B3F180
:10066000004F40EBC25008BF20F00100704790F0EF
:10067000000F0CF0004C08BF49024CEA502040EA41
:1006800051207F3AC2BFD2F1FF0340EAC250704707
:1006900040F400004FF00003013A5DDC12F1190F45
:1006A000DCBF00F000407047C2F10002410021FAB7
:1006B00002F1C2F1200200FA02FC5FEA310040F1CF
:1006C000000053EA4C0308BF20EADC70704792F048
:1006D000000F00F0004C02BF400010F4000F013A80
:1006E000F9D040EA0C0093F0000F01F0004C02BF7B
:1006F000490011F4000F013BF9D041EA0C018FE7EA
:100700000CEAD15392EA0C0F18BF93EA0C0F0AD0EF
:1007100030F0004C18BF31F0004CD8D180EA010015
:1007200000F00040704790F0000F17BF90F0004FAE
:10073000084691F0000F91F0004F14D092EA0C0F90
:1007400001D142020FD193EA0C0F03D14B0218BF23
:10075000084608D180EA010000F0004040F0FE4069
:1007600040F40000704740F0FE4040F44000704705
:100770004FF0FF0C1CEAD0521EBF1CEAD15392EA84
:100780000C0F93EA0C0F69D0A2EB030280EA010C74
:1007900049024FEA402037D04FF0805343EA11110D
:1007A00043EA10130CF000408B4238BF5B0042F16B
:1007B0007D024FF4000C8B4224BF5B1A40EA0C0010
:1007C000B3EB510F24BFA3EB510340EA5C00B3EB42
:1007D000910F24BFA3EB910340EA9C00B3EBD10F30
:1007E00024BFA3EBD10340EADC001B0118BF5FEA82
:1007F0001C1CE0D1FD2A3FF650AF8B4240EBC250AB
:1008000008BF20F0010070470CF0004C4CEA50206B
:100810007F32C2BFD2F1FF0340EAC250704740F4BA
:1008200000004FF00003013A37E792F0000F00F0AC
:10083000004C02BF400010F4000F013AF9D040EA2A
:100840000C0093F0000F01F0004C02BF490011F4BE
:10085000000F013BF9D041EA0C0195E70CEAD153B6
:1008600092EA0C0F08D142027FF47DAF93EA0C0F9D
:100870007FF470AF084676E793EA0C0F04D14B0281
:100880003FF44CAF08466EE730F0004C18BF31F033
:10089000004CCAD130F000427FF45CAF31F000432D
:1008A0007FF43CAF5FE700BF4FF0FF3C06E000BFC6
:1008B0004FF0010C02E000BF4FF0010C4DF804CDE9
:1008C0004FEA40024FEA41037FEA226C18BF7FEAF9
:1008D000236C11D001B052EA530C18BF90EA010FFB
:1008E00058BFB2EB030088BFC81738BF6FEAE1708A
:1008F00018BF40F0010070477FEA226C02D15FEA26
:10090000402C05D17FEA236CE4D15FEA412CE1D091
:100910005DF8040B704700BF844608466146FFE758
:100920000FB5FFF7C9FF002848BF10F1000F0FBD3A
:100930004DF808EDFFF7F4FF0CBF012000205DF833
:1009400008FB00BF4DF808EDFFF7EAFF34BF0120B8
:1009500000205DF808FB00BF4DF808EDFFF7E0FF51
:1009600094BF012000205DF808FB00BF4DF808EDA2
:10097000FFF7D2FF94BF012000205DF808FB00BF05
:100980004DF808EDFFF7C8FF34BF012000205DF8E7
:1009900008FB00BF4FEA4002B2F1FE4F0FD34FF009
:1009A0009E03B3EB12620DD94FEA002343F00043DC
:1009B00010F0004F23FA02F018BF404270474FF08A
:1009C0000000704712F1610F01D1420205D110F011
:1009D000004008BF6FF0004070474FF000007047C4
:1009E000844641EA000313F003036DD1403A41D33A
:1009F00051F8043B40F8043B51F8043B40F8043BF9
:100A000051F8043B40F8043B51F8043B40F8043BE8
:100A100051F8043B40F8043B51F8043B40F8043BD8
:100A200051F8043B40F8043B51F8043B40F8043BC8
:100A300051F8043B40F8043B51F8043B40F8043BB8
:100A400051F8043B40F8043B51F8043B40F8043BA8
:100A500051F8043B40F8043B51F8043B40F8043B98
:100A600051F8043B40F8043B51F8043B40F8043B88
:100A7000403ABDD2303211D351F8043B40F8043B28
:100A800051F8043B40F8043B51F8043B40F8043B68
:100A900051F8043B40F8043B103AEDD20C3205D338
:100AA00051F8043B40F8043B043AF9D2043208D030
:100AB000D2071CBF11F8013B00F8013B01D30B88A2
:100AC00003806046704700BF082A13D38B078DD080
:100AD00010F003038AD0C3F10403D21ADB071CBF52
:100AE00011F8013B00F8013B80D331F8023B20F8BC
:100AF000023B7BE7043AD9D3013A11F8013B00F8F5
:100B0000013BF9D20B7803704B7843708B7883707C
:100B10006046704700000000000000000000000078
:100B200010B5BFF34F8FBFF36F8F1C480022C0F882
:100B30005022BFF34F8FBFF36F8F436943F40033ED
:100B40004361BFF34F8FBFF36F8FC0F88420BFF3B3
:100B50004F8FD0F8803043F6E074C3F34E3CC3F3BC
:100B6000C90E4FEA4C1C0CEA0401734641EA837239
:100B7000013BC0F860225A1CF8D1ACF1200C1CF1EA
:100B8000200FF0D1BFF34F8F436943F480334361AB
:100B9000BFF34F8FBFF36F8F10BD00BF00ED00E0BC
:100BA000704700BF000000000000000000000000CF
:100BB000FEE700BF00000000000000000000000091
:100BC000F8B52B4D2B4F2C4905F170042B482C4ABE
:100BD00088420DD2043A034652F8046F43F8046B7E
:100BE0008B42F9D34B1E1B1A23F003030433184422
:100BF000B84207D2013F00213F1A27F00302043216
:100C000004F07EFEA54205D0D5E90420D5E90617FB
:100C10001035DDE71B480023C0F88430BFF34F8F49
:100C2000D0F8805043F6E076C5F34E34C5F3C905DD
:100C3000640104EA06012B4641EA8372013BC0F8D5
:100C40006C225A1CF8D1203C14F1200FF1D1BFF3D3
:100C50004F8FBFF36F8FBFF34F8FBFF36F8F0023A3
:100C6000C0F85032BFF34F8FBFF36F8FF8BD00BF96
:100C7000A45900081C2500241C2500241C25002440
:100C80009C6E000800ED00E0000000000000000085
:100C900008B500F0E5FD01F02BFA00F041FA00F094
:100CA00037FD00F0D5FC02F073FABDE8084000F013
:100CB00007B800BF000000000000000000000000B6
:100CC00002F05EB80000000000000000000000001C
:100CD0004FF08043586A7047000000000000000099
:100CE0004FF080430021022258631961DA60704797
:100CF0004FF080430022DA60704700BF0000000020
:100D00004FF080435863704700000000000000006F
:100D1000F8B51546826804460B46AA4200D285689B
:100D2000A1692669761AB54218D30AD82A46184608
:100D3000FFF756FEE268A3682846A2615B1BA3602A
:100D4000F8BDAF1B32461846FFF74AFE3A4630441C
:100D5000E168FFF745FEE2683A44ECE72A461846A8
:100D6000FFF73EFEA2692A44E5E700BF000000004D
:100D7000836893422DE9F04104460F4612D28568FC
:100D8000D4E90460361AB54212D318D82A46394637
:100D9000FFF726FEE268A368284662615B1BA3603A
:100DA000BDE8F081D4E904601546361AB542ECD2AC
:100DB0002A463946FFF714FE62692A44EBE7A5EBA1
:100DC000060832463946FFF70BFE4246B919E0687D
:100DD000FFF706FEE2684244DDE700BF00000000C6
:100DE000F8B504460D461F46164602F0E1FE069B86
:100DF0002E44E76123620023C4E90356C4E9055584
:100E0000A360F8BD0000000000000000000000002A
:100E1000D0E90532934211D0826810B501325C1CD2
:100E2000826044611970D0E904329A4201D3C368E8
:100E30004361002102F0DCFE002010BD8268002A20
:100E4000EAD04FF0FF3070470000000000000000C3
:100E500070B5302305460E4683F3118803E002F097
:100E6000AFFE002819DBAC6831462846002CF6D0CE
:100E7000AB68A969013B4A1CAB602B69AA619A4225
:100E80000C7801D3EB68AB61EB690BB1284698474E
:100E9000002383F31188204670BD84F3118870BD50
:100EA0002DE9F04F83B09A46C6693027019287F347
:100EB0001188CAB183460D46DDF804904FF0000852
:100EC0004A4629465846FFF723FF0446584694B140
:100ED00006B1B04788F31188A9EB0409254487F3CC
:100EE0001188B9F1000FEBD10198002383F3118829
:100EF00003B0BDE8F08F514602F062FE0028DFD05B
:100F0000019BA3EB0900002383F3118803B0BDE824
:100F1000F08F00BF00000000000000000000000093
:100F2000F8B504460D4616461F4602F041FE069BE4
:100F3000A6602E44E7612362C4E90356C4E905555F
:100F4000F8BD00BF0000000000000000000000002D
:100F5000F8B5302304460F46164683F3118803E0A4
:100F600002F02EFE002819DBA56831462046002D30
:100F7000F6D06269A368511C013B6161A3601770E0
:100F8000D4E904329A4201D3E3686361E3690BB1A7
:100F900020469847002080F31188F8BD85F311881A
:100FA000F8BD00BF000000000000000000000000CD
:100FB000D0E905239A4210D08268591C013210B53D
:100FC000816182601C780369994201D3C36883619F
:100FD000002102F00DFE204610BD8268002AEBD0F1
:100FE0004FF0FF30704700BF00000000000000001D
:100FF0002DE9F04F83B09A46C6693027019287F3F6
:101000001188CAB183460D46DDF804904FF0000800
:101010004A4629465846FFF7ABFE0446584694B167
:1010200006B1B04788F31188A9EB0409254487F37A
:101030001188B9F1000FEBD10198002383F31188D7
:1010400003B0BDE8F08F514602F0BAFD0028DFD0B2
:10105000019BA3EB0900002383F3118803B0BDE8D3
:10106000F08F00BF00000000000000000000000042
:1010700001F01F0C012349090CF1010CB1EB521FC7
:1010800003FA0CF310B503F1FF334FEA521402F0E8
:101090001F0E05D850F82400184020FA0EF010BD9D
:1010A00050F8211050F8242003EA0100CEF120016D
:1010B00022FA0EF38840184310BD00BF0000000064
:1010C000C3689B0F08D08368C288180400F47C10A2
:1010D0001043013080027047826840F6FC7341681B
:1010E00003EA8200C2F30342C1F3C23340EA9170C3
:1010F000093A0233013098409040704700000000E8
:1011000090F8D63090F8D7101B0490F8D42090F8BF
:10111000D50003EB0163134403EB0020704700BFCD
:1011200001F03EB9000000000000000000000000D7
:101130000346012100220C3019705A6002F0E8BD0C
:1011400010B53023044683F31188416001F048F95B
:1011500002230020237080F3118810BD00000000DE
:1011600030B585B004464FF0300C089D8CF31188E3
:10117000DDF828C0CDF808C0DDF824C0CDE9005C5A
:101180004FF0030C002580F800C0856001F098F94D
:10119000431C14BF02230523237085F3118805B077
:1011A00030BD00BF00000000000000000000000093
:1011B0000379052B06D1826A4FF400730020C1E940
:1011C000003270470120704700000000000000005E
:1011D00070B5124E82B004460D4611E001F038FBA6
:1011E00003460A20BBB9019AC2F343213242A1F15E
:1011F00005020FD104290ED0022A0BD802F0A8FC58
:1012000001AB0D212046A26B002DE7D101F008FBB8
:101210000346E6E70123184602B070BD08E0FFFD73
:1012200003F1FF3C10B58C44D0F828E00446F445A7
:1012300005D9436B012043F08003636310BD4FF079
:10124000060C80F804C001F033FD0523237110BDA6
:1012500003F1FF3C10B58C44D0F828E00446F44577
:1012600005D9436B012043F08003636310BD4FF049
:10127000070C80F804C001F043FD0523237110BD65
:1012800038B50579052D01D0012038BD0823044665
:10129000037101F05DFD257138BD00BF0000000045
:1012A00038B5302383F311880379022B10D0042240
:1012B00004460023027183F311880121FFF788FFA0
:1012C0000546204601F07CFA02232846237138BDEA
:1012D000002585F31188284638BD00BF00000000B6
:1012E00003232DE9F041037184B0044601F000FAB4
:1012F00000222046114601F083FA03AB4FF4D57269
:101300000821204601F0A4FAE8B9039B0122C3F3A7
:1013100003232263934209D02046012501F050FAAD
:1013200002232846237104B0BDE8F081024603ABD6
:101330003721204601F08CFA0028EDD1039AA64B04
:1013400013408BB1E8E703AB00223721204601F0C0
:101350007FFA002835D1039B9F4A1A408ABB114669
:101360002046226301F04CFA236B03F00F03022B9B
:1013700029D09A4F64259A4ADFF85C82012B18BF66
:10138000174610E0039E16EA080FC5D101F048FA8F
:1013900003466420002BBFD1039B002B28DB013DBB
:1013A000BAD002F0D5FB03AB00223721204601F072
:1013B0004FFA064603AB3A4629212046002EE1D0DB
:1013C000AAE7022323636425864E06E0039B002BD5
:1013D0000EDB013DA0D002F0BBFB03AB3246012186
:1013E000204601F01DFA03466420002BEED093E75F
:1013F0005A0003D5236B43F01003236304F1080361
:1014000000220221204601F03BFA002884D1024646
:1014100004F138030321204601F01AFA00287FF472
:101420007BAF04F11806A26B09212046334601F078
:1014300027FA00287FF470AF02ABA26B0721204689
:1014400001F006FA054600287FF466AF236B03F02F
:101450000F03022B65D07E227F213046E76BFFF71A
:1014600007FE70B10623402239462046009501F060
:1014700027FA00287FF450AFBB895BBA9B0700F1C5
:1014800094800021204601F05BF900212046FFF7FF
:101490009FFE054600287FF43FAF236B03F00F0348
:1014A000022B6BD03046FFF70BFEA06202AB4FF46D
:1014B00000721021204601F0CBF9054600287FF488
:1014C0002BAF029B444E33427FF426AF236B13F0C5
:1014D0000E0F03F00F0233D1E36A1978F9B1012935
:1014E0007FF41AAF204601F073F903ABA26B3721EA
:1014F000204601F0ADF900287FF40EAF039B334284
:101500007FF40AAF03AB02220621204601F0A0F9C6
:1015100000287FF401AF039B33427FF4FDAE052327
:10152000FFE603AB304A0621204601F091F900287E
:10153000A7D1039B28491940B1FA81F14909A1E7D4
:10154000022A7FF4E9AEE36A1978012941D0022921
:101550003DD00029E3D0254E204601F039F903ABF8
:1015600032460621204601F073F900287FF4D4AEFC
:10157000039A194B1340002BD1D0CDE67E227F2158
:101580003046FFF775FD01288CD9E66B08234FF430
:10159000007220463146009501F092F900287FF450
:1015A000BBAE3046FFF7ACFD7FE7114B402239461A
:1015B00020460093062301F083F900287FF4ACAEA7
:1015C000397C01F00F010F3918BF01215AE7094E8C
:1015D000C2E7094EC0E700BF08E0FFFD0080FF50F2
:1015E000000010800080FFC00001B9030000B703B5
:1015F000F1FFFF800002B7030001B7030000000005
:1016000030B5104D83B0044603E0022A16D802F02C
:101610009FFA01ABA26B0D21204601F019F9034698
:101620000A2043B9019AC2F343212A42A1F10502DB
:1016300004D10429E9D1184603B030BD012318466E
:1016400003B030BD08E0FFFD000000000000000016
:1016500001F02EB8000000000000000000000000B3
:10166000002304490122016002714363C0E90A3387
:10167000704700BF245A000800000000000000006E
:101680000C30FFF70DBC00BF0000000000000000A0
:101690004FF0FF330C30FFF703BC00BF0000000029
:1016A0003030FFF7A5BC00BF0000000000000000C4
:1016B0004FF0FF333030FFF79BBC00BF000000004D
:1016C0000C30FFF7C5BB00BF0000000000000000A9
:1016D0004FF0FF310C30FFF7BBBB00BF0000000034
:1016E0003030FFF735BC00BF0000000000000000F4
:1016F0004FF0FF323030FFF72BBC00BF000000007E
:10170000012914BF6FF01300002070470000000093
:1017100001F086BB00000000000000000000000097
:10172000044B10B5044640F8043B02F0A1FB012332
:10173000237210BD485A000800000000000000009D
:1017400038B5436904460D463BB1294604F10C0007
:10175000FFF75EFB00280BDB38BD0421084402F0D4
:101760008FFB294604F10C00FFF752FB0028F3DA47
:10177000201D4FF40061BDE8384002F081BB00BF7E
:101780000A4A09014FEA501C0123C9B200B500F012
:101790001F0E104403FA0EF380F8001302EB8C01C5
:1017A000C1F8803142F82C305DF804FB00E100E024
:1017B00010B5074C204601F0ABFD064801F0D0FA09
:1017C000204601F0BDFDBDE8104002F079BC00BF2D
:1017D000885A0008E00E002400000000000000000D
:1017E00010B5074C204601F093FD064801F040FB80
:1017F000204601F0A5FDBDE8104002F061BC00BF2D
:101800007C5A0008300F0024000000000000000097
:1018100010B5064C204601F07BFD01F0E1FA2046B0
:1018200001F08EFDBDE8104002F04ABC705A00087D
:1018300008B509217A20FFF7A3FF09213120FFF71E
:101840009FFF07211C20FFF79BFF0C212720BDE8ED
:101850000840FFF795BF00BF000000000000000037
:1018600038B5354B4FF0FF310022344CD3F88000AF
:10187000334D60F00040C3F88000D3F8800000F0E2
:101880000040C3F88000D3F88000D3F88400C3F888
:101890008410D3F88400C3F88420D3F88400D86F70
:1018A0002043D867DC6F27482C40DC67DC6FD3F817
:1018B00088402043C3F88800D3F88800C0F30A00AA
:1018C000C3F88800D3F88800D3F89000C3F89010CC
:1018D000D3F89000C3F89020D3F89000D3F8940088
:1018E000C3F89410D3F89400C3F89420D3F894006C
:1018F000D3F89800C3F89810D3F89800C3F898204C
:10190000D3F89800D3F88C00C3F88C10D3F88C006F
:10191000C3F88C20D3F88C00D3F89C00C3F89C103B
:10192000D3F89C10C3F89C20D3F89C3000F010FB37
:10193000BDE83840FFF77CBF00440258FFEFFF7F4F
:101940000010008000F8FFFF000000000000000011
:101950006F4B02206F4AD3F8F410014310B4C3F860
:10196000F410D3F81C110143C3F81C11D3F81C3137
:10197000D06053689C04FCD5674800230121674C64
:1019800010604FF440409160D460654913619061EC
:10199000604ACB6293699804FCD513685C4943F4B0
:1019A000807313600B6F03F44073B3F5807F04D032
:1019B0004FF4803200230A670B67554A136F43F0D8
:1019C00019031367136F9907FCD51368504943F047
:1019D000010313600B685B07FCD500234C4A0B61C5
:1019E000136913F03803FBD101204FF080414FF011
:1019F0000054106051604B484B49D4605367D0622B
:101A000011611368424843F4A023136003689C03E8
:101A1000FCD503683E4943F4805303600B68980487
:101A2000FCD50B683A4A43F080030B601368D90574
:101A3000FCD5516F364B41F0010151675A6F920747
:101A4000FCD5002239483A4998623A4C5A633A48E0
:101A500019633A49DA639C635A641864D962196855
:101A60002B4A41F0A8511960136803F02853B3F1D1
:101A7000285FF9D148244FF4886140200023946105
:101A80004FF48014D1614FF0005110623220D164C4
:101A90002B4913655465936508600B6803F00F03C9
:101AA000022BFAD11A4A136943F003031361136935
:101AB00003F03803182BFAD1D2F8DC3010BC43F015
:101AC0000053C2F8DC30D2F8043143F00053C2F8BE
:101AD0000431D2F80431D2F8DC3043F08043C2F84C
:101AE000DC30D2F8043143F08043C2F80431D2F83C
:101AF0000431D2F8DC3043F00043C2F8DC30D2F8D5
:101B0000043143F00043C2F80431D2F80431704785
:101B1000004402580048025800C000F002000001D2
:101B2000000400580000FF010088100842404000F7
:101B30008F030F078F4F07078F0F07075505FF010B
:101B40000020005200000000000000000000000023
:101B50000A4808B501F0DCFB094B0A4819684268DD
:101B600001F03D0199600AB180689047034801F097
:101B7000E7FBBDE8084002F0A3BA00BFE85A00083E
:101B800000000240200E00240000000000000000C1
:101B90000B4810B501F0BCFB0A4B0B481968C26832
:101BA000890901F03D018C019C600AB100699047F0
:101BB000034801F0C5FBBDE8104002F081BA00BF48
:101BC000DC5A000800000240200E00240000000043
:101BD0000B4810B501F09CFB0A4B0B481968426991
:101BE000090C01F03D010C049C600AB1806990472A
:101BF000034801F0A5FBBDE8104002F061BA00BF48
:101C0000D05A000800000240200E0024000000000E
:101C10000B4810B501F07CFB0A4B0B481968C269F0
:101C2000890D01F03D018C059C600AB1006A904766
:101C3000034801F085FBBDE8104002F041BA00BF47
:101C4000C45A000800000240200E002400000000DA
:101C50000A4808B501F05CFB094B0A485968426A1A
:101C600001F03D01D9600AB1806A9047034801F054
:101C700067FBBDE8084002F023BA00BFB85A00086D
:101C800000000240200E00240000000000000000C0
:101C90000B4810B501F03CFB0A4B0B485968C26A6F
:101CA000890901F03D018C01DC600AB1006B9047AD
:101CB000034801F045FBBDE8104002F001BA00BF47
:101CC000AC5A000800000240200E00240000000072
:101CD0000B4810B501F01CFB0A4B0B485968426BCE
:101CE000090C01F03D010C04DC600AB1806B9047E7
:101CF000034801F025FBBDE8104002F0E1B900BF48
:101D0000485B000800000240200E00240000000094
:101D10000B4810B501F0FCFA0A4B0B485968C26B2E
:101D2000890D01F03D018C05DC600AB1006C904723
:101D3000034801F005FBBDE8104002F0C1B900BF47
:101D40003C5B000800000240200E00240000000060
:101D50000A4808B501F0DCFA094B0A481968426CD8
:101D600001F03D0199600AB1806C9047034801F091
:101D7000E7FABDE8084002F0A3B900BF305B0008F5
:101D800000040240200E00240000000000000000BB
:101D90000B4810B501F0BCFA0A4B0B481968C26C2D
:101DA000890901F03D018C019C600AB1006D9047EA
:101DB000034801F0C5FABDE8104002F081B900BF48
:101DC000245B000800040240200E002400000000F4
:101DD0000B4810B501F09CFA0A4B0B481968426D8C
:101DE000090C01F03D010C049C600AB1806D904724
:101DF000034801F0A5FABDE8104002F061B900BF48
:101E0000185B000800040240200E002400000000BF
:101E10000B4810B501F07CFA0A4B0B481968C26DEB
:101E2000890D01F03D018C059C600AB1006E904760
:101E3000034801F085FABDE8104002F041B900BF47
:101E40000C5B000800040240200E0024000000008B
:101E50000A4808B501F05CFA094B0A485968426E15
:101E600001F03D01D9600AB1806E9047034801F04E
:101E700067FABDE8084002F023B900BF005B000824
:101E800000040240200E00240000000000000000BA
:101E90000B4810B501F03CFA0A4B0B485968C26E6A
:101EA000890901F03D018C01DC600AB1006F9047A7
:101EB000034801F045FABDE8104002F001B900BF47
:101EC000F45A000800040240200E00240000000024
:101ED0000B4810B501F01CFA0A4B0B485968426FC9
:101EE000090C01F03D010C04DC600AB1806F9047E1
:101EF000034801F025FABDE8104002F0E1B800BF48
:101F0000A05A000800040240200E00240000000037
:101F10000B4810B501F0FCF90A4B0B485968C26F29
:101F2000890D01F03D018C05DC6012B1D0F8800014
:101F30009047034801F004FABDE8104002F0C0B831
:101F4000945A000800040240200E00240000000003
:101F500000220D4830B40D4C13460D4D226001E0B7
:101F600055F8330004EB830102330260202B4A60F2
:101F7000F6D14FF0FF330749074A8B60CB6093607F
:101F8000D36030BC704700BF10000240200E002418
:101F9000545B000800000240000402400000000002
:101FA000F8B5122820D8DFE800F00A0A0A0A0A0A5F
:101FB0000A0A0A0A0A0A0A0A0A0A6F7479004FF022
:101FC000010C05460CFA00FC374E346814EA0C0F7D
:101FD0000DD04FF0010E02E014EA0C0F07D00130D3
:101FE000A8420EFA00FCF7D900252846F8BD44EABD
:101FF0000C04346006EBC0062C4CC6E901235FFAE2
:102000008CF3060104EB001573B1294BD3F8D8000B
:1020100040F00100C3F8D800D3F8000140F00100FF
:10202000C3F80001D3F800311CF47F4F1CD1A05934
:10203000036823F01F030360036813F00103FBD15F
:1020400034443D26212794F80CC006FA0CF6D4F847
:1020500004C0CCF8006003604761002AC5D0A07BB3
:10206000FFF78EFB2846F8BD114BD3F8D80040F09F
:102070000200C3F8D800D3F8000140F00200C3F812
:102080000001D3F80031D2E74FF0010C0F250020FA
:102090009AE74FF0010C0725002095E74FF0800CE0
:1020A0000F25072090E700BF200E0024545B000896
:1020B0000044025800000000000000000000000082
:1020C00008B54FF0300C8CF31188FFF769FF00233F
:1020D00083F3118808BD00BF00000000000000006D
:1020E00083681960704700BF000000000000000016
:1020F000704700BF0000000000000000000000006A
:1021000070B5704D7048AB6B9C6901F001F9AA6B1A
:1021100004F0FE0314F01001D3614AD120062CD440
:10212000610623D52B78032B00F08D80286B016886
:102130000B6823F01F030B600B68DB07FCD4047BE8
:102140003D234168A3400B605368302143F4804332
:102150005360136823F04003136081F3118800215A
:102160005A4801F015FD002383F31188564801F009
:10217000E7F8BDE8704001F0A3BF2B78032B52D0E5
:102180002B6B1B685B68FF2B00F28C801B0468685C
:102190005468806803434E48204003434A480B4339
:1021A00043F48063536001F0CBF8BDE8704001F068
:1021B00087BF286B01680B6823F01F030B600B6857
:1021C000DC07FCD4047B3D234168A340686B0B60B3
:1021D00001680B6823F01F030B600C6814F0010406
:1021E000FBD141683D23007B83400B605368A968A5
:1021F00043F4804341F00401A96030215360136827
:1022000023F04603136081F311886FF001012F481A
:1022100001F0BEFC84F311882B4801F091F8BDE871
:10222000704001F04DBF6B6B1B685868FF283ED8AB
:1022300000046B6856689C68254B33402343034376
:102240000B43536092E7686B01680B6823F01F0330
:102250000B600B6813F00103FBD144683D21007B48
:1022600081402160296B0968486800283FF46CAF01
:102270004868FF2820D800046C685668A46820438A
:10228000134C344020430343042043F480635360E1
:102290000B6843F001030B605368287043F400534C
:1022A000536063E74FF47F034FF080716FE74FF4A3
:1022B0007F004FF08071BCE74FF47F004FF08073D8
:1022C000DAE700BFA40E0024605C0008C00E002402
:1022D000FFFF00FE00000000000000000000000002
:1022E00038B52C4C2C48A36B9D6901F011F8216B7B
:1022F000A36B05F47C52DA610A68136823F01F03AC
:1023000013601368DB07FCD4087B3D234A688340D5
:10231000616B13600A68136823F01F03136013686E
:10232000D807FCD4087B3D234A68E90503FA00F38B
:102330001360A36844BF43F00103A360AA0502D55C
:1023400043F00203A360680519D543F00803E904CC
:10235000A36002D543F02003A360302383F31188E8
:102360006FF001010D4801F013FC002383F3118885
:10237000094800F0E5FFBDE8384001F0A1BEEA04DD
:10238000E8D4002BE9D1044800F0DAFFBDE838407A
:1023900001F096BEA40E0024545C0008C00E002478
:1023A00010B50A4C2046FEF7C3FE0023084A05215B
:1023B0004820E361A263C4E90C33FFF7E1F905218A
:1023C0004920BDE81040FFF7DBB900BFA40E002490
:1023D000005C004000000000000000000000000061
:1023E00038B5856B04462B6823F001032B60037816
:1023F000012B16D0626805F12400D4E90C31546831
:102400001B68096898604CF29003126805F1280077
:10241000234388602B602A612B6843F001032B6003
:1024200038BD224B40F2564140F216429842C0E974
:102430000A21DFD11E4900231020D1F8902042F458
:102440000002C1F89020D1F8902022F40002C1F8D7
:102450009020D1F89020D1F8E82042F40002C1F891
:10246000E820D1F8102142F40002C1F810211A46E8
:10247000D1F810110521FFF793FD002320630521FA
:102480001A461020FFF78CFD49216063206BD4E9C8
:102490000A2342F4403243F44033A262E362FFF77E
:1024A0001FFE4A21606BFFF71BFEA3E7A40E00246A
:1024B000004402580000000000000000000000007E
:1024C0002DE9F843002480468946089F099E856BC4
:1024D000846084F31188416BD8F82CC00868D8F860
:1024E00030100968C0F800C0C2604360D8F82830D6
:1024F0000B60CF604E603026FEF7EAFB86F3118852
:10250000AB69190412D5074606E084F3118886F3F7
:102510001188AB691B0409D5FEF7DAFBC01BB0F5C7
:10252000FA7FF2D34FF0FF30BDE8F883D8F80430DB
:10253000D8F8384099680A0547D5D8F83430C4F837
:10254000049018684268FF2A48D812040027666879
:10255000254B33400B430A993B43134363600368A5
:1025600043F00103036008F11C002B6843F04003B3
:102570002B606B6843F400536B6001F0F9FA441C64
:10258000D2D16B68D8F8304043F4804322686B6046
:10259000136823F01F0313601368D907FCD4227B50
:1025A0003D23D8F83410934064680A6823601368A8
:1025B00023F01F0313601368DB07FCD40C7B3D235F
:1025C0004A68A3401360BDE8F8834FEA490363609B
:1025D000D8F8343018684268FF2AB6D94FF47F0221
:1025E0004FF08077B3E700BFFFFF00FE0000000060
:1025F00001F001038A0748BF43F002034A0748BFBE
:1026000043F008030A0748BF43F00403CA0648BF63
:1026100043F010038A06426B48BF43F020031A437D
:10262000426370470000000000000000000000004E
:10263000F8B5302305460F46164683F31188446CDF
:10264000E36BA3B900232365E363E362606B10F4DB
:10265000807008D04FF0FF32A26383F31188012FFE
:102660000CD81846F8BD80F311880120F8BD4FF052
:10267000FF31403001F07CFA6C6CE3E76A6C41F2A8
:102680000C119360D160516B11F04503FBD0936343
:1026900011F0050303D1526918463260F8BD28468F
:1026A000FFF7A6FF0120F8BD0000000000000000B9
:1026B00010B5074C2046FEF7D3FF064B0020064915
:1026C000064AA164E263C4E91003054BE36410BD4C
:1026D000E00E00240070005280F0FA020000043086
:1026E00000020430000000000000000000000000B4
:1026F0000D4BD0E9112110B4994212D90B4BC46A89
:102700000B440B4861681B0AA0FB030301EB131386
:1027100053606420136810BC43F00303136001F09E
:1027200017BAC36A5B68F3E7801A0600FF340C002F
:10273000598B4F0100000000000000000000000065
:102740000129164B816C30B4446C17D0144A65686B
:10275000914203EA05030ED9124AC56A0A44124897
:102760006968A0FB020201EB1262134343F4805339
:10277000636030BC7047C26A5268F6E70B4A65680E
:10278000914203EA0503F6D9094AC56A0A44064894
:102790006968A0FB020201EB5262E6E700ECFFFF72
:1027A00040787D017FF0FA02893BE65580F0FA021D
:1027B000FFE0F50500000000000000000000000040
:1027C0000022436C5A601A60704700BF000000008E
:1027D000426C0129536823F4404307D0022901D0F9
:1027E00011B1704743F400435360704743F4804392
:1027F000536070470000000000000000000000006F
:10280000406C41F480518260C160436B1B06FCD573
:1028100080238363704700BF0000000000000000B9
:1028200010B541F48851446CA260E160616B11F015
:102830004502FBD0A26311F0040203D16169104686
:10284000196010BDFFF7D4FE012010BD000000008C
:1028500010B541F48851446CA260E160616B11F0E5
:102860004502FBD0A26311F0050203D16169104655
:10287000196010BDFFF7BCFE012010BD0000000074
:1028800010B541F49851446CA260E160616B11F0A5
:102890004502FBD0A26311F03F0209D1216A104624
:1028A0001960E2695A60A2699A606269DA6010BDD3
:1028B000FFF79EFE012010BD000000000000000098
:1028C0002DE9F843164698460F4637490546D0E9A4
:1028D00011245368C3F3090301335B00B4FBF3F421
:1028E000A1FB041442F21073A40903FB04F4546224
:1028F000FEF786FE00282ED16C6C012248F4885326
:102900008146A76522654FF0FF32E86CA2634FF461
:102910009572E26342F20702A662E262089AA2603E
:10292000E360616B11F04503FBD011F0050FA36369
:1029300029D162691D4B0260134073B1616B0023A2
:102940004FF001092846A1632365E362FFF750FEBB
:102950004846BDE8F8836C6CF0E7302383F31188B8
:102960006B6CDA6BBAB900221A65DA63DA62596BFA
:1029700011F480710BD04FF0FF31996382F311880D
:102980004846BDE8F8832846FFF732FED6E781F3D4
:1029900011886C6CD2E74FF0FF3105F1400001F077
:1029A000E7F86B6CDFE700BFD34D621008E0FFFD76
:1029B0002DE9F84316469846DFF860C10D4642F20D
:1029C00010710746D0E911245368C3F3090301339A
:1029D0005B00B4FBF3F4ACFB04C4A40901FB04F4F6
:1029E0005462FEF70DFE814610B14846BDE8F883FB
:1029F0007C6C0123A66523654FF0FF33FE6CA36357
:102A00004FF49573E3634FEA4823A3623B6BDB0605
:102A100058BF6D02B8F1010FA56024D941F212131D
:102A2000E360616B11F04503FBD011F0050FA36368
:102A30003FD163693A4D33601D40002D3CD142F2D5
:102A40009303324641463846E362FFF7F1FD002822
:102A5000CBD07C6C3846FE6C616BA1632565E5626A
:102A6000FFF7C6FD30E041F21113E360616B11F036
:102A70004503FBD011F0050FA36339D16369284DDD
:102A800033601D40002D36D142F293033246414659
:102A90003846E362FFF7CCFD03460028A5D07A6CE8
:102AA00038469946516B91631565D562FFF7A0FDD5
:102AB0009BE73846FFF79CFD616B00233846A16316
:102AC0002365E362FFF794FD002241F20C13A2603C
:102AD000E360616B11F04503FBD011F0050FA363B8
:102AE00016D163694FF0010933604846BDE8F883A9
:102AF0003846FFF77DFD616B00234FF00109384632
:102B0000A1632365E362FFF773FD4846BDE8F883E0
:102B100038464FF00109FFF76BFD66E7D34D6210B1
:102B200008E0FFFD000000000000000000000000C1
:102B30002DE9F84316469846DFF860C10D4642F28B
:102B400010710746D0E911245368C3F30903013318
:102B50005B00B4FBF3F4ACFB04C4A40901FB04F474
:102B60005462FEF74DFD814610B14846BDE8F8833A
:102B70007C6C0123A66523654FF0FF33FE6CA363D5
:102B80004FF48D73E3634FEA4823A3623B6BDB068C
:102B900058BF6D02B8F1010FA56024D941F2191395
:102BA000E360616B11F04503FBD011F0050FA363E7
:102BB0003FD163693A4D33601D40002D3CD142F254
:102BC0009103324641463846E362FFF731FD002863
:102BD000CBD07C6C3846FE6C616BA1632565E562E9
:102BE000FFF706FD30E041F21813E360616B11F06E
:102BF0004503FBD011F0050FA36339D16369284D5C
:102C000033601D40002D36D142F2910332464146D9
:102C10003846E362FFF70CFD03460028A5D07A6C26
:102C200038469946516B91631565D562FFF7E0FC14
:102C30009BE73846FFF7DCFC616B00233846A16355
:102C40002365E362FFF7D4FC002241F20C13A2607B
:102C5000E360616B11F04503FBD011F0050FA36336
:102C600016D163694FF0010933604846BDE8F88327
:102C70003846FFF7BDFC616B00234FF00109384671
:102C8000A1632365E362FFF7B3FC4846BDE8F88320
:102C900038464FF00109FFF7ABFC66E7D34D6210F1
:102CA00008E0FFFD00000000000000000000000040
:102CB00012F0030F22D02DE9F0411F46D3B1064692
:102CC00015460C460F4404E0F16BFDF789FEA74260
:102CD00010D021460123F26B3046FFF769FE4FF416
:102CE00000720346013428461544002BECD01846E8
:102CF000BDE8F08100231846BDE8F081FFF758BE1B
:102D000012F0030F1FD02DE9F0411F46C3B1064654
:102D100015460C460F4401E0A74211D04FF4007253
:102D20002946F06B1544FDF75BFE21460123F26B4B
:102D300030460134FFF7FCFE0028EDD0BDE8F081FD
:102D40000020BDE8F081FFF7F3BE00BF00000000E7
:102D5000002070470000000000000000000000009C
:102D6000302310B583F311880024436C4030214692
:102D7000DC6300F00DFF84F3118810BD000000003B
:102D8000124A4FF080430021D2F8E80040F00100E1
:102D900030B4C2F8E80044F61F65D2F810010C4CBC
:102DA00040F00100C2F810010120D2F81021E26BBE
:102DB0000243E2634FF0FF329D62DA629961596328
:102DC000D96059605861186030BC7047004402589F
:102DD0000010005C00000000000000000000000087
:102DE0004FF0804208B51169D3680B40D9B29B07F8
:102DF0006FEA0101116100D408BD302383F311880B
:102E000000F00EFA002383F3118808BD00000000D3
:102E1000024A136843F0C003136070470048004043
:102E200010B50D4C82B02046FEF77AFC04F10C0080
:102E30000023102209490094FDF7D2FF084B10220D
:102E4000084904F130000094FEF76AF8064A074B7F
:102E5000C4E9152302B010BD300F0024900F0024E8
:102E6000112E0008A00F00240048004000E1F505E5
:102E70002DE9F047456D0646EC6922072C6256D1D4
:102E8000E20548D4A00610D54FF03008002788F39B
:102E900011886B6A304696F85C101940FEF750FCBA
:102EA00087F31188EC69A306F1D4D5F800A01AF0D5
:102EB000800F1DD021061BD506F1300830274FF0BA
:102EC000000905E0A86289F31188EC6922060FD594
:102ED00087F311884046FEF76BF80028F2DA0821E4
:102EE000301D00F0CDFF2AF0800A002383F3118803
:102EF0001AF0400F0BD0630609D5302383F31188F5
:102F0000D6E911239A422DD0002383F31188C5F806
:102F100000A0BDE8F087302383F311884FF480616F
:102F2000301D00F0ADFF002383F31188AAE7C4F33E
:102F3000C001E3074FF030034FEA012148BF41F0E1
:102F40002001A70748BF41F04001600748BF41F09A
:102F5000800183F31188301D00F092FF002383F37A
:102F600011888DE7B36B002BCED01021301D2AF0D5
:102F7000400A00F085FFC7E70000000000000000E5
:102F80005C4A40F2FF715C480023DFF870C12DE914
:102F9000F043D2F888404FF05538594D0C43DFF8D4
:102FA00064E1DFF86491C2F88840D2F88840574F56
:102FB0002040574C574EC2F88800D2F88800D2F80B
:102FC000E0000843C2F8E000D2F8080108434FF6D9
:102FD000FF71C2F80801D2F808214F4A6360A5606A
:102FE000E2604E4A616122624D4A4E4862624E4A38
:102FF0004E4D22604E4C4360846004F115644D4A8E
:1030000004F58A2404F29144C4604BF67E74446152
:103010004FF4300403624462474C046047485360F5
:1030200090604748474CD06047485161106240F675
:103030000820536210604FF47022CEF80430CEF8AE
:103040000820CEF80C904FF07709CEF81410CEF887
:103050002030CEF824904FF420293C48CEF8009040
:10306000CCF80430CCF80830CCF80C80CCF8141034
:10307000CCF82030CCF82430CCF800307B60BB603A
:10308000C7F80C8079613B627B623B604FF04C6714
:103090007360B7602E4F2F4AF7604FF6BF777761A6
:1030A0002D4F336277622D4F37600F266B60AE6015
:1030B0002B4EEE6069612B626B622B606360A360D4
:1030C000C4F80C80616123626362236043608360A3
:1030D000C0F80C80416103624362036053609360F7
:1030E000C2F80C805161136253621360BDE8F04373
:1030F000FEF72EBC0044025800F8FFFF00100258F3
:103100003CC0FFFF000C02585555505500140258A2
:10311000000002580018025851550040B00B00B092
:103120000AAA0A00000402582880AEAA001C02580D
:10313000C3C0003C00080258814000180C0F000C6E
:103140005150550100200258B000BB000024025825
:10315000550515510028025800B0B0000010800835
:103160005055555500000000000000000000000010
:103170000120704700000000000000000000000077
:103180000020704700000000000000000000000068
:10319000704700BF000000000000000000000000B9
:1031A00030B587B0114D00230122684604242A70EF
:1031B000C5E9013300F02CFD684600F039FD684692
:1031C00000F03EFD013CF7D1009BAB6000F088FEB3
:1031D00000F0DEFE00F004FF0549064800F070FB39
:1031E00002232B7084F3118807B030BDA01900248E
:1031F000705C0008B00F0024000000000000000018
:1032000008B5044672B600F0B3F80349034B032235
:10321000C1F8E4401A70FEE7B00F0024A0190024A2
:1032200000F096B90000000000000000000000005F
:10323000024AD36B0343D363704700BFB00F00242F
:1032400038B50C4CD4F8EC50FDF742FDD4F8EC3016
:1032500004F50F61084A686050681A6860F31F221D
:1032600043F8102B04F1F0028B4228BF1346C4F838
:10327000EC3038BDB00F0024001000E0000000006A
:1032800002460749002342F8081B426000EB031284
:103290000133117A802B6FF302011172F6D170475E
:1032A000FFFF8000000000000000000000000000A0
:1032B000094BB3F8E820D20700D57047027F10B45D
:1032C000D3F8EC40D30043F00103C4E902012370BA
:1032D00010BCFFF7B5BF00BFB00F00240000000016
:1032E000094BB3F8E820920700D5704710B40A7F65
:1032F000D3F8EC40D300496B43F00203C4E9020168
:10330000237010BCFFF79CBFB00F0024000000002A
:103310000A4AB2F8E83010B513F0040400D010BD2A
:10332000302383F311880321D2F8EC3019709860B0
:10333000FFF786FF84F3118810BD00BFB00F002493
:103340000A4AB2F8E83010B513F0040400D010BDFA
:10335000302383F311880421D2F8EC30197098607F
:10336000FFF76EFF84F3118810BD00BFB00F00247B
:10337000064BB3F8E820120700D57047D3F8EC30BD
:10338000052298601A70FFF75BBF00BFB00F0024E2
:10339000F8B5154D14460E462F6A05F11003E96184
:1033A000BA42C0E9013238BF3C462B69036058601D
:1033B00028610819FDF794FCFDF78AFC821B03467F
:1033C000A24209D22B6A9F4200D8F8BD2F62012089
:1033D000BDE8F840FFF72CBF7C1C301927461E467D
:1033E000FDF78EFCE8E700BFB00F002400000000EE
:1033F0002DE9F843DFF8A49007460E46FDF768FC78
:103400004B46804653F8105F9D423BD0D9F81C4094
:10341000AB68041B341928BF3446A34215D89C421C
:1034200004D92D68E41AAB68A342FAD36B684FF055
:10343000FF32BC60C7E900531F60AB686F601B1BA5
:10344000AB60C9F81820BDE8F883D9F82050AE4227
:1034500038BF2E4608EB0600FDF752FCFDF738FC9E
:10346000A0EB0808464514D9D9F820309D4203D86E
:10347000D9F81050AB68D2E70120C9F82050FFF707
:10348000D7FEF5E7324601463846BDE8F843FFF778
:103490007FBF013580462E46DCE700BFB00F002419
:1034A00003610023C2604361FFF7A2BF0000000078
:1034B000F8B5244C236998420DD00368D0E9012166
:1034C00013605A609A680A4400219A604FF0FF33F3
:1034D0000160A361F8BD02682346002143F8102F64
:1034E0005360016022699A4223D0936881680B443B
:1034F0009360FDF7EDFBE36922690546C11A966802
:103500008E42E7D91E44276A361ABE4238BF3E466D
:10351000A819FDF7F5FBFDF7DBFB451BAE420CD907
:10352000236A9F42D6D927620120BDE8F840FFF701
:103530007FBEBDE8F840FDF7DBBB013705463E46E0
:10354000E6E700BFB00F002400000000000000000C
:103550002DE9F84F3D4E00274FF0300906F11008D5
:1035600009E087F31188D4E903312046984789F3AD
:1035700011886369ABB93469FDF7AAFBF3690546A5
:10358000A268C11A8A422CD89D18D4E90010F561AE
:1035900001604860276033694345E2D1FDF7A8FB2D
:1035A000DFE7FDF795FB6269A0EB050B82465A4504
:1035B00030D3336943453FD099688A4204D91B68A8
:1035C000521A99689142FAD35968A260C4E900314D
:1035D0000C6099685C60891A4FF0FF329960B261A3
:1035E000C9E73169414513D01344376AF0611B1AAA
:1035F000BB42A36038BF3B461C462819FDF780FB41
:10360000FDF766FB451BAC4212D9336A9F4209D8CD
:10361000BDE8F88F0220FFF70BFE3369434513D056
:103620005A46C9E737620120BDE8F84FFFF700BEF0
:10363000013705463C46E0E72A44121A5146204627
:10364000BDE8F84FFFF7A4BE0022F7E7B00F002453
:1036500010B530230C4683F311880B7F0C2B10D848
:10366000DFE803F02A0F0F260B070F0B0F0F0F0FCA
:103670000B004A6B936801339360D4E90032136006
:103680005A604FF0FF3120466163FFF711FE0022C0
:103690002369A16822771B689A688A42FBD25A681C
:1036A00000212360626014605C6081F3118810BDAA
:1036B0004B6B00221A60E4E7002383F3118810BDEE
:1036C00010B50446416BFFF7F3FD00222369A168A2
:1036D00022771B689A688A42FBD25A682046236088
:1036E000626014605C6010BD00000000000000001B
:1036F00038B50A4B01211C68DD682877204622680E
:1037000053601A6021772946DC60FFF7E9FD2946FE
:103710002046BDE83840FCF753BE00BFB00F002480
:10372000F0B54B1C1A4C87B00546E6681DD03346F1
:10373000184A6846FFF7B4FEE76801223D7739462C
:1037400025682B6828465C602A772360E560FFF7D0
:10375000C7FD39462846FCF733FE009B13B1684687
:10376000FFF7A6FE706B07B0F0BD27680122307727
:1037700031463B6838465C603A772360E760FFF784
:10378000AFFD38463146FCF71BFE706B07B0F0BD4D
:10379000B00F0024513600080000000000000000B7
:1037A00070B51B4E05468268F4684163A3689A426F
:1037B0001DD9616B2046FFF77BFD00222369A168BC
:1037C00022771B689A688A42FBD85A6821462846A5
:1037D000C4E90032146001225C602A77F560FFF7CB
:1037E0007FFD21462846BDE87040FCF7E9BDFFF7A4
:1037F0005FFD00222B69A9682A771B689A688A42B4
:10380000FBD25A68C5E9003215605D6070BD00BF2B
:10381000B00F0024000000000000000000000000C5
:10382000044B1A68DB6890689B68984294BF00203C
:1038300001207047B00F00240000000000000000CD
:1038400038B5124B01211D68DC682A682046536098
:103850001A602977616BDD60FFF72AFD002223697A
:10386000A16822771B689A688A42FBD85A68214669
:1038700023602846626014605C60FFF731FD2146DA
:103880002846BDE83840FCF79BBD00BFB00F0024C0
:10389000044B1A68DB6892689B689A4201D9FFF76B
:1038A000CFBF7047B00F00240000000000000000F0
:1038B000FEE700BF00000000000000000000000064
:1038C000F0B52A4B0025044689B085630E46016495
:1038D00000F13007586000F0C3FB04F11003A5604D
:1038E000E563E561C4E904334FF0FF33A3610223CC
:1038F000C4E90C772362C4E90044FDF7E9F9014605
:103900002B4604F1E8000A46C4E90A23C4F8E4504F
:10391000FFF7B6FC736801A904F194000293B36841
:1039200007940393124B01938023CDE9055504932B
:1039300000F026F8626B00F12403E06001A9476201
:103940008262136063630123037704F144000493EC
:10395000084B07940593084C0695D6E90323CDE957
:103960000142039300F06CF809B0F0BDA0190024E7
:10397000845C0008B13800088C5C0008000000007E
:10398000022310B4D1E90142C0E90542CC68838327
:103990008A6984609AB10023C4640124026100F141
:1039A0003C028477096810BCC26301620264C0E90A
:1039B0000B33C0E9113300F1380383637047014AC8
:1039C000E9E700BFB00F0024000000000000000085
:1039D0000223F0B4D1E90142C0E90542CC688383F7
:1039E0008B69846033B3C464012400F13807036138
:1039F00084770C68046200F13C04D1E90465C0E9F5
:103A00000F440021A2F12404C0E90B11C4605C6BD7
:103A10008763C0E9111142E90965074D00F12401EE
:103A200042F8045C03F13002C0E9092421605963C3
:103A3000F0BC7047014BD6E7D1030008B00F00245B
:103A400008B5FFF7C5FFBDE80840FFF739BE00BF66
:103A5000F8B544180221069D04F8441CA4F128017D
:103A600044F84C0CA4F160061F4844F8843C44F828
:103A7000281C01211D4B44F8805C002544F8640C8F
:103A8000A4F1840044F8503CA4F1240304F8421C3F
:103A9000174944F8484C44F8582C04F8435C44F85F
:103AA000540C44F81C5C44F8401C44E9093344E9D4
:103AB0000D5544E90652302383F3118854F8503CE5
:103AC000A4F13C02294630465F6B03F1300C44F808
:103AD000387C44F83CCC3A605A63FFF761FE85F3CA
:103AE00011883046F8BD00BFD1030008B00F002494
:103AF000945C0008000000000000000000000000CE
:103B000038B5302383F31188104BDC6804F1380595
:103B1000A36B60639D4206D1A37F7BB10F20BDE8FC
:103B20003840FFF7E5BD1A681846A263FFF7C8FDE5
:103B3000A36BAB42F7D1A37F002BEFD1E36A002B3D
:103B4000ECD1D4E9093213605A60E7E7B00F0024E2
:103B500008B50146302383F311880820FFF7E0FD04
:103B6000002383F3118808BD00000000000000005E
:103B7000054A0346D26821B1026003205363FFF770
:103B8000CFBD4FF0FF307047B00F002400000000A1
:103B90000346006820B100221A604163FFF790BD20
:103BA000704700BF0000000000000000000000009F
:103BB000C0E90000704700BF0000000000000000E6
:103BC000084AD26851B1034610B44468106004201A
:103BD0005460226010BC5A60FFF7A2BD4FF0FF3066
:103BE000704700BFB00F002400000000000000007C
:103BF00003460068834205D002681A60536041633F
:103C0000FFF75EBD704700BF00000000000000002D
:103C100030B40023002400254FF0FF32C0E90445F2
:103C2000C0E9002330BCC0E9023370470000000047
:103C3000014B5B6883607047001000E000000000EB
:103C40000E4A0F4B81685B6810B4946802691B1BB5
:103C5000C4685B1A41690134D218026141F1000164
:103C6000426841619342026888BF43609342C0E961
:103C7000023438BF036010BC704700BFA019002495
:103C8000001000E000000000000000000000000044
:103C9000C0E90000816070470000000000000000E3
:103CA000302282F311888268013A002A826004DBA4
:103CB0000020002383F311887047094903464268B6
:103CC000052010B5CC686363C4E9003214605C6001
:103CD000FFF70EFD606B002383F3118810BD00BF5A
:103CE000B00F0024000000000000000000000000F1
:103CF000826803460132002A826000DD7047006856
:103D0000002102681A6053604163FFF7D9BC00BF0D
:103D10000023C0E900008360704700BF000000007E
:103D200070B52E4B04468068DD6828B3AA688368A6
:103D3000934206D2037F8260062B36D0072B20D019
:103D40009BB1234603E09968AA68914202D31B689D
:103D50009C42F8D15A6806202B606A6015605D604D
:103D60006C63BDE87040FFF7C3BCD0E9003213605C
:103D70005A60FFF7A5FCE4E7AB6CC4E90253AC64FE
:103D800070BD466BD0E9003213605A60334603E0E1
:103D900099688268914202D31B689E42F8D15A68A2
:103DA000C0E9003210605860CBE7466BD0E90032C2
:103DB00013605A60334603E099688268914202D3E7
:103DC0001B689E42F8D15A680360426010605860D8
:103DD000B068AA6883689342ACD3B2E7B00F0024FE
:103DE00008B5302383F31188FFF79AFF002383F38C
:103DF000118808BD00000000000000000000000065
:103E0000174A302310B5D46883F311880268C36859
:103E10008242A3641DD00146E06C4BB11A68934204
:103E200003D09268904238BF1046DB68002BF5D172
:103E3000A0600868826C03680B605960C1E90202E7
:103E40008164FFF73DFCFFF723FD002383F3118816
:103E500010BD00239360002383F3118810BD00BFC1
:103E6000B00F00240000000000000000000000006F
:103E7000006070470000000000000000000000002B
:103E8000F8B50468A04220D007460D46002604E09D
:103E90000B2A1BD02468A74217D0E3682B43E360AA
:103EA00015B123691D42F5D0D4E90103416C027FAD
:103EB0000B430A2A4364EBD1426B1342EAD04663B8
:103EC000FFF7FEFB2468A742E7D1F8BD426B9A4397
:103ED000E0D1F4E700000000000000000000000056
:103EE000024B0349034AC3E900127047AC1900248E
:103EF000202500240000082400000000000000002D
:103F0000084B494210B45C68201A08401968821AAC
:103F10008A4204D3A24202D810BC5A6070470020E3
:103F200010BC7047AC190024000000000000000025
:103F3000302310B483F311880B4B49425C68201A7C
:103F400008401968821A8A4207D3944205D35A60FE
:103F5000002383F3118810BC70470020002383F3F3
:103F6000118810BC704700BFAC190024000000008D
:103F7000034BD3E900239B1AC0E90023704700BF1D
:103F8000AC19002400000000000000000000000048
:103F900010B5084C084B204640F8043BFFF7E8FFFB
:103FA000002304F11400C4E90333BDE81040FFF717
:103FB000AFBE00BFB4190024313F0008000000006C
:103FC00010B40024C0E90223C0E9004110BC7047CE
:103FD0000022FFF795BF00BF0000000000000000B6
:103FE00038B5124C124D2046FFF792FE04F1100135
:103FF0002B460422216114216018FFF7E1FF04F130
:10400000240004F128012B460422C4E909011C21E3
:1040100004F12C00FFF7D4FF04F13C0104F140024D
:1040200004F14403C4E90F12636438BDD8190024B5
:10403000D13F000800000000000000000000000068
:10404000EFF30983203383F30988002383F3118876
:10405000704700BF000000000000000000000000EA
:104060004FF0300C00B58CF3118862B60E4B4FF652
:10407000FF0E0E49D8680E4A00EA0E0001430D48B3
:10408000D960D3F8FC1041F08071C3F8FC10C2F87D
:10409000B00F2020116841F001011160D87783F83A
:1040A00022C05DF804FB00BF00ED00E00003FA054C
:1040B000001000E055CEACC500000000000000007C
:1040C000302383F311880D4B5B6813F4006302D136
:1040D00083F31188704710B5EFF309844FF08073B4
:1040E000203CE36184F30988FFF79AFB10B1044B8D
:1040F000A36110BD034BA36110BD00BF00ED00E044
:10410000E3030008E60300080000000000000000D0
:104110002DE9F04F83B00C9F01936FB31D4B924676
:104120004FF0000BDFF870901C68DFF870801C4EB9
:1041300020460BF1010B00F0EDFC4946FCF764FA58
:104140000AF1100AFCF726FC414605462046FCF71A
:1041500053F931460446FCF709FC03463146204634
:1041600013B1FCF747F904465F454AE904554AE9AB
:104170000255DDD1074B1C60019B43B14FF48062B7
:104180000021184603B0BDE8F04F01F0B9BB03B001
:10419000BDE8F08F201A0024CBCCCC49A4E96B3DBC
:1041A000DB0FC9400000000000000000000000001C
:1041B00008B5FCF76DFDFEF7F3FF00F0D1FA00F053
:1041C00027FB42F21070FFF7C3FCFAE70000000083
:1041D000F0B587B01A491B480124FCF7B1FF6427EA
:1041E00000230DF11605F0260DF117028DF816309B
:1041F00011212346134800958DF81760CDE901473A
:10420000FCF7AEFFB0B99DF81630792B14D18DF8BC
:10421000160023460DF1170212210A4802978DF865
:104220001760CDE90054FCF79BFF18B99DF81630D4
:10423000792B01D107B0F0BD6FF00100FAE700BFA4
:104240009C5C0008A40E0024000000000000000098
:104250002DE9F047002586B064260427022305AA2D
:104260001121504800954FF00309ADF81470CDE9C5
:104270000156FCF775FF0223044605AA122149489E
:104280000095ADF81470CDE90156FCF769FF804642
:10429000022305AA11214348009544EA0804ADF819
:1042A00014704FF00208CDE90156FCF759FFADF844
:1042B00014700746022305AA12213C4339484FF4E3
:1042C00080770095CDE90156FCF74AFF02230443AD
:1042D00005AA112133480095ADF81470CDE90156B7
:1042E000FCF73EFFADF814700746022305AA122121
:1042F00027432C4844F201140296CDE90055FCF7FF
:104300002FFF0223074305AA112126480095ADF887
:104310001440CDE90156FCF723FFADF814400446E4
:10432000434605AA12213C431E480296CDE900559A
:10433000FCF716FF4346044305AA112119480095CE
:10434000ADF81480CDE90156FCF70AFF0746434655
:1043500005AA2743122113480095ADF81480CDE932
:104360000156FCF7FDFE4346074305AA11210D48FF
:104370000095ADF81490CDE90156FCF7F1FE044626
:10438000434605AA3C43122106480296ADF8149014
:10439000CDE90055FCF7E4FE044305D0204606B005
:1043A000BDE8F087A40E0024FCF792FC0DF1130782
:1043B000A24681460125DFF834826426012305AA3E
:1043C0001121404602968DF813A08DF81450CDE9C6
:1043D0000075FCF7C5FE0446012305AA12214046DC
:1043E000002CDBD19DF913C0BCF1000F80F2F080EE
:1043F00000978DF813408DF81450CDE90156FCF765
:10440000AFFE04460028C9D19DF91330002B80F27D
:10441000DF8044F6050705AA022311210296ADF8B4
:104420001470CDE900007148FCF79AFE05AA054614
:104430000223122102966D48ADF8147040F60477FD
:10444000CDE90044FCF78CFE072305AA0543ADF82F
:1044500014301121022302966448CDE90044FCF790
:104460007FFE42F2081305AA0543ADF8143011216E
:10447000022302965D48CDE90044FCF771FE44F248
:10448000092305AA0543ADF8143011210223029631
:104490005648CDE90044FCF763FE46F20A3305AA0C
:1044A0000543ADF814301121022302964F48CDE99F
:1044B0000044FCF755FE41F2070305AA0543ADF899
:1044C00014301221022302964848CDE90044FCF73B
:1044D00047FE43F2081305AA0543ADF81430122134
:1044E000022302964148CDE90044FCF739FE45F22B
:1044F000092305AA0543ADF81430122102230296C0
:104500003A48CDE90044FCF72BFE47F20A33054355
:1045100005AAADF814301221022302963348CDE9E2
:104520000044FCF71DFE05AA054302231121029653
:104530002E48ADF81470CDE90044FCF711FE80461A
:1045400005AA022345EA0805122102962748ADF87C
:104550001470CDE90044FCF703FE05AA05430223CD
:10456000112102962148ADF81470CDE90044FCF702
:10457000F7FDADF81470074605AA019402233D43E8
:104580000094122102961948FCF7EAFD40EA05075B
:1045900040F20F4505AA0223112102961348ADF8F7
:1045A0001450CDE90044FCF7DBFDADF8145005468E
:1045B000022305AA12213D4302960C48CDE900448E
:1045C000FCF7CEFD40EA0504204606B0BDE8F087C2
:1045D000FCF77EFBA0EB0903C72B03D80A20FFF7EB
:1045E000B7FAEAE64FF0FF34D8E600BFA40E002485
:1045F000704700BF00000000000000000000000045
:10460000704700BF00000000000000000000000034
:1046100070B5114E0125304606F13004FFF7E0FB7E
:104620004FF07E523346002132615A610C33DA601A
:104630001D745974A342F8D1084D094C0FCD0FC415
:104640000FCD0FC40FCD0FC4284650F8403923605A
:10465000BDE87040FFF7D4BB8024002490240024E0
:10466000C42400240000000000000000000000003E
:10467000302310B583F31188114C23788342114BFA
:1046800002D0002220701A701A78114319701A781B
:1046900002F00302032A03D0002383F3118810BD24
:1046A00009490A4A08700A4908700020FF21187059
:1046B000936821708342EFDC1046FFF719FBEBE7AC
:1046C000020000240625002400000024F824002411
:1046D00001000024000000000000000000000000B5
:1046E00011F00D0F10B50C4603D114F0300F06D1A8
:1046F00010BD0748FEF784FD14F0300FF8D084F0A9
:1047000010000221C0F30010BDE81040FFF7B0BF59
:10471000A85C00080000000000000000000000008D
:1047200011F00D0F10B50C4603D114F0300F06D167
:1047300010BD0748FEF764FD14F0300FF8D084F088
:1047400010000121C0F30010BDE81040FFF790BF3A
:10475000A85C00080000000000000000000000004D
:1047600038B51F4D2B7803B138BD01211D48FFF727
:104770008FFA1D48FFF7CCFAFFF74AFFFFF728FD35
:10478000044618B1194B03221A7038BDFFF730FFE9
:10479000FF231749174A0B7013701749174A0C70FB
:1047A000214613704FF48062154801F0A9F84FF4C8
:1047B00000722146134801F0A3F84FF480622146AD
:1047C000114801F09DF84FF4806221460F4801F036
:1047D00097F8FFF71DFF0123044A2B70137038BDB3
:1047E00004250024F8240024802400240525002426
:1047F00000000024010000240625002402000024FB
:10480000200000242004002420060024200A002484
:1048100070B53F4D82B02B78022B0FD03D4A1278F5
:10482000002A67D0032B4FF001005ED0FFF7E8FEAF
:10483000FFF70EFD044618B103232B7002B070BDC4
:10484000FF23354A354E02211370354A1370354A1D
:104850001070354A13700346344AFDF731FC234685
:10486000334C0221334A30600120FDF729FC5721E7
:1048700020603068FDF734FC20685621FDF730FCDD
:104880003168226809682C4812682C4B88604FF404
:104890008070CB6003F5806348602948294C08602C
:1048A000294890608020D36050602848284B1060D1
:1048B000086840F001000860116841F001011160D2
:1048C0005A6A216842F400325A625A6842F400324D
:1048D0005A605A6A42F480325A625A6842F480320C
:1048E0005A6059B1022300202B7002B0BDE870401D
:1048F000FFF786BEFFF734FF2B7893E70091FE2287
:10490000144B4FF424611448FFF7A2F82060E9E744
:104910000525002404250024000000240C25002483
:10492000010000240625002402000024214700087D
:1049300010250024E14600084058014020000024D2
:10494000185502000825002420580140585502003F
:104950000058014061490008401A0024000000008E
:104960002DE9F04F5D4E91B05D49F36893F91D203C
:104970001962002AC0F2A380DFF868815A4D5B4FAC
:1049800008F580693846FFF78BF9302383F31188E7
:104990002B78FF2B00F09680554B1A78FF2A00F0F9
:1049A000918095F800A0FF211A78002029705FFA05
:1049B0008AFAD2B2197080F3118808EB4A2A09EBFF
:1049C00002240AF21F22534622F01F02A2EB0A021F
:1049D000BFF34F8F82420BDD013A0AF120004549B7
:1049E00022F01F020244C1F85C3220339A42FAD10D
:1049F000BFF34F8FBFF36F8F3F4B1B68002B65D00A
:104A000010213E4898473E480DF10C0BFFF7E8F99E
:104A1000DFF8F0C0BCE80F00ABE80F00BCE80F0007
:104A2000ABE80F00BCE80F00ABE80F00604650F8A1
:104A30004039CBF80030FFF7E3F90DF10C0E1023ED
:104A4000DBF800B0DFF8C0C00093BEE80F00ACE8B0
:104A50000F00BEE80F00ACE80F00BEE80F00ACE8A6
:104A60000F002A4B22465046CCF800B0A3F58061D7
:104A7000FFF74EFB04F21F1323F01F031B1BBFF3B2
:104A80004F8F002B0BDD013B04F12000194923F06F
:104A90001F030344C1F8684220349C42FAD1BFF39B
:104AA0004F8FBFF36F8F1A4B1B6813B1102117483C
:104AB0009847F36893F91D30002BBFF663AF11B030
:104AC000BDE8F08F002383F31188F2E719464FF415
:104AD00080620A4800F014FF95E700BFB00F002481
:104AE000B85C00082000002400000024F824002402
:104AF0000100002400ED00E014250024200600241D
:104B00008024002490240024C4240024200A0024AB
:104B1000182500241A4A20F0004393421BDD00B5FB
:104B2000B3F1FF4F83B005DB0146FBF763FC03B035
:104B30005DF804FB694600F061F900F0030001280C
:104B400001990CD0022813D068B1009800F01AF82F
:104B500000F10040EBE70021002200F0D9B80098F6
:104B600000F010F8E3E70098012200F0D1F8DEE74A
:104B70000098012200F0CCF800F10040D7E700BF18
:104B8000D80F493F2DE9F84320F00045B5F1485FC3
:104B9000064688464ADAFBF7FDFE002800F09F80B3
:104BA00031463046FBF730FD4F490446FBF72CFDFC
:104BB0004E49FBF721FC2146FBF726FD4C49FBF74C
:104BC00019FC2146FBF720FD4A49FBF715FC21465D
:104BD000FBF71AFD4849FBF70DFC2146FBF714FDD6
:104BE0004649FBF709FC2146FBF70EFD07464FF04F
:104BF0007C512046FBF708FD3946034620461C46FB
:104C0000FBF702FD414605463046FBF7FDFC014639
:104C10002846FBF7EFFB01462046FBF7EBFB01467E
:104C20004FF07E50FBF7E6FBBDE8F8830146FBF74B
:104C3000EBFC2D490446FBF7E7FC2C49FBF7DCFBBA
:104C40002146FBF7E1FC2A49FBF7D4FB2146FBF7A1
:104C5000DBFC2849FBF7D0FB2146FBF7D5FC2649B6
:104C6000FBF7C8FB2146FBF7CFFC2449FBF7C4FB4D
:104C70002146FBF7C9FC224B9D420746B7DD214B7D
:104C80009D4228DC05F17F454FF07E502946FBF719
:104C9000B1FB81464FF07C512046FBF7B5FC29461D
:104CA000FBF7A8FB3946034620461C46FBF7ACFC45
:104CB000414605463046FBF7A7FC01462846FBF770
:104CC00099FB01462046FBF795FB01464846FBF75A
:104CD00091FBBDE8F883DFF830900C4DDAE74FF038
:104CE0007E50BDE8F88300BF4ED747ADF6740F3154
:104CF0007CF29334010DD037610BB63AABAA2A3D52
:104D00009999993E0000483F0000383F0000903ECE
:104D10002DE9F84320F00043B3F1485F04460E4606
:104D2000904603DAFBF736FE002858D0214620468D
:104D3000FBF76AFC054601462046FBF765FC29495E
:104D400081462846FBF760FC2749FBF753FB2946C1
:104D5000FBF75AFC2549FBF74FFB2946FBF754FCB0
:104D60002349FBF747FB2946FBF74EFC2149FBF79C
:104D700043FB0746B8F1000F22D04FF07C5130467C
:104D8000FBF742FC394680464846FBF73DFC0146AE
:104D90004046FBF72FFB2946FBF736FC3146FBF775
:104DA00029FB154905464846FBF72EFC01462846D7
:104DB000FBF722FB01462046FBF71CFBBDE8F8830E
:104DC00001462846FBF720FC0B49FBF713FB49463D
:104DD000FBF71AFC2146FBF70FFBBDE8F8832046E2
:104DE000BDE8F883D3C92E2F342FD7321BEF3836C6
:104DF000010D50398988083CABAA2A3E2DE9F04FB5
:104E0000AB4A20F00044944289B00D466CDDA94ABB
:104E1000944207461CDC0028A74940F31E81FBF79B
:104E2000E9FAA64B24F00F049C4206466BD0A44935
:104E3000FBF7E0FA014628603046FBF7DBFAA049B1
:104E4000FBF7D8FA01266860304609B0BDE8F08F5C
:104E50009C4A94426CDDB4F1FF4F4DDAE615863E74
:104E6000A4EBC6542046FBF795FDFBF779FB014602
:104E700020460591FBF7BEFA4FF08741FBF7C4FBD4
:104E80008046FBF787FDFBF76BFB04462146404657
:104E90000694FBF7AFFA4FF08741FBF7B5FB002113
:104EA0000790FBF745FD002800F0B8800021204660
:104EB000FBF73EFD002814BF01230223824A019222
:104EC000022200922946324605A800F00FF9002F71
:104ED0000646B9DAD5E9002302F1004203F10043A6
:104EE0002A606B604642AFE7002628600022304609
:104EF0004A6009B0BDE8F08F0146FBF77BFA002657
:104F000068602860A0E77149FBF774FA70490446AD
:104F1000FBF770FA014628602046FBF76BFA6C49F4
:104F2000FBF768FA01266860304609B0BDE8F08FEB
:104F300000F0D8F867498046FBF766FB4FF07C51DC
:104F4000FBF75AFAFBF726FD0646FBF709FB5A4921
:104F50008346FBF759FB01464046FBF74BFA58499D
:104F600082465846FBF750FB1F2E814601465046AD
:104F700020DC721E584B53F8223024F0FF029A4274
:104F800018D0FBF737FA8046C5F8008041465046F6
:104F9000FBF730FA4946FBF72DFA002F6860BFF6A1
:104FA00053AF08F1004800F10040C5F80080686088
:104FB000764249E7FBF71EFAC0F3C753C3EBD4535D
:104FC000082B80464FEAE452DEDD40490392584602
:104FD000FBF71AFB804601465046FBF70BFA0446E6
:104FE00021465046FBF706FA4146FBF703FA3849DB
:104FF00080465846FBF708FB4146FBF7FBF90146A4
:1050000081462046FBF7F6F9039AC0F3C753D21A3C
:10501000192A804604DC2860A246B7E703234DE73F
:105020002E495846FBF7F0FA014680462046FBF72A
:10503000E1F9824651462046FBF7DCF94146FBF791
:10504000D9F9274904465846FBF7DEFA2146FBF713
:10505000D1F981460146504693E7FBF7CDF9174B4E
:1050600024F00F049C4206460ED01549FBF7C4F904
:10507000014628603046FBF7BDF91149FBF7BCF942
:105080004FF0FF366860DFE61049FBF7B5F91049CD
:105090000446FBF7B1F9014628602046FBF7AAF960
:1050A0000B49FBF7A9F94FF0FF366860CCE600BF6B
:1050B000D80F493FE3CB1640800FC93FD00FC93FFF
:1050C00043443537800F4943485D00080044353775
:1050D00008A3852E84F9223FC85C000800A3852E12
:1050E00032318D2420F00040704700BF2DE9F04F91
:1050F000DDB01C4606930991A64B66990B9253F8B6
:1051000021300393111D04F1FF3305460193C0F2D2
:10511000EC82D31E48BF131DDB1005930133DB0067
:105120000A93DDE90A239B1A0493059A019BD61A78
:10513000039A12EB030818D408F10108DDF89C91DA
:10514000B044002420AF08E059F82600FBF708FA25
:105150000136464547F8040B07D0002EF4DA013635
:105160002046464547F8040BF7D1039B002BC0F2BD
:105170001183069B019E20AA02EB83079A000092EE
:10518000039A291F02910DF5907802EB030901EBB8
:105190008305019B002BB8BF002410DBDDF808A0BD
:1051A000BB4600245BF8041D5AF8040FFBF72CFAE9
:1051B00001462046FBF720F9AA450446F2D1013604
:1051C0004E4548F8044B07F10407E2D1029B009DCD
:1051D000039A1D440CAB03EB8203043B07930CAB17
:1051E00003EB8203089390465CAB03EB8803B8F1B2
:1051F000000F53F850AC4FEA880921DD48AF07EBA8
:1052000088040CAE4FF06E515046FBF7FDF9FBF7EA
:10521000C1FBFBF7A5F94FF087418346FBF7F4F993
:1052200001465046FBF7E6F8FBF7B4FB54F8041DC3
:1052300046F8040B5846FBF7DFF8BC428246E1D142
:10524000049E5046314600F0C1FA4FF078510446B2
:10525000FBF7DAF900F012FB4FF08241FBF7D4F9CB
:1052600001462046FBF7C6F80446FBF793FB82464F
:10527000FBF776F901462046FBF7BCF8002E044602
:10528000314640F3898008F1FF360CAAC1F10803CA
:1052900052F8262042FA03F000FA03F3D21AC1F1C1
:1052A00007010CAB42FA01F7002F43F82620824495
:1052B0007CDC00212046FBF73BFB002800F0D3807C
:1052C000039B08F1FF34A34208F1804010DC0CABD3
:1052D000DDF820C04FEA880603EB8803002253F86C
:1052E000041D634542EA0102F9D1002A40F0118110
:1052F000039B0CAA013B52F82330002B40F00581A0
:10530000079B012653F8042D0136002AFAD008EB3A
:105310000603009308F10107059A02EB0709069AB4
:105320006FF0404399441344679A434402EB890960
:1053300020AA02EB830848AB03EB800A59F8040F5C
:10534000FBF70EF9019B48F8040F002B19DBDDF881
:1053500008B04446002601E054F8040D5BF8041F31
:10536000FBF752F901463046FBF746F8AB450646D7
:10537000F2D1009B4AF8046F01379F42DEDD984668
:1053800032E7009B013700269F424AF8046FD5DDC3
:10539000F5E700BF8C60000840F09F8008F1FF3304
:1053A0000CAA52F82370FF11002F82DDB8F1000F14
:1053B0000AF1010A40F39E810C9E002E40F0858088
:1053C000B8F1010F20D00CAB012253F8046F002E6E
:1053D0007ED0531C0CA9C6F58076984541F8226012
:1053E00011DD09F130020DEB02010CAA0CA852F8F4
:1053F000232000EB830300E01A68C2F1FF0243F8A8
:10540000042B8B42F8D10126049B002B0EDD012BCF
:1054100000F06081022B09D108F1FF320CAB0CA91E
:1054200053F8223003F03F0341F82230022F7FF47B
:1054300040AF21464FF07E50FAF7DCFF0446002EC5
:105440003FF437AF04994FF07E5000F0BFF90146AA
:105450002046FAF7CFFF044600212046FBF768FA02
:1054600000287FF42DAFDDE90A322046991A009713
:1054700000F0ACF94FF087410446FBF777FA0028BB
:1054800000F06481049B4FF06E5108332046049372
:10549000FBF7BAF8FBF77EFAFBF762F84FF08741AB
:1054A0000546FBF7B1F801462046FAF7A3FFFBF7E4
:1054B00071FA0CAB08F1010443F828002846FBF709
:1054C00069FA0CAB43F8240036E00123002281E79F
:1054D000013242457FF479AF96E74FF07C51FBF7FC
:1054E00045FA074600283FF4E4AEB8F1000F0AF190
:1054F000010AC8BF02273FF75FAF21464FF07E5039
:10550000FAF778FF02270446D3E608F1010700976F
:1055100002E7049B0097A3F108020CAB049253F836
:1055200024304BB9331F0CA90B4453F8041D013C24
:10553000083A0029F9D0049204994FF07E5000F007
:1055400045F9002C0746C0F22B81631C9A0001929A
:105550000CAA02EB830848AA02934FF06E5602EBA6
:10556000830558F8040DFAF7FBFF3946FBF74CF8B2
:10557000314645F8040D3846FBF746F80CAB984524
:105580000746EED1019BDDF80C90CDF810A0083B4A
:1055900048AA02EB03080027A346B9F1000FB8BFE1
:1055A000002515DB874C8848C2460025002603E00D
:1055B000B7420DDB54F8040F5AF8041FFBF724F828
:1055C00001462846FAF718FF0136B1450546EFDADD
:1055D0005CAB03EB87035F4543F8A05CA8F10408CC
:1055E0004FEA870607F1010301D01F46D5E7669B06
:1055F000DDF810A0022B5C4617DC002B7CDC0FD101
:10560000019C34AD2C44002054F8041DFAF7F4FE3C
:10561000A542F9D1009B0BB100F10040099B186035
:105620000AF007005DB0BDE8F08F669B032BF7D151
:10563000002C00F0C28034AF07EB060858F804BC19
:1056400028465946FAF7D8FEA9460546294658463F
:10565000FAF7D0FE4946FAF7CFFEC8F8000048F83E
:10566000045D4745EAD1012C40F3A78006F5B873E5
:105670006B44BD1953F8A04C0DF1D40855F804BC87
:1056800020465946FAF7B8FEA14604462146584638
:10569000FAF7B0FE4946FAF7AFFE286045F8044D28
:1056A000A845EBD1341D3C440020083754F8041DB4
:1056B000FAF7A2FEA742F9D1009B002B4ED109991F
:1056C000349A359B88600AF007000A604B605DB031
:1056D000BDE8F08F08F1FF320CAB0CA953F8223073
:1056E00003F07F0341F82230A0E608230A93002349
:1056F000059316E5002687E6029B34AD05EB83068D
:10570000002056F8041DFAF777FEB542F9D1009B48
:10571000002B34D1099B014618603498FAF76AFED1
:10572000002C0CDD34AE012556F8041F0135FAF7C4
:1057300063FEAC42F8DA009B0BB100F10040099B1C
:1057400058600AF007005DB0BDE8F08F2046FBF717
:1057500021F90CAB444643F82800EDE6DDE934239B
:10576000099900F1004002F1004203F10043886012
:105770000AF007000A604B605DB0BDE8F08F099A3F
:1057800000F10043014613603498FAF733FE002C11
:10579000C8DCD2E72B1F0293069B9B00009315E504
:1057A000669B022B05DC002B09DC7FF439AF00205F
:1057B00030E7669B032B7FF433AF00207CE70020AB
:1057C000A5E700BF606000080000C93F10B50C46A7
:1057D00030F0004103461DD0B1F1FF4F1BD210F055
:1057E000FF4F02461BD14FF09841FAF70DFF204AB8
:1057F000944203462CDBC0F3C75102464CF25030B2
:105800008442A1F1190110DD1A49184661F31E0006
:10581000FAF7FAFE10BD0146FAF7EEFD10BD4CF2A4
:10582000503084424FEAD151EEDC2144FE29EBDCBA
:10583000002911DC11F1160F13DB01F1190022F020
:10584000FF424FF04C5142EAC050FAF7DDFE10BD66
:105850000949FAF7D9FE10BD22F0FF4242EAC150D1
:1058600010BD0549184661F31E00FAF7CDFE10BDC4
:10587000B03CFFFFCAF249716042A20D2DE9F04130
:10588000C0F3C7557F3D162D044620F0004725DCA8
:10589000002D804614DB174F2F4138421BD016498C
:1058A000FAF7AAFD0021FBF76BF8A0B1002C03DA90
:1058B0004FF400032B41984428EA0700BDE8F0812B
:1058C0000D49FAF799FD0021FBF75AF818B1002CA1
:1058D0000CDB002000E02046BDE8F081B7F1FF4F6F
:1058E000F9D30146FAF788FDBDE8F081002FF2D028
:1058F0000248F1E7FFFF7F00CAF24971000080BF54
:10590000830730B548D0541E002A3FD0CAB20346A0
:1059100001E0013C3AD303F8012B9D07F9D1032C98
:105920002DD9CDB245EA05250F2C45EA054536D9D6
:10593000A4F1100222F00F0C03F1200EE6444FEA0E
:10594000121C03F1100242E9045542E902551032DB
:105950007245F8D10CF1010214F00C0F03EB0212A6
:1059600004F00F0C13D0ACF1040323F00303043351
:10597000134442F8045B9342FBD10CF003042CB1B6
:10598000C9B21C4403F8011B9C42FBD130BD6446E4
:105990001346002CF4D1F9E703461446BFE71A4634
:0459A000A446E0E752
:1059A4009C6E00081C2500241C2500241C250024B2
:1059B4009C6E000800000030000000300000003041
:1059C4009C6E000800000030000000300000003031
:1059D4009C6E000804020430040204300402043003
:1059E4009C6E0008000000380000003800000038F9
:1059F4009C6E000800080020000800200008002019
:105A04009C6E000800000000000000000000000080
:105A14009C6E000800008038000080380000803848
:105A2400000000007131000881310008E112000813
:105A3400A112000821120008511200088112000866
:105A4400B111000800000000B1160008911600080A
:105A5400F1160008D1160008E1160008C116000866
:105A6400A116000881160008011700085665637422
:105A74006F72423000000000566563746F724443D5
:105A840000000000566563746F723130340000000A
:105A9400566563746F72313538000000566563745F
:105AA4006F72313534000000566563746F7238309C
:105AB40000000000566563746F72374300000000F5
:105AC400566563746F72373800000000566563745E
