:020000040800F2
:1000000000040020B9030008BB030008BB0300087C
:10001000BB030008BB030008BB030008BB030008C8
:10002000BB030008BB030008BB03000851540008D1
:10003000BB030008BB030008BB030008BB030008A8
:10004000BB030008BB030008BB030008BB03000898
:10005000BB030008BB030008BB030008BB03000888
:10006000BB030008BB030008BB030008F11F000826
:100070003120000871200008B1200008F12000089C
:100080003121000871210008411C0008BB03000851
:10009000BB030008BB030008BB030008BB03000848
:1000A000BB030008BB030008BB030008BB03000838
:1000B000F1160008BB030008BB030008BB030008DF
:1000C000BB030008BB030008BB030008B13A0008EB
:1000D000213B0008BB030008BB030008C116000851
:1000E000BB030008BB030008BB030008BB030008F8
:1000F000BB030008BB030008BB030008B1210008D4
:10010000BB03000891160008BB030008913B0008E0
:10011000BB030008BB030008BB030008BB030008C7
:10012000F12100083122000871220008B1220008E4
:10013000F1220008BB030008BB030008BB03000852
:10014000BB030008BB030008BB030008BB03000897
:100150003123000871230008B1230008BB03000805
:10016000BB030008BB030008BB030008BB03000877
:10017000BB030008BB030008BB030008BB03000867
:10018000BB030008BB030008BB030008BB03000857
:10019000BB030008013C0008713C0008BB030008D9
:1001A000BB030008BB030008BB030008BB03000837
:1001B000BB030008BB030008BB030008BB03000827
:1001C000BB030008BB030008BB030008BB03000817
:1001D000BB030008B12B0008BB030008BB030008E9
:1001E000BB030008BB030008BB030008BB030008F7
:1001F000BB030008BB030008BB030008BB030008E7
:10020000BB030008BB030008BB030008BB030008D6
:10021000BB030008BB030008BB030008BB030008C6
:10022000BB030008BB030008BB030008BB030008B6
:10023000BB030008BB030008BB030008711C0008D7
:10024000BB030008A11C0008E11C0008211D0008D8
:10025000611D0008A11D0008E11D0008211E000805
:10026000611E0008BB030008BB030008BB030008B5
:10027000BB030008BB030008BB030008BB03000866
:10028000BB030008BB030008BB030008BB03000856
:10029000BB030008BB030008BB030008BB03000846
:1002A000BB030008BB030008BB030008BB03000836
:1002B000BB030008BB030008BB030008BB03000826
:1002C000BB030008BB030008BB030008BB03000816
:1002D000BB030008BB030008BB030008BB03000806
:1002E00072B6264880F30888254880F30988254897
:1002F00025490860022080F31488BFF36F8F00F057
:100300000FF904F075F84FF0553020491B4A91421F
:100310003CBF41F8040BFAE71D49194A91423CBF22
:1003200041F8040BFAE71B491B4A1C4B9A423EBF9B
:1003300051F8040B42F8040BF8E700201849194A59
:1003400091423CBF41F8040BFAE700F039F900F0A4
:1003500027F9154C154DAC4203DA54F8041B8847B5
:10036000F9E705F0DDF8124C124DAC4203DA54F80F
:10037000041B8847F9E700F01BB9000000040020C7
:10038000000800200000000808ED00E00000002048
:100390000004002054620008000000240000002433
:1003A000000000242C150024E0020008E0020008F0
:1003B000E0020008E002000892E700F000F8FEE723
:1003C0002DE9F04FC1F80CD0D0F80CD0BDE8F08F7B
:1003D000002383F311882846A047002004F0F0FD95
:1003E000FEE704F0A5FC00DFFEE70000844641EADA
:1003F000000313F003036DD1403A41D351F8043B9D
:1004000040F8043B51F8043B40F8043B51F8043BEE
:1004100040F8043B51F8043B40F8043B51F8043BDE
:1004200040F8043B51F8043B40F8043B51F8043BCE
:1004300040F8043B51F8043B40F8043B51F8043BBE
:1004400040F8043B51F8043B40F8043B51F8043BAE
:1004500040F8043B51F8043B40F8043B51F8043B9E
:1004600040F8043B51F8043B40F8043B51F8043B8E
:1004700040F8043B51F8043B40F8043B403ABDD2FD
:10048000303211D351F8043B40F8043B51F8043B9F
:1004900040F8043B51F8043B40F8043B51F8043B5E
:1004A00040F8043B103AEDD20C3205D351F8043B2E
:1004B00040F8043B043AF9D2043208D0D2071CBFFA
:1004C00011F8013B00F8013B01D30B880380604623
:1004D000704700BF082A13D38B078DD010F0030399
:1004E0008AD0C3F10403D21ADB071CBF11F8013B09
:1004F00000F8013B80D331F8023B20F8023B7BE758
:10050000043AD9D3013A11F8013B00F8013BF9D282
:100510000B7803704B7843708B788370604670471C
:1005200010B5BFF34F8FBFF36F8F1C480022C0F888
:100530005022BFF34F8FBFF36F8F436943F40033F3
:100540004361BFF34F8FBFF36F8FC0F88420BFF3B9
:100550004F8FD0F8803043F6E074C3F34E3CC3F3C2
:10056000C90E4FEA4C1C0CEA0401734641EA83723F
:10057000013BC0F860225A1CF8D1ACF1200C1CF1F0
:10058000200FF0D1BFF34F8F436943F480334361B1
:10059000BFF34F8FBFF36F8F10BD00BF00ED00E0C2
:1005A000704700BF000000000000000000000000D5
:1005B000FEE700BF00000000000000000000000097
:1005C000F8B5154D154F164905F170041548164A32
:1005D00081420DD9043A034652F8046F43F8046B84
:1005E0009942F9D84B1E1B1A23F003030433184415
:1005F000874207D9013F00213F1A27F00302043246
:1006000005F05EFAA54205D0D5E90420D5E9061724
:100610001035DDE7F8BD00BF645B00082C15002431
:100620002C1500242C150024546200080000000042
:1006300008B501F085F801F0D3FF00F031FA00F0C1
:10064000C7FC00F065FC00F0FBFC00F029FD03F0A6
:10065000F7FFBDE8084000F003B800BF000000004D
:1006600003F0C6BD00000000000000000000000014
:100670004FF08043586A70470000000000000000FF
:100680004FF080430021022258631961DA607047FD
:100690004FF080430022DA60704700BF0000000086
:1006A0004FF08043586370470000000000000000D6
:1006B000F8B51546826804460B46AA4200D2856802
:1006C000A1692669761AB54218D30AD82A4618466F
:1006D000FFF78CFEE268A3682846A2615B1BA3605B
:1006E000F8BDAF1B32461846FFF780FE3A4630444D
:1006F000E168FFF77BFEE2683A44ECE72A461846D9
:10070000FFF774FEA2692A44E5E700BF000000007D
:10071000836893422DE9F04104460F4612D2856862
:10072000D4E90460361AB54212D318D82A4639469D
:10073000FFF75CFEE268A368284662615B1BA3606A
:10074000BDE8F081D4E904601546361AB542ECD212
:100750002A463946FFF74AFE62692A44EBE7A5EBD1
:10076000060832463946FFF741FE4246B919E068AD
:10077000FFF73CFEE2684244DDE700BF00000000F6
:1007800010B40A440024C361019B8460C16010BCA2
:1007900002610362C0E90000C0E90511704700BFB3
:1007A000D0E90532934211D0826810B501325C1C49
:1007B000826044611970D0E904329A4201D3C3685F
:1007C0004361002104F074FC002010BD8268002AFF
:1007D000EAD04FF0FF30704700000000000000003A
:1007E00070B5302305460E4683F3118803E004F00C
:1007F00047FC002819DBAC6831462846002CF6D0AF
:10080000AB68A969013B4A1CAB602B69AA619A429B
:100810000C7801D3EB68AB61EB690BB128469847C4
:10082000002383F31188204670BD84F3118870BDC6
:100830002DE9F04F83B09A46C6693027019287F3BD
:100840001188CAB183460D46DDF804904FF00008C8
:100850004A4629465846FFF72BFF0446584694B1AE
:1008600006B1B04788F31188A9EB0409254487F342
:100870001188B9F1000FEBD10198002383F311889F
:1008800003B0BDE8F08F514604F0FAFB0028DFD03A
:10089000019BA3EB0900002383F3118803B0BDE89B
:1008A000F08F00BF0000000000000000000000000A
:1008B00010B4C3618C18019B0461826010BCC160DC
:1008C0000362C0E90000C0E90511704700000000A4
:1008D000F8B5302304460F46164683F3118803E02B
:1008E00004F0CEFB002819DBA56831462046002D18
:1008F000F6D06269A368511C013B6161A360177067
:10090000D4E904329A4201D3E3686361E3690BB12D
:1009100020469847002080F31188F8BD85F31188A0
:10092000F8BD00BF00000000000000000000000053
:10093000D0E905239A4210D08268591C013210B5C3
:10094000816182601C780369994201D3C368836125
:10095000002104F0ADFB204610BD8268002AEBD0D8
:100960004FF0FF30704700BF0000000000000000A3
:100970002DE9F04F83B09A46C6693027019287F37C
:100980001188CAB183460D46DDF804904FF0000887
:100990004A4629465846FFF7BBFE0446584694B1DE
:1009A00006B1B04788F31188A9EB0409254487F301
:1009B0001188B9F1000FEBD10198002383F311885E
:1009C00003B0BDE8F08F514604F05AFB0028DFD099
:1009D000019BA3EB0900002383F3118803B0BDE85A
:1009E000F08F00BF000000000000000000000000C9
:1009F00001F01F0C012349090CF1010CB1EB521F4E
:100A000003FA0CF310B503F1FF334FEA521402F06E
:100A10001F0E05D850F82400184020FA0EF010BD23
:100A200050F8211050F8242003EA0100CEF12001F3
:100A300022FA0EF38840184310BD00BF00000000EA
:100A4000C3689B0F08D08368C288180400F47C1028
:100A50001043013080027047826840F6FC734168A1
:100A600003EA8200C2F30342C1F3C23340EA917049
:100A7000093A02330130984090407047000000006E
:100A800090F8D63090F8D7101B0490F8D42090F846
:100A9000D50003EB0163134403EB0020704700BF54
:100AA00000F0C6BF000000000000000000000000D1
:100AB00003460022012118305A611970C3E901224E
:100AC000C3E9032204F044BB000000000000000062
:100AD0000379052B06D1826A4FF400730020C1E927
:100AE0000032704701207047000000000000000045
:100AF00003F1FF3C10B58C44D0F828E00446F445DF
:100B000005D9436B012043F08003636310BD4FF0B0
:100B1000060C80F804C002F02BFD0523237110BDE4
:100B200003F1FF3C10B58C44D0F828E00446F445AE
:100B300005D9436B012043F08003636310BD4FF080
:100B4000070C80F804C002F043FD0523237110BD9B
:100B500038B50579052D01D0012038BD082304469C
:100B6000037102F065FD257138BD00BF0000000073
:100B700003232DE9F041037184B0044602F0B8FB71
:100B800000222046114602F02BFC03AB4FF4D57235
:100B90000821204602F04CFCE8B9039B0122C3F374
:100BA00003232263934209D02046012502F0F8FB7B
:100BB00002232846237104B0BDE8F081024603AB4E
:100BC0003721204602F034FC0028EDD1039AA24BD5
:100BD00013408BB1E8E703AB00223721204602F037
:100BE00027FC002835D1039B9B4A1A408ABB11463B
:100BF0002046226302F0F4FB236B03F00F03022B69
:100C000029D0964F6425964ADFF84C82012B18BFF5
:100C1000174610E0039E16EA080FC5D102F0F0FB5C
:100C200003466420002BBFD1039B002B28DB013D32
:100C3000BAD004F0F5F903AB00223721204602F0C8
:100C4000F7FB064603AB3A4629212046002EE1D0A9
:100C5000AAE7022323636425824E06E0039B002B50
:100C60000EDB013DA0D004F0DBF903AB32460121DD
:100C7000204602F0C5FB03466420002BEED093E72C
:100C80005A0003D5236B43F01003236304F10803D8
:100C900000220221204602F0E3FB002884D1024614
:100CA00004F138030321204602F0C2FB00287FF440
:100CB0007BAF04F11806A26B09212046334602F0EF
:100CC000CFFB00287FF470AF02ABA26B0721204658
:100CD00002F0AEFB054600287FF466AF236B03F0FD
:100CE0000F03022B5DD07E227F213046E76BFFF79A
:100CF0007FFE70B10623402239462046009502F05F
:100D0000CFFB00287FF450AFBB895BBA9B0700F193
:100D10008D800021204602F00BFB236B03F00F03B4
:100D2000022B6BD03046FFF78BFEA06202AB4FF474
:100D300000721021204602F07BFB054600287FF45C
:100D400033AF029B444E33427FF42EAF236B13F03C
:100D50000E0F03F00F0233D1E36A1978F9B10129BC
:100D60007FF422AF204602F023FB03ABA26B3721B6
:100D7000204602F05DFB00287FF416AF039B334250
:100D80007FF412AF03AB02220621204602F050FB93
:100D900000287FF409AF039B33427FF405AF05239E
:100DA00007E703AB304A0621204602F041FB00284A
:100DB000AFD1039B28491940B1FA81F14909A9E74C
:100DC000022A7FF4F1AEE36A1978012942D00229A0
:100DD0003ED00029E3D0254E204602F0E9FA03ABCD
:100DE00032460621204602F023FB00287FF4DCAEC9
:100DF000039A194B1340002BD1D0D5E67E227F21D8
:100E00003046FFF7F5FD01288CD9E56B00234FF440
:100E10000072204600932946082302F041FB002877
:100E20007FF4C2AE2846FFF72BFE7EE7104B402230
:100E3000394620460093062302F032FB00287FF457
:100E4000B3AE397C01F00F010F3918BF012161E702
:100E5000084EC1E7084EBFE708E0FFFD0080FF50E5
:100E6000000010800080FFC00001B9030000B7033C
:100E7000F1FFFF800002B7030001B703000000008C
:100E800030B5104D83B0044603E0022A16D804F0B2
:100E9000C7F801ABA26B0D21204602F0C9FA034648
:100EA0000A2043B9019AC2F343212A42A1F1050263
:100EB00004D10429E9D1184603B030BD01231846F6
:100EC00003B030BD08E0FFFD00000000000000009E
:100ED00038B5302383F311880379022B0FD0042215
:100EE00004460023027183F31188FFF7C9FF05460A
:100EF000204602F055FA02232846237138BD00250A
:100F000085F31188284638BD00000000000000006D
:100F100002F0D6B900000000000000000000000050
:100F2000002304490122016002714363C0E90A33CE
:100F3000704700BFE45B00080000000000000000F4
:100F40000C30FFF775BC00BF00000000000000007F
:100F50004FF0FF330C30FFF76BBC00BF0000000008
:100F60003030FFF705BD00BF0000000000000000AA
:100F70004FF0FF333030FFF7FBBC00BF0000000034
:100F80000C30FFF72DBC00BF000000000000000087
:100F90004FF0FF310C30FFF723BC00BF0000000012
:100FA0003030FFF795BC00BF0000000000000000DB
:100FB0004FF0FF323030FFF78BBC00BF0000000065
:100FC000012914BF6FF013000020704700000000DB
:100FD00003F05EB900000000000000000000000007
:100FE00003460349012243F8041B02724360704721
:100FF000085C000800000000000000000000000085
:1010000038B5436904460D463BB1294604F10C004E
:10101000FFF7C6FB00280BDB38BD0421084404F0B1
:101020004FF9294604F10C00FFF7BAFB0028F3DA68
:10103000201D4FF40061BDE8384004F041B900BF05
:1010400002F04EBE000000000000000000000000A2
:101050000346002201210C301970C3E9012204F07B
:1010600077B800BF00000000000000000000000092
:1010700010B53023044683F31188416002F0A8FEC6
:101080000023984214BF01220222227083F31188A8
:1010900010BD00BF000000000000000000000000C4
:1010A00001F04EBB00000000000000000000000046
:1010B00001234022002110B5044600F8303B04F023
:1010C000FFFC0023C4E9013310BD00BF0000000095
:1010D00070B5022300250446242203702946C0F877
:1010E00088500C3040F8045C04F0EAFC204684F898
:1010F000705001F035FB63681B6823B12946204618
:10110000BDE87040184770BD0000000000000000FE
:10111000027805214368017080F88C201B6810B5A7
:1011200004460BB1042198470023A36010BD00BF03
:1011300090F88C104268017013680BB105211847B4
:10114000704700BF00000000000000000000000029
:1011500070B590F87030044613B1002380F87030F9
:1011600004F18002204601F09BFB63689B6853B347
:101170002046984738B3A56F94F88030B4F886209D
:10118000AA422CBF2A46A267190600F1DA80002A7B
:1011900000F08D801522302384F8702083F31188AD
:1011A00062892046E36842F001029B696281D4E9CA
:1011B0001D51002419609D6021465C6001F080FB98
:1011C00084F3118870BD94F8803013F060061846DF
:1011D0001CD194F8812003F07F0545EA022540F2F6
:1011E0000232954200F0518140D8B5F5807F00F081
:1011F00008811DD9B5F5817F00F01281B5F5407FDA
:1012000004D194F88230012B00F0D38000212046D5
:1012100001F0B6FE0021204601F0A2FE63681B68C3
:1012200013B1062120469847062384F8703070BD1C
:10123000012D61D0022D51D194F98430204694F8CB
:101240008410002B01F00F01C0F2AC8001F008FB0C
:10125000012800F0AC800228D8D19A49022300224C
:10126000C4E91D13E26794F8803087E7B5F5006F95
:1012700000F0038147D9B5F5106F39D12378042BDD
:1012800000F0A18094F882304BB10421626884F8A8
:101290008B302170136813B1022120469847002338
:1012A00094F88000C4E91D33E367030663D40B227E
:1012B000302384F8702083F3118822890025E368A5
:1012C000204642F0010229465B6922819D60C3E904
:1012D000005501F08DFB85F3118870BD002D95D16F
:1012E000022204F18801E56761671546A26745E7B8
:1012F00040F60242954289D1022573490022C4E991
:101300001D15E2673AE7B5F5A06F00F09F80A5F5DF
:10131000C065012D3FF67AAF61682046B4F884308D
:101320004D6894F8822094F88310A84700283FF471
:101330006DAF94F88030D0E90052E667C4E91D250E
:101340001CE7C2B10922302384F8702083F311888E
:1013500022892046E36842F001025B692281D4E9D8
:101360001D51002419609D6021465C6001F040FB26
:1013700084F3118870BD1422302384F8702083F325
:10138000118862890025E368204642F0010229465F
:101390009B6962819D60C3E9005501F091FA85F374
:1013A000118870BD01F06CFA01287FF454AF4749F1
:1013B00054E7B4F88830E66743F00203C4E91D66D9
:1013C000A4F8883071E7302383F31188A3682022C2
:1013D000314604F1100003F00113A36004F070FB28
:1013E000204601F035FA86F311880321636884F8FA
:1013F0008B6021701B68002B3FF444AF2046984758
:1014000040E794F88230012B7FF400AFB4F88830C5
:10141000E66723F00203C4E91D66A4F8883044E7B8
:1014200094F88230002B7FF4F1AE94F8843013F0FE
:101430000F0106D01E06204639D401F0B1FD94F804
:1014400080000023C4E91D33E3672EE7B4F8803041
:10145000B3F5A06FF5D194F88230204684F88A3035
:1014600001F0E6F963681B6813B101212046984733
:10147000032394F880002370E3E7012204F18B0139
:10148000E6671546C4E91D1278E694F88230002B11
:101490007FF4BCAE94F8843013F00F01D1D01D0658
:1014A000204609D401F05CFD94F88000C9E701F002
:1014B00087FD94F88000C4E701F062FD94F8800095
:1014C000BFE700BF305C0008385C0008345C0008EF
:1014D00038B590F870300446152B27D8DFE803F0B4
:1014E0002726262626262726260B103826262626B9
:1014F000262626262727856FB0F886309D422ED3D4
:101500001422302384F8702083F311886289002527
:10151000E368204642F0010229469B6962819D6092
:10152000C3E9005501F0CCF985F3118838BD0021DD
:1015300001F026FD0021204601F012FD63681B68C2
:1015400013B1062120469847062384F8703038BD31
:10155000C36F03B19847002384F8703038BDC36867
:101560001B8AB5FBF3F203FB1255002DC8D13023C3
:1015700083F3118802892946C36842F001025B693E
:1015800002819D60C3E9005501F032FA85F31188AC
:101590000A2384F8703038BD00000000000000000D
:1015A00038B590F870300446152B21D8DFE803F0E9
:1015B0002120202020202120202121212020202026
:1015C00020202020320B0B22302380F8702083F360
:1015D000118802890025C36842F0010229465B692F
:1015E00002819D60C3E9005501F002FA85F311887C
:1015F00038BD002101F0C4FC0021204601F0B0FC00
:1016000063681B6813B1062120469847062384F8B7
:10161000703038BDC3689B695B68002BE8D1C36F2D
:1016200003B19847002384F8703038BD00000000F3
:101630000A4A09014FEA501C0123C9B200B500F063
:101640001F0E104403FA0EF380F8001302EB8C0116
:10165000C1F8803142F82C305DF804FB00E100E075
:1016600000F01F0C0122084B002102FA0CF24FEA95
:10167000501C184403EB8C03C3F88020C3F880216E
:1016800080F80013704700BF00E100E00000000098
:1016900010B5074C204603F0A3F8064801F0D0FF30
:1016A000204603F0B5F8BDE8104003F011BF00BFBD
:1016B000545C0008EC010024000000000000000061
:1016C00010B5074C204603F08BF8064802F008FEE0
:1016D000204603F09DF8BDE8104003F0F9BE00BFBE
:1016E000485C0008680300240000000000000000BF
:1016F00010B5064C204603F073F802F0A9FD204611
:1017000003F086F8BDE8104003F0E2BE3C5C000840
:1017100008B509217A20FFF78BFF09213120FFF757
:1017200087FF07211C20FFF783FF0C212720BDE83E
:101730000840FFF77DBF00BF000000000000000070
:1017400038B54FF0FF324C4B00244C48D3F8801092
:10175000C3F88020D3F88010C3F88040D3F88010FD
:10176000D3F88410C3F88420D3F88410C3F88440DD
:10177000D3F88410D96F424D0143D967D86F4149DE
:101780002840D867D86FD3F888000143C3F8881081
:10179000D3F88810C1F30A01C3F88810D3F8881071
:1017A000D3F89010C3F89020D3F89010C3F890406D
:1017B000D3F89010D3F89410C3F89420D3F8941071
:1017C000C3F89440D3F89410D3F89810C3F8982035
:1017D000D3F89810C3F89840D3F89810D3F88C1029
:1017E000C3F88C20D3F88C10C3F88C40D3F88C103D
:1017F000D3F89C10C3F89C20D3F89C20C3F89C40DD
:10180000D3F89C3000F04CFB00F0F2FDFFF780FFB6
:101810001D4806214FF010531C4AC0F89810C0F81C
:101820009C300523C0F8A020C0F89430436A43F4EC
:1018300080334362C0F88440BFF34F8FD0F88030CC
:1018400043F6E074C3F34E3CC3F3C90E4FEA4C1C9D
:101850000CEA0401734641EA8372013BC0F874222A
:101860005A1CF8D1ACF1200C1CF1200FF0D1BFF3C1
:101870004F8FBFF36F8F38BD00440258FFEFFF7FDB
:101880000010008000F8FFFF00ED00E01B000C03DB
:101890005C4B02205C495D4A10B40124C1F8084148
:1018A000D3F8F4100143C3F8F410D3F81C1101432A
:1018B000C3F81C11D3F81C31D06053689C04FCD5CC
:1018C00053490123534C0020116093604FF440436F
:1018D0004E49D460106193618B699804FCD50B6804
:1018E000484A43F480730B60136F03F44073B3F5FD
:1018F000007F04D04FF48031002311671367414902
:101900000B6843F001030B600B685A07FCD50023FA
:101910003C4A0B61136913F03803FBD14FF0804050
:1019200001243D49146050603C485367D162106106
:101930001368344943F4805313600B689B04FCD54F
:101940000B68304A43F080030B601368DC05FCD55C
:10195000536F2C4943F0010353674B6F9807FCD535
:101960002F4A00202F4B304C8C6248640A64CB62B3
:101970000B68244A43F080530B6013689900FCD530
:10198000482000234FF48861402490614FF44010B8
:10199000D16114622549D364136550653020936585
:1019A00008600B681B07FCD1164B10BCD3F8DC2079
:1019B00042F00052C3F8DC20D3F8042142F0005278
:1019C000C3F80421D3F80421D3F8DC2042F080428C
:1019D000C3F8DC20D3F8042142F08042C3F804218C
:1019E000D3F80421D3F8DC2042F00042C3F8DC2015
:1019F000D3F8042142F00042C3F80421D3F80431A3
:101A0000704700BF0044025800800051004802584F
:101A100000C000F0020000010000FF010088100873
:101A2000310E0707DD0DC00140404000002000528C
:101A3000F8B53D4C00273D4E20463D4DFFF738F8A8
:101A40003C4A3D4B05211220C4E90A26C4E90C7327
:101A50003A4CFFF7EDFD2046FFF72AF8384A42F2EC
:101A60008A5305217F2027636363C4E90A25FFF7B2
:101A7000DFFD344B4FF44031D3F8D82042F0200240
:101A8000C3F8D820D3F8002142F02002C3F8002187
:101A9000D3F80021D3F8802042F02002C3F8802040
:101AA000D3F8802022F02002C3F88020D3F88020D1
:101AB000B160D3F8D82022F02002C3F8D820D3F8A0
:101AC000002122F02002C3F80021D3F80021D3F82E
:101AD000E02042F08072C3F8E020D3F8082142F001
:101AE0008072C3F80821D3F80821D3F8882042F087
:101AF0008072C3F88820D3F8882022F08072C3F85F
:101B00008820D3F88820A960D3F8E02022F08072E2
:101B1000C3F8E020D3F8082122F08072C3F808212E
:101B2000D3F80831F8BD00BF0000002400230240B4
:101B30000063025800200240162C020038000024E6
:101B4000006002580044025800000000000000003D
:101B5000184B984210B41DD0174B98420ED0826A91
:101B60009368590706D5936843F010039360936810
:101B7000DB06FCD4002310BCD3617047026BD2E9B2
:101B800000410B6823F00F030B600E23127A934081
:101B90006360E4E7016B0A68136823F01F031360B6
:101BA0001368DC07FCD40C7B3D234A68A340136018
:101BB000D5E700BF0000002438000024000000002A
:101BC00070B5066976B311F01005044606D00578A5
:101BD000A5F10305B5FA85F56D096D000B0648BF43
:101BE00045F00405C8051ED58A0545F0080501D550
:101BF00045F010052046FFF7ABFFF368C3B105229F
:101C00002946227098472378052B11D0302383F37F
:101C100011884FF0FF3104F1140003F021FA002382
:101C200083F3118870BD8B05E2D4002DE2D170BD25
:101C30000222002322702361E8E700BF00000000B9
:101C400010B5084C204602F0CBFD074B0748196839
:101C50001960FFF7B5FF204602F0DAFDBDE810403D
:101C600003F036BC6C5C0008002002400000002439
:101C700010B5084C204602F0B3FD074B0748196821
:101C80001960FFF79DFF204602F0C2FDBDE810403D
:101C900003F01EBC605C000800600258380000249D
:101CA0000A4808B502F09CFD094B0A4819684268C9
:101CB00001F00E0159600AB180689047034802F0B4
:101CC000A7FDBDE8084003F003BC00BFCC5C0008E2
:101CD00000540258700000240000000000000000C2
:101CE0000B4810B502F07CFD0A4B0B481968C2681E
:101CF000090901F00E010C015C600AB1006990470E
:101D0000034802F085FDBDE8104003F0E1BB00BFD1
:101D1000C05C00080054025870000024000000005D
:101D20000B4810B502F05CFD0A4B0B48196842697C
:101D3000090A01F00E010C025C600AB1806990474B
:101D4000034802F065FDBDE8104003F0C1BB00BFD1
:101D5000B45C000800540258700000240000000029
:101D60000B4810B502F03CFD0A4B0B481968C269DC
:101D7000090B01F00E010C035C600AB1006A904788
:101D8000034802F045FDBDE8104003F0A1BB00BFD1
:101D9000A85C0008005402587000002400000000F5
:101DA0000B4810B502F01CFD0A4B0B481968426A3B
:101DB000090C01F00E010C045C600AB1806A9047C6
:101DC000034802F025FDBDE8104003F081BB00BFD1
:101DD0009C5C0008005402587000002400000000C1
:101DE0000B4810B502F0FCFC0A4B0B481968C26A9C
:101DF000090D01F00E010C055C600AB1006B904703
:101E0000034802F005FDBDE8104003F061BB00BFD0
:101E1000905C00080054025870000024000000008C
:101E20000B4810B502F0DCFC0A4B0B481968426BFA
:101E3000090E01F00E010C065C600AB1806B904740
:101E4000034802F0E5FCBDE8104003F041BB00BFD1
:101E5000845C000800540258700000240000000058
:101E60000B4810B502F0BCFC0A4B0B481968C26B5A
:101E7000090F01F00E010C075C600AB1006C90477D
:101E8000034802F0C5FCBDE8104003F021BB00BFD1
:101E9000785C000800540258700000240000000024
:101EA0000B4800220B4B0146026003F1A00C0A48CC
:101EB00001E053F8140C143302604A60634541F8A2
:101EC000082FF6D1054B4FF0FF325A60704700BF24
:101ED00070000024F05C00080854025800540258B6
:101EE0000728F8B5044606D9082815D101204FF077
:101EF000070C002402E00120A446A040204E3568D3
:101F000005420CD04FF0010E01E0054207D001342C
:101F1000A4450EFA04F0F8D200252846F8BD054382
:101F2000184F356006EBC40604EB8405C6E90123AF
:101F3000154BA60007EB8505D3F8E00040F4001030
:101F4000C3F8E000D3F8080140F40010C3F808011A
:101F5000D3F8083112B1687CFFF76AFB33190E22FF
:101F6000002007EB830157F823404B68097A8A4029
:101F7000196821F00F011960626018602846F8BDE9
:101F800070000024D85C00080044025800000000E3
:101F900010B50446407CFFF763FB0E4B247C012107
:101FA0001A680020A14022EA0102D1B21A60C3E9F6
:101FB000010071B9084BD3F8E02022F40012C3F8F5
:101FC000E020D3F8082122F40012C3F80821D3F846
:101FD000083110BD700000240044025800000000C9
:101FE000C3681960704700BF0000000000000000D7
:101FF0000A4808B502F0F4FB094B0A481968426820
:1020000001F03D0199600AB180689047034802F0F1
:10201000FFFBBDE8084003F05BBA00BFCC5D0008E1
:1020200000000240B4000024000000000000000096
:102030000B4810B502F0D4FB0A4B0B481968C26874
:10204000890901F03D018C019C600AB1006990474B
:10205000034802F0DDFBBDE8104003F039BA00BFD1
:10206000C05D000800000240B40000240000000031
:102070000B4810B502F0B4FB0A4B0B4819684269D3
:10208000090C01F03D010C049C600AB18069904785
:10209000034802F0BDFBBDE8104003F019BA00BFD1
:1020A000B45D000800000240B400002400000000FD
:1020B0000B4810B502F094FB0A4B0B481968C26933
:1020C000890D01F03D018C059C600AB1006A9047C2
:1020D000034802F09DFBBDE8104003F0F9B900BFD2
:1020E000A85D000800000240B400002400000000C9
:1020F0000A4808B502F074FB094B0A485968426A5D
:1021000001F03D01D9600AB1806A9047034802F0AE
:102110007FFBBDE8084003F0DBB900BF9C5D000811
:1021200000000240B4000024000000000000000095
:102130000B4810B502F054FB0A4B0B485968C26AB1
:10214000890901F03D018C01DC600AB1006B904708
:10215000034802F05DFBBDE8104003F0B9B900BFD1
:10216000905D000800000240B40000240000000060
:102170000B4810B502F034FB0A4B0B485968426B10
:10218000090C01F03D010C04DC600AB1806B904742
:10219000034802F03DFBBDE8104003F099B900BFD1
:1021A0002C5E000800000240B40000240000000083
:1021B0000B4810B502F014FB0A4B0B485968C26B70
:1021C000890D01F03D018C05DC600AB1006C90477F
:1021D000034802F01DFBBDE8104003F079B900BFD1
:1021E000205E000800000240B4000024000000004F
:1021F0000A4808B502F0F4FA094B0A481968426C1B
:1022000001F03D0199600AB1806C9047034802F0EB
:10221000FFFABDE8084003F05BB900BF145E000898
:1022200000040240B4000024000000000000000090
:102230000B4810B502F0D4FA0A4B0B481968C26C6F
:10224000890901F03D018C019C600AB1006D904745
:10225000034802F0DDFABDE8104003F039B900BFD1
:10226000085E000800040240B400002400000000E2
:102270000B4810B502F0B4FA0A4B0B481968426DCE
:10228000090C01F03D010C049C600AB1806D90477F
:10229000034802F0BDFABDE8104003F019B900BFD1
:1022A000FC5D000800040240B400002400000000AF
:1022B0000B4810B502F094FA0A4B0B481968C26D2E
:1022C000890D01F03D018C059C600AB1006E9047BC
:1022D000034802F09DFABDE8104003F0F9B800BFD2
:1022E000F05D000800040240B4000024000000007B
:1022F0000A4808B502F074FA094B0A485968426E58
:1023000001F03D01D9600AB1806E9047034802F0A8
:102310007FFABDE8084003F0DBB800BFE45D0008C9
:1023200000040240B400002400000000000000008F
:102330000B4810B502F054FA0A4B0B485968C26EAC
:10234000890901F03D018C01DC600AB1006F904702
:10235000034802F05DFABDE8104003F0B9B800BFD1
:10236000D85D000800040240B40000240000000012
:102370000B4810B502F034FA0A4B0B485968426F0B
:10238000090C01F03D010C04DC600AB1806F90473C
:10239000034802F03DFABDE8104003F099B800BFD1
:1023A000845D000800040240B40000240000000026
:1023B0000B4810B502F014FA0A4B0B485968C26F6B
:1023C000890D01F03D018C05DC6012B1D0F8800070
:1023D0009047034802F01CFABDE8104003F078B8BB
:1023E000785D000800040240B400002400000000F2
:1023F00000220D4830B40D4C13460D4D226001E013
:1024000055F8330004EB830102330260202B4A604D
:10241000F6D14FF0FF330749074A8B60CB609360DA
:10242000D36030BC704700BF10000240B4000024ED
:10243000385E000800000240000402400000000076
:10244000F8B5122820D8DFE800F00A0A0A0A0A0ABA
:102450000A0A0A0A0A0A0A0A0A0A6F7479004FF07D
:10246000010C05460CFA00FC374E346814EA0C0FD8
:102470000DD04FF0010E02E014EA0C0F07D001302E
:10248000A8420EFA00FCF7D900252846F8BD44EA18
:102490000C04346006EBC0062C4CC6E901235FFA3D
:1024A0008CF3060104EB001573B1294BD3F8D80067
:1024B00040F00100C3F8D800D3F8000140F001005B
:1024C000C3F80001D3F800311CF47F4F1CD1A05990
:1024D000036823F01F030360036813F00103FBD1BB
:1024E00034443D26212794F80CC006FA0CF6D4F8A3
:1024F00004C0CCF8006003604761002AC5D0A07B0F
:10250000FFF796F82846F8BD114BD3F8D80040F0F5
:102510000200C3F8D800D3F8000140F00200C3F86D
:102520000001D3F80031D2E74FF0010C0F25002055
:102530009AE74FF0010C0725002095E74FF0800C3B
:102540000F25072090E700BFB4000024385E000884
:1025500000440258000000000000000000000000DD
:1025600010B50446807BFFF77BF81649607B01229B
:102570000B68824023EA0203DAB20B6072B9124A96
:10258000D2F8D81021F00101C2F8D810D2F8001109
:1025900021F00101C2F80011D2F8002113F47F4F9D
:1025A0000ED1094BD3F8D82022F00202C3F8D8206C
:1025B000D3F8002122F00202C3F80021D3F8003141
:1025C00010BD00BFB4000024004402580000000009
:1025D00083681960704700BF000000000000000021
:1025E000704700BF00000000000000000000000075
:1025F0002DE9F04F02F00309C2F34114C2F3800643
:10260000C2F3C105C2F3C317CE4600224FF00F0B31
:10261000A04616E00368072A0AEA030343EA0E030A
:1026200003604AD8036A23EA040343EA0C03036203
:10263000490840D076000132AD004FEA88084FEAE1
:102640008E0ECB07F4D501244368B9F1020F04FACA
:1026500002F423EA04034FF0030443EA0603436051
:102660004FEA420304FA03F3846824EA03046FEA9E
:10267000030A44EA05048460C46824EA030C02F0F7
:1026800007044CEA08034FEA8404C36007FA04FC19
:102690000BFA04F4BED1072A16D8036A23EA04030E
:1026A00043EA0C030362036849080AEA030343EAA6
:1026B0000E030360BED1BDE8F08F436A23EA040332
:1026C00043EA0C034362B3E7436A23EA040343EAA1
:1026D0000C034362E7E700BF0000000000000000B9
:1026E00070B400224FF0FF348E6800EB421102F10B
:1026F000010CD1F800590B46002D05DAD1F800592C
:1027000045F08045C1F80059D1F8005B002D05DA8D
:10271000D1F8005B45F08045C1F8005BB242C3F8D8
:1027200008496246C3F8084BDFD14FF0011370BC73
:10273000C0F81C38704700BF000000000000000017
:1027400010B5044C2046FEF7B3FC034A034BC4E922
:10275000242310BD3801002400000840685F0008F1
:10276000F8B52023D0F8905007462B612C6914F05F
:102770002004FBD112204FF0006601F0B1FFD7F822
:1027800094C04FF001134FF0FF31DCF80800C5F89A
:102790003448C5F81C3805EB4413844204F10104A5
:1027A000C3F80069C3F8006BC3F80819C3F8081B25
:1027B000F1D1DCF800301021D7F89020C7F898301C
:1027C0006B621161146914F01004FBD1122001F046
:1027D00087FFD5F80028124B22F4FE621149C5F894
:1027E0000028AA6913430922AB61C5F81028D7F85D
:1027F0009830C5F81428F9604FF0C0410A4AC5F86E
:10280000101B03F1100143F48013C5F8002BC5F829
:102810001049C5F80029C7F89810AB62F8BD00BF91
:1028200010000C00445F0008408000100000000011
:10283000D0F8902090F88A10D2F8003823F4FE6384
:1028400043EA0113C2F80038704700BF00000000DF
:102850000346D0E924010A68C3F89820FFF740BF77
:102860005831D0F8903049015B5813F4004004D03F
:1028700013F4001F0CBF022001207047000000006D
:102880004831D0F8903049015B5813F4004004D02F
:1028900013F4001F0CBF022001207047000000004D
:1028A00000EB8100C3681B6A19685B6811605360A4
:1028B000704700BF000000000000000000000000A2
:1028C00000EB8103DA68936910B41C68DC6009B915
:1028D000402C25D8538A1268D0F8900002F0030CDF
:1028E0005A1E2244BCF1010FB2FBF3F202FB03F3C8
:1028F00003F1030323F0030343EAC24300EB411255
:1029000043F0C043C2F8103B0DD009B200EB4110B8
:1029100010BCD0F8003B43F00443C0F8003B7047C4
:1029200040241C60D6E7D0F8083800EB411209B209
:1029300013F4807FD2F8003B14BF43F0805343F080
:102940000053C2F8003BE1E7000000000000000077
:102950002DE9F041244F0446D7F8906006EB401370
:10296000D3F8085B2807C3F8085B03D5D6F81438FA
:10297000190731D4EA072DD5D6F81438DB0729D545
:1029800007EB8403D9688A6954B9488A5368B3FB52
:10299000F0F500FB15331BB91068D36898420DD3CE
:1029A00001227B89CD68A24023EA02037B818DB19D
:1029B00021462B460C48BDE8F04118471B1A5460CD
:1029C0003021136081F3118807482146FFF778FF13
:1029D00084F31188BDE8F08107EB84032146384673
:1029E000DB685B689847C5E73801002400000000F9
:1029F00000EB810310B4DC6862691368D360F3B93B
:102A0000D0F890204FF4002002EB4113C3F81009D6
:102A1000236803F00303012B2AD008B202EB401015
:102A20000123D0F800498B4044F00444C0F8004929
:102A3000D2F8341810BC0B43C2F83438704709B9C7
:102A4000402B26D8B4F810C0D0F890200CF1FF30FD
:102A50001844B0FBFCF043EAC04302EB411043F0E2
:102A60000053C0F81039236803F00303012BD4D1BD
:102A7000D2F8083808B213F4807F02EB4113D3F880
:102A8000004914BF44F0805444F00054C3F8004996
:102A9000C4E740231360D5E70000000000000000F9
:102AA0002DE9F84FDFF8049104464FEA401BD9F8AE
:102AB000906006EB4013D3F80859E907C3F80859AA
:102AC00003D5D6F81038DA070CD42B0608D54FF00A
:102AD0000108D6F8343808FA04F813EA080F18D1B8
:102AE000BDE8F88F09EB8003D9684B691868DA688C
:102AF00090424AD30122B9F808308F68A24023EAF5
:102B00000203A9F80830002FDFD021464846B84715
:102B1000DBE709EB8403DB685E69D6E90075AF4249
:102B200041D90134D9F890A0B3F81090E4B20AEB7F
:102B30000B0E0AEB0430A7EB050CDEF81839CC4578
:102B40009BB228BFCC46BCEB830FC9D8B468BCF19C
:102B5000040F236803600BD9ACF10501234621F073
:102B600003010431214453F8042F99420260FAD141
:102B700065446444BD42C6E90154DCD3DAF8343814
:102B800023EA0803CAF83438AAE7121A00271A60A1
:102B90005F60302383F3118821464846FFF728FF02
:102BA00087F3118891E7D9F890A0E7E7380100246E
:102BB0002DE9F84FA64EA74801F012FED6F8907006
:102BC0007D69BB691D4015F480587D6140F024810A
:102BD000002DC0F2AB80290500F1BE80AA040CD5FF
:102BE000D7F8083813F0060FFB6823F470530CBFB6
:102BF00043F4105343F4A053FB602B074AD4EC0278
:102C000050D4A80200F1DB80EB0600F1AD802B036D
:102C1000D7F818481AD5E70300F19A81A60300F106
:102C20009381600300F18C81210300F16D81E20248
:102C300000F17081A30200F17381670200F17681D7
:102C4000260200F17981E00100F1F08069031AD5D4
:102C5000E20700F12B81A30700F12E81670700F145
:102C60003181260700F13481E50600F13781A006A5
:102C700000F13A81610600F13D81220600F14081B8
:102C8000E30500F1DA80734801F0C2FDBDE8F84FBA
:102C900002F01EBC7368DB68002BB0D06C4898470C
:102CA000EC02AED50021D6F890B04FF00109DFF864
:102CB000A0A10C4607E00134D6F89430E4B29B683A
:102CC0009C4221469DD80BEB4412D2F8003903F404
:102CD0004023B3F5802FEED1D2F80039002BEADA89
:102CE000D2F8003943F09043C2F80039D2F80039E5
:102CF000002BFBDB8901D6F8902041F02001116107
:102D000013699906FCD4122001F0EAFC09FA04F1D7
:102D100006EB8403DB689A68338923EA0103338175
:102D2000002AC8D0214650469047C4E7D7F8003E55
:102D3000980705D0D7F8003E23F00303C7F8003EFC
:102D4000D7F80438424823F00103C7F80438FEF7E7
:102D5000EFF929057FF542AFD6E92401FFF7C0FC62
:102D60003B48FEF7D5F939E7D6F890100B6A03F423
:102D7000F010C3F30A1203F00F03B0F5802F6BD0ED
:102D8000B0F5402F7FF443AF06EB8303DB68186A8E
:102D9000002A3FF43CAF01F5805400239E07014612
:102DA00001D1D4F80080072B03F1010304D801F806
:102DB000018B4FEA182808469A42EFD127E7D6F848
:102DC000909000244FF0010ADFF884B007E001344E
:102DD000D6F89430E4B29B689C423FF615AF09EBFD
:102DE0004412D2F8003B03F44023B3F5802FEED118
:102DF000D2F8003B0AFA04F1002BE8DA06EB840370
:102E0000DB68DA68738923EA01037381002ADED064
:102E1000214658469047DAE73046FEF759F90D4803
:102E200001F0F6FCBDE8F84F02F052BB0820FFF7B6
:102E30008FFD69037FF527AF0AE70820FFF730FE13
:102E4000044801F0E5FCBDE8F84F02F041BB00BFCB
:102E500038010024385F0008981C06EB80035B688B
:102E60009B69D3E90049A4EB090E9C68CAB101F53E
:102E7000805C002313F0030F214601D1DCF80080B1
:102E80009E4503F1010304D901F8018B4FEA18288C
:102E90000C469A42EED106EB800673689B69D3E933
:102EA000019414444A44C3E90124B0E60020FFF72A
:102EB000F7FDA3077FF5D2AE0120FFF7F1FD67070D
:102EC0007FF5CFAE0220FFF7EBFD26077FF5CCAEF6
:102ED0000320FFF7E5FDE5067FF5C9AE0420FFF707
:102EE000DFFDA0067FF5C6AE0520FFF7D9FD610620
:102EF0007FF5C3AE0620FFF7D3FD22067FF5C0AEF7
:102F00000720FFF7CDFDBBE60320FFF721FDE2021E
:102F10007FF590AE0420FFF71BFDA3027FF58DAE79
:102F20000520FFF715FD67027FF58AAE0620FFF743
:102F30000FFD26027FF587AE0720FFF709FD82E629
:102F40000220FFF705FD6FE60120FFF701FD68E6AF
:102F50000020FFF7FDFC61E600000000000000001B
:102F6000D0F8903003EB4111D1F8003B43F400134B
:102F7000C1F8003B704700BF0000000000000000E7
:102F8000D0F8903003EB4111D1F8003943F400132D
:102F9000C1F80039704700BF0000000000000000C9
:102FA000D0F8903003EB4111D1F8003B23F400132B
:102FB000C1F8003B704700BF0000000000000000A7
:102FC000D0F8903003EB4111D1F8003923F400130D
:102FD000C1F80039704700BF000000000000000089
:102FE00001F001038A0748BF43F002034A0748BFC4
:102FF00043F008030A0748BF43F00403CA0648BF6A
:1030000043F010038A06426B48BF43F020031A4383
:103010004263704700000000000000000000000054
:10302000F8B5302305460F46164683F31188446CE5
:10303000E36BA3B900232365E363E362606B10F4E1
:10304000807008D04FF0FF32A26383F31188012F04
:103050000CD81846F8BD80F311880120F8BD4FF058
:10306000FF31403001F0ECFF6C6CE3E76A6C41F239
:103070000C119360D160516B11F04503FBD0936349
:1030800011F0050303D1526918463260F8BD284695
:10309000FFF7A6FF0120F8BD0000000000000000BF
:1030A000F8B5446C06464FF0FF30F76CA0634FF460
:1030B0008D70E0635802A0629020E062A265012258
:1030C0002265326BD20658BF4902012BA16019D983
:1030D00041F25912E260616B11F04500FBD011F032
:1030E000050FA0632FD161692F4A39600A406ABB7E
:1030F0003A4619463046FFF793FF002850D1002585
:103100002846F8BD41F25812E260656B15F04501A2
:10311000FBD015F0050FA16330D16169224A3960F7
:103120000A407ABB3A4619463046FFF779FF054612
:103130000028E4D0736C30465A6B596B9963FFF7E3
:103140004FFF2846F8BD3046FFF74AFF636B304615
:10315000616BA163FFF744FF002241F20C13A260F0
:10316000E360616B11F04503FBD011F0050FA36321
:1031700011D1636901253B602846F8BD29463046D8
:10318000FFF72EFF636B0125616B3046A163FFF7EC
:1031900027FF2846F8BD30460125FFF721FFAFE79E
:1031A000746CF76CD2E700BF08E0FFFD0000000080
:1031B000F8B5446C06464FF0FF30F76CA0634FF44F
:1031C0009570E0635802A0629220E062A26501223D
:1031D0002265326BD20658BF4902012BA16019D972
:1031E00041F25212E260616B11F04500FBD011F028
:1031F000050FA0632FD161692F4A39600A406ABB6D
:103200003A4619463046FFF70BFF002850D10025FB
:103210002846F8BD41F25112E260656B15F0450198
:10322000FBD015F0050FA16330D16169224A3960E6
:103230000A407ABB3A4619463046FFF7F1FE05468A
:103240000028E4D0736C30465A6B596B9963FFF7D2
:10325000C7FE2846F8BD3046FFF7C2FE636B304616
:10326000616BA163FFF7BCFE002241F20C13A26068
:10327000E360616B11F04503FBD011F0050FA36310
:1032800011D1636901253B602846F8BD29463046C7
:10329000FFF7A6FE636B0125616B3046A163FFF764
:1032A0009FFE2846F8BD30460125FFF799FEAFE79F
:1032B000746CF76CD2E700BF08E0FFFD000000006F
:1032C00010B5074C2046FDF72BFE002305480649A4
:1032D000064AA364E163E264C4E9103010BD00BF94
:1032E000EC010024007000520000043000020430A1
:1032F0000A4BD0E9112199420ED9094B09480B44D8
:103300001B0AA0FB03031B0953606420136843F0EE
:103310000303136001F084BE0023F5E7801A060062
:10332000FF340C00598B4F0100000000000000002A
:10333000012910B4D0E9111011D0124A4B68904203
:1033400023F0FF0306D9104A104C0244A4FB0242AA
:1033500043EA126343F4805310BC4B6070470C4A3D
:103360004B68904223F0FF03F4D90A4A074C024409
:10337000A4FB024210BC43EA526343F480534B6007
:10338000704700BF40787D017FF0FA02893BE65527
:1033900080F0FA02FFE0F5050000000000000000E8
:1033A0000022436C5A601A60704700BF00000000A2
:1033B000426C0129536823F4404307D0022901D00D
:1033C00011B1704743F400435360704743F48043A6
:1033D0005360704700000000000000000000000083
:1033E000406C41F480518260C160436B1B06FCD588
:1033F00080238363704700BF0000000000000000CE
:1034000010B541F48851446CA260E160616B11F029
:103410004502FBD0A26311F0040203D1616910469A
:10342000196010BDFFF7DCFD012010BD0000000099
:1034300010B541F48851446CA260E160616B11F0F9
:103440004502FBD0A26311F0050203D16169104669
:10345000196010BDFFF7C4FD012010BD0000000081
:1034600010B541F49851446CA260E160616B11F0B9
:103470004502FBD0A26311F03F0209D1216A104638
:103480001960E2695A60A2699A606269DA6010BDE7
:10349000FFF7A6FD012010BD0000000000000000A5
:1034A0002DE9F04190461C462D4A0546436C0F46D7
:1034B0005A62FDF7E5FC58BB44F48A534FF0FF32E3
:1034C0006C6C0646E86CA2634FF49572E2630622C8
:1034D000C4F82880E2620122A7652265069AA260EC
:1034E000E360616B11F04503FBD011F0050FA3639E
:1034F00026D162691B4B026013405BB1636B0126EE
:10350000616B2846A163FFF76BFD3046BDE8F08193
:103510006C6CF3E7302383F311886B6CDA6BBAB908
:1035200000221A65DA63DA62596B11F480710BD0EC
:103530004FF0FF31996382F311883046BDE8F08186
:103540002846FFF74DFDD9E781F311886C6CD5E76C
:103550004FF0FF3105F1400001F072FD6B6CDFE7C9
:1035600040420F0008E0FFFD0000000000000000E6
:1035700053B32DE9F04704460D46904601EB03098D
:10358000DFF848A0636C2046E76BC3F824A0FDF782
:1035900077FC06462946012301353A46204616B1F6
:1035A0000120BDE8F087FFF703FE4FF400720346E9
:1035B00040469044002BF3D1E16BFCF717FFA9457F
:1035C000E0D10020BDE8F0870020704740420F00A6
:1035D00053B32DE9F04704460D46164601EB0309A7
:1035E000DFF848A04FF400723146E06B1644FCF758
:1035F000FDFE636C2046D4F83C80C3F824A0FDF7A0
:103600003FFC07462946012301354246204617B1B3
:103610000120BDE8F087FFF743FD0028F8D1A94558
:10362000E0D10020BDE8F0870020704740420F0045
:1036300000207047000000000000000000000000B3
:1036400010B5426C00243023D46383F311882146E3
:10365000403001F005FD84F3118810BD000000002A
:103660000022124B0A604A60426910B413404024A1
:1036700042780C6143F440434FF0FF348C618B601F
:1036800042B1836910BC23F4C023CB6040F2011324
:103690000B6070478269064B10BC134043F0015326
:1036A000CB6040F201130B60704700BF1F3EFFFF6D
:1036B000FFFFB9DF00000000000000000000000074
:1036C00090F8203010B4002B34D0836AD3E9004145
:1036D0000A6822F00F020A60197A0E23426A03FA7E
:1036E00001F161605468216821F00F012160117AB5
:1036F00012688B405360474B98423AD0464B9842F1
:103700004BD0464B98425CD0454B98426DD0454BD0
:10371000984251D1444BD3F89C2042F02002C3F888
:103720009C20D3F89C2022F02002C3F89C20D3F8E0
:103730009C3041E0846A2268136823F01F03136001
:103740001368D907FCD4227B3D23416A9340646807
:103750000A682360136823F01F0313601368DB07F4
:10376000FCD40C7B3D234A68A3401360294B98424C
:10377000C4D12D4BC169D3F89820406842F48052DF
:1037800010BCC3F89820D3F8982022F48052C3F8D4
:103790009820D3F89830FFF763BF234BD3F89020DD
:1037A00042F48042C3F89020D3F8902022F4804263
:1037B000C3F89020D3F89030C16910BC4068FFF77F
:1037C0004FBF194BC169D3F89020406842F40042C2
:1037D00010BCC3F89020D3F8902022F40042C3F824
:1037E0009020D3F89030FFF73BBF0F4BC169D3F85F
:1037F0009820406842F4801210BCC3F89820D3F897
:10380000982022F48012C3F89820D3F89830FFF75C
:1038100027BF00BF3C02002478020024B402002429
:10382000F00200242C030024004402580000000091
:1038300043685B7810B5002B50D190F820300146DA
:10384000DBB1836AD3E90040026822F00F02026014
:103850000E22187ACB69824062605A6912F4604F76
:10386000FBD1496AD1E90040026822F00F020260F0
:103870000E22097A8A40626024E0806A0268136836
:1038800023F01F0313601368DB07FCD490F80CC00F
:103890003D22406802FA0CF2CB6902605A6912F4C8
:1038A000604FFBD1486A01680A6822F01F020A6073
:1038B0000A68D407FCD490F80CC03D22416802FA93
:1038C0000CF20A601A6842F480621A601A68920563
:1038D000FCD44FF0FF3200209A6110BDFFF7F0FEDC
:1038E000002010BD000000000000000000000000EB
:1038F00010B504460B4800F0DBFE2046FFF7E0FE63
:1039000063689B680BB120469847302383F3118886
:10391000002104F1080001F0A3FB002383F31188C8
:1039200010BD00BF745F0008000000000000000030
:103930000B0700D47047FFF7DBBF00BF000000009B
:1039400011F00C0F00D17047FFF7D2BF000000004C
:1039500011F00C0F70B50D4604462DD16668337812
:1039600093B1EA0603D573686BB120469847AB065E
:1039700009D563685B6833B10422204622709847FA
:103980002378042B2FD070BD2046FFF751FF7368BA
:1039900063B304222046227098472378042B25D055
:1039A000302383F31188002104F1080001F058FB53
:1039B000002383F3118870BD0E4800F079FE204685
:1039C000FFF77EFE63689B680BB120469847302363
:1039D00083F31188002104F1080001F041FB00236A
:1039E00083F31188BAE70323237070BD0223237089
:1039F000D6E700BF745F0008000000000000000070
:103A000070B50D46090704462DD46668337893B126
:103A10006A0703D573686BB120469847AB0709D591
:103A200063685B6833B1042220462270984723788C
:103A3000042B2FD070BD2046FFF7FAFE736863B3E6
:103A400004222046227098472378042B25D0302367
:103A500083F31188002104F1080001F001FB002329
:103A600083F3118870BD0E4800F022FE2046FFF758
:103A700027FE63689B680BB120469847302383F389
:103A80001188002104F1080001F0EAFA002383F311
:103A90001188BAE70323237070BD02232370D6E791
:103AA000745F00080000000000000000000000003B
:103AB00010B5154C154800F093FEE2695369116981
:103AC0000B4093615B0606D4104800F0A1FEBDE8F0
:103AD000104001F0FDBC2046FFF7F2FD63689B68D3
:103AE0000BB120469847302383F311880021084802
:103AF00001F0B6FA002383F31188044800F088FE31
:103B0000BDE8104001F0E4BC3C020024B05F0008B6
:103B1000440200240000000000000000000000003B
:103B200010B5154C154800F05BFEE2695369116948
:103B30000B4093615B0606D4104800F069FEBDE8B7
:103B4000104001F0C5BC2046FFF7BAFD63689B68D2
:103B50000BB120469847302383F311880021084891
:103B600001F07EFA002383F31188044800F050FE30
:103B7000BDE8104001F0ACBC78020024A45F00084E
:103B8000800200240000000000000000000000008F
:103B900010B5154C154800F023FEE2695369116910
:103BA0000B4093615B0606D4104800F031FEBDE87F
:103BB000104001F08DBC2046FFF782FD63689B68D2
:103BC0000BB120469847302383F311880021084821
:103BD00001F046FA002383F31188044800F018FE30
:103BE000BDE8104001F074BCB4020024985F0008E6
:103BF000BC020024000000000000000000000000E3
:103C000010B5154C154800F0EBFDE26953691169D8
:103C10000B4093615B0606D4104800F0F9FDBDE847
:103C2000104001F055BC2046FFF74AFD63689B68D1
:103C30000BB120469847302383F3118800210848B0
:103C400001F00EFA002383F31188044800F0E0FD30
:103C5000BDE8104001F03CBCF00200248C5F00087D
:103C6000F802002400000000000000000000000036
:103C700010B5154C154800F0B3FDE26953691169A0
:103C80000B4093615B0606D4104800F0C1FDBDE80F
:103C9000104001F01DBC2046FFF712FD63689B68D1
:103CA0000BB120469847302383F311880021084840
:103CB00001F0D6F9002383F31188044800F0A8FD31
:103CC000BDE8104001F004BC2C030024805F000814
:103CD0003403002400000000000000000000000089
:103CE0002DE9F0412D4D0024DFF8B48028462D4FFA
:103CF000FDF7AEF92C4B85F820400A21EB6123201B
:103D00006C622F63294EC5E90A48294DFDF790FCE6
:103D10002846FDF79DF9274B85F820400A21EB61E5
:103D200024206C622F63C5E90A48234DFDF780FC0F
:103D30002846FDF78DF9214B0A213320EB6185F8E8
:103D400020406C622F63C5E90A48FDF771FC3046DC
:103D5000FDF77EF91A4D1B4B0A21552086F82040AD
:103D6000F36174623763C6E90A48FDF761FC2846CF
:103D7000FDF76EF90123144941F20A0285F820305B
:103D800041F21803E96156206C620A212B63C5E9F0
:103D90000A42BDE8F041FDF74BBC00BF3C020024E5
:103DA000160001004600010000300140F00200242E
:103DB0007802002400380040B4020024003C004097
:103DC0002C030024005001400014005800000000A3
:103DD00010B503784FF0FF320446012B82631ED0EA
:103DE000406894F82020436903F01F030133002A40
:103DF0003BD1082BE26A5DD8236B22F4F04223F416
:103E0000F0430178002950D042F4847243F4847363
:103E1000E169C4E90B23FFF723FC002010BDC74B69
:103E2000984268D0C64B984200F0D980C54B984262
:103E300000F09B80C44B984200F00B81C34B98422A
:103E400000F03F81E26994F8203002F130016068AF
:103E50002032002B44D0636A5B6899604369A16A91
:103E600003F01F03496801338A60082BE26A10D807
:103E7000236B22F4706223F47063017821B142F065
:103E8000240243F02403C3E722F0240223F0240396
:103E9000BEE7102B236B22F4706223F470631AD8F0
:103EA00042F4A06243F4A063E7E722F4847223F4AF
:103EB0008473ADE7102B236B22F4F04223F4F0431C
:103EC00004D842F4205243F420539AE742F4A0422B
:103ED00043F4A04395E742F4206243F42063CCE727
:103EE000636A1B689960A16A4369096803F01F034C
:103EF0008A6001337DE70346954A0A211020FEF7C8
:103F00009FFA6062002800F016812346914A0A2138
:103F10001020FEF795FAA062002800F00981252103
:103F2000606AFEF755FB2621A06AFEF751FB8A4B1B
:103F3000D3F8F02042F48052C3F8F020D3F81821CF
:103F400042F48052C3F81821D3F81821D3F89820EE
:103F500042F48052C3F89820D3F8982022F480527B
:103F6000C3F89820D3F898306CE70346784A0A21C2
:103F70001020FEF765FA6062002800F0DC8023461E
:103F8000744A0A211020FEF75BFAA062002800F0B4
:103F9000CF803D21606AFEF71BFB3E21A06AFEF741
:103FA00017FB6D4BD3F8E82042F40042C3F8E82039
:103FB000D3F8102142F40042C3F81021D3F81021A5
:103FC000D3F8902042F40042C3F89020D3F8902018
:103FD00022F40042C3F89020D3F8903032E7034631
:103FE0005B4A0A211020FEF72BFA6062002800F0DD
:103FF000A2802346574A0A211020FEF721FAA06228
:10400000002800F095802721606AFEF7E1FA282158
:10401000A06AFEF7DDFA504BD3F8E82042F4804264
:10402000C3F8E820D3F8102142F48042C3F81021ED
:10403000D3F81021D3F8902042F48042C3F89020A6
:10404000D3F8902022F48042C3F89020D3F8903027
:10405000F8E603463E4A0A211020FEF7F1F96062B5
:10406000002868D023463B4A0A211020FEF7E8F9D1
:10407000A06200285CD05521606AFEF7A9FA56219B
:10408000A06AFEF7A5FA344BD3F8F02042F4801270
:10409000C3F8F020D3F8182142F48012C3F8182195
:1040A000D3F81821D3F8982042F48012C3F898204E
:1040B000D3F8982022F48012C3F89820D3F89830CF
:1040C000C0E60346254A0A210820FDF709FF606281
:1040D00088B32346224A0A210820FDF701FFA06287
:1040E00000283FD00B21606AFDF77AFF0C21A06AFF
:1040F000FDF776FF184BD3F8F42042F02002C3F806
:10410000F420D3F81C2142F02002C3F81C21D3F87C
:104110001C21D3F89C2042F02002C3F89C20D3F845
:104120009C2022F02002C3F89C20D3F89C3089E622
:10413000606AFEF715FA6FF0100010BD3C02002413
:1041400078020024B4020024F00200242C0300248E
:10415000513900084139000800440258013A00086A
:1041600031390008606AFDF713FF6FF0100010BDD1
:10417000C36910B49A68446802F01F0C64780CF1AB
:10418000010C1CB91A6842F400721A605A6992074D
:10419000FCD5BCF1080F18D8C9B283F82010C26949
:1041A0005169CC07FCD5416893F830304C78D8B2CF
:1041B00034B9136843F48063136013689B05FCD41F
:1041C0004FF0FF3310BC93617047BCF1100F08D85B
:1041D00089B219845A69D107FCD5188E1A4680B263
:1041E000E6E719625A69D207FCD5186B1A46DFE771
:1041F000124A4FF080430021D2F8E80040F001005D
:1042000030B4C2F8E80040F67F45D2F810010C4CFB
:1042100040F00100C2F810010120D2F81021E26B39
:104220000243E2634FF0FF329D62DA6299615963A3
:10423000D96059605861186030BC7047004402581A
:104240000010005C00000000000000000000000002
:104250004FF0804208B51169D3680B40D9B29B0773
:104260006FEA0101116100D408BD302383F3118886
:1042700000F02EFA002383F3118808BD000000002F
:10428000024A136843F0C0031360704700480040BF
:1042900010B50D4C82B02046FCF7A2FE04F10C00D4
:1042A0000023102209490094FCF76AFA084B1022F7
:1042B000084904F130000094FCF7FAFA064A074B6B
:1042C000C4E9152302B010BD68030024C80300240C
:1042D00081420008D8030024004800400024F40074
:1042E0002DE9F047456D0646D5F800A0EC69220798
:1042F0002C6253D1E20545D4A00610D54FF030080A
:10430000002788F311886B6A304696F85C101940D4
:10431000FCF776FE87F31188EC69A306F1D41AF056
:10432000800F1ED021061CD506F1300830274FF033
:10433000000905E0A86289F31188EC69220610D50E
:1043400087F311884046FCF7F3FA0028F2DA0821D7
:10435000301D00F0B5FF2AF080032B60002383F3AB
:1043600011881AF0400F0BD0630609D5302383F370
:104370001188D6E911239A422BD0002383F31188A8
:10438000BDE8F087302383F311884FF48061301D3E
:1043900000F096FF002383F31188ADE7C4F3C0015A
:1043A000E3074FF030034FEA012148BF41F02001FD
:1043B000A70748BF41F04001600748BF41F08001B6
:1043C00083F31188301D00F07BFF002383F31188F5
:1043D00090E7B36B002BD0D01021301D00F070FFA0
:1043E0002AF040032B60C8E7000000000000000036
:1043F000664A00236648D2F8881070B440F2FF7411
:10440000644D45F250562143C2F88810D2F8881006
:1044100008406149C2F88800D2F88800D2F8E0006C
:104420002043C2F8E000D2F8080120435B4CC2F8F8
:104430000801D2F808214FF68F724B608D604FF063
:104440005535CB604A61564A56480A62564A4A6216
:10445000564A0A604FF6FF71554A6360A2604BF6F8
:104460007E72E3606261534A2262534A6262534A37
:104470002260534C43608460524CC36041610462CB
:10448000514C524A4462524C046000F50060514C59
:1044900053609460504CD3605161146204F1F8444D
:1044A00004F5081454624D4C14606FF4405443609A
:1044B00002F500628460A4F17E54C360A4F5CB14BD
:1044C0004161A4F6331404624FF0CC344462444C8E
:1044D0000460444C53609460434CD3605161146257
:1044E00004F1F844A4F67744546204F15E44A4F560
:1044F0009014A4F2AB5414603C4CC0F80438C0F8DB
:1045000008484FF6BF74C0F80C38C0F81448384C4F
:10451000C0F82048374CC0F82448374CC0F8004851
:104520003648C2F80438C2F808084FF4A030344CBA
:10453000C2F80C084FF6E370C2F814084FF0804040
:10454000C2F8200842F20420C2F824082D48C2F81C
:1045500000084FF6CF7263602B48A160E360626190
:1045600026622A4A2A4E6362266043608360C560E1
:10457000416103624362036053609360D56051619F
:1045800013625362136070BCFDF782B90044025895
:1045900000F8FFFFFC00F3AB0000025800040258D3
:1045A000B00B00B0000802580AAA0A006BD5AEAAE8
:1045B000CACFA0FC226066000011B0CCBA7AAFABC3
:1045C000FFCCFF03BCCCBB30CCCC0C00000C0258A1
:1045D000AABBAA023FF03FFACC0C0050EA9FEAAA1D
:1045E000AABAAAAAFFCFCFFFCCCCCC503F0FFFFF77
:1045F000CC0CCC005C5055C5EA1A9AAA0540A10023
:10460000002002585ABDAEFF00240258002802586C
:10461000A955FFFF0000000000000000000000009E
:1046200001207047000000000000000000000000B2
:1046300000207047000000000000000000000000A3
:10464000704700BF000000000000000000000000F4
:1046500030B587B0114D00230122684604242A702A
:10466000C5E9013300F034FD684600F041FD6846BD
:1046700000F046FD013CF7D1009BAB6000F050FE1E
:1046800000F096FE00F0B4FE0549064800F098FBE5
:1046900002232B7084F3118807B030BDA80D0024CD
:1046A000C05F0008E80300240000000000000000D4
:1046B00008B5044672B600F0C3F80349034B032261
:1046C000C1F884401A70FEE7E8030024A80D002416
:1046D00000F0A6B90000000000000000000000008B
:1046E000034A516853685B1A9842FBD8704700BF71
:1046F000001000E0000000000000000000000000CA
:10470000024A536B03435363704700BFE80300241E
:1047100038B50C4CD4F88C50FBF7AAFFD4F88C3089
:1047200004F50961084A686050681A6860F31F223E
:1047300043F8102B04F190028B4228BF1346C4F8B3
:104740008C3038BDE8030024001000E000000000B9
:1047500002460749002342F8081B426000EB03129F
:104760000133117A802B6FF302011172F6D1704779
:10477000FFFF8000000000000000000000000000BB
:10478000094BB3F88820D20700D5704790F8242051
:1047900010B4D3F88C40D30043F00103C4E9020104
:1047A000237010BCFFF7B4BFE80300240000000032
:1047B0000A4BB3F88820920700D5704710B491F8DF
:1047C0002420D3F88C40D300896A43F00203C4E963
:1047D0000201237010BCFFF79BBF00BFE803002459
:1047E0000A4AB2F8883010B513F0040400D010BDA6
:1047F000302383F311880321D2F88C30197098602C
:10480000FFF786FF84F3118810BD00BFE803002482
:104810000A4AB2F8883010B513F0040400D010BD75
:10482000302383F311880421D2F88C3019709860FA
:10483000FFF76EFF84F3118810BD00BFE80300246A
:10484000064BB3F88820120700D57047D3F88C3098
:10485000052298601A70FFF75BBF00BFE8030024D1
:10486000F8B51446144D03460E4605F11002022C0D
:10487000E9614FF00207846038BF022442602A6970
:104880000260506008192B61FBF7FAFEFBF7F0FE9F
:10489000821B0346A24207D2022F00D8F8BD012096
:1048A000BDE8F840FFF72CBF7C1C301927461E4698
:1048B000FBF7F6FEEAE700BFE80300240000000073
:1048C0002DE9F843DFF89C9007460E46FBF7D0FE33
:1048D0004B46804653F8105F9D4237D0D9F81C40B4
:1048E000AB68041B341928BF3446A34215D89C4238
:1048F00004D92D68E41AAB68A342FAD36B684FF071
:10490000FF32BC60C7E900531F60AB686F601B1BC0
:10491000AB60C9F81820BDE8F883022E4FF00205FD
:1049200038BF022608EB0600FBF7BAFEFBF7A0FE35
:10493000A0EB0808464510D9022D03D8D9F810502D
:10494000AB68D4E70120FFF7DBFEF7E7324601460C
:104950003846BDE8F843FFF783BF013580462E4651
:10496000E0E700BFE80300240000000000000000B2
:1049700003610023C2604361FFF7A2BF0000000093
:1049800070B5234C236998420DD00368D0E901210A
:1049900013605A609A680A4400219A604FF0FF330E
:1049A0000160A36170BD02682346002143F8102F07
:1049B0005360016022699A4221D0936881680B4458
:1049C0009360FBF755FEE56923690446421B9B682B
:1049D0009342E7D91D4402262D1AB54238BF354609
:1049E0006019FBF75DFEFBF743FE041BA5420AD9E5
:1049F000022ED7D90120BDE87040FFF781BEBDE887
:104A00007040FBF745BE013604463546E8E700BF77
:104A1000E803002400000000000000000000000087
:104A20002DE9F84F3C4E00274FF0300906F11008F1
:104A300009E087F31188D4E903312046984789F3C8
:104A400011886369ABB93469FBF712FEF369054657
:104A5000A268C11A8A422CD89D18D4E90010F561C9
:104A600001604860276033694345E2D1FBF710FEDF
:104A7000DFE7FBF7FDFD6369A0EB050B82465B45B5
:104A80002FD3316941453DD08A68934204D90968E2
:104A90009B1A8A689A42FAD34A68A360C4E9001252
:104AA00014608A684C60D21A4FF0FF338A60B36199
:104AB000C9E73169414512D013440227F0611B1A3E
:104AC000BB421E46A36038BF3E46A819FBF7E8FD6F
:104AD000FBF7CEFD451BAE4210D9022F09D8BDE829
:104AE000F88F0220FFF70CFE3169414512D05B467A
:104AF000CAE70120BDE8F84FFFF702BE01370546BF
:104B00003E46E2E72B441A1A51462046BDE8F84FCC
:104B1000FFF7A6BE0022F7E7E8030024000000002C
:104B200010B530230C4683F3118891F824300C2BF8
:104B300010D8DFE803F02B0F0F270B070F0B0F0F19
:104B40000F0F0B008A6A936801339360D4E9003237
:104B500013605A604FF0FF312046A162FFF710FE4C
:104B60000022A369A16884F824201B689A688A42FD
:104B7000FBD25A6800212360626014605C6081F39C
:104B8000118810BD8B6A00221A60E3E7002383F3CB
:104B9000118810BD000000000000000000000000AF
:104BA00010B50446816AFFF7EBFD0022A369A168F6
:104BB00084F824201B689A688A42FBD25A682046EF
:104BC0002360626014605C6010BD00BF00000000E4
:104BD00038B50B4B01211C68DD6885F824002046A0
:104BE000226853601A6084F824102946DC60FFF7BD
:104BF000DFFD29462046BDE83840FBF7E1BB00BF9A
:104C0000E803002400000000000000000000000095
:104C1000F0B54B1C1C4C87B00546E6681FD03346E8
:104C20001A4A6846FFF7A4FEE768012287F8245075
:104C3000394625682B6828465C6085F82420236067
:104C4000E560FFF7B5FD39462846FBF7B9FB009B49
:104C500013B16846FFF794FEB06A07B0F0BD27684D
:104C6000012286F8240031463B6838465C6087F8AC
:104C700024202360E760FFF79BFD38463146FBF7B1
:104C80009FFBB06A07B0F0BDE8030024214B000889
:104C900070B51C4E05468268F4688162A3689A422A
:104CA0001FD9A16A2046FFF76BFD0022A369A16806
:104CB00084F824201B689A688A42FBD85A682146E7
:104CC0002846C4E90032146001225C6085F8242083
:104CD000F560FFF76DFD21462846BDE87040FBF703
:104CE0006FBBFFF74DFD0022AB69A96885F8242052
:104CF0001B689A688A42FBD25A68C5E9003215607F
:104D00005D6070BDE80300240000000000000000AA
:104D1000044B1A68DB6890689B68984294BF002037
:104D200001207047E803002400000000000000009C
:104D300038B5134B01211D68DC682A682046536092
:104D40001A6085F82410A16ADD60FFF719FD0022C2
:104D5000A369A16884F824201B689A688A42FBD85A
:104D60005A68214623602846626014605C60FFF741
:104D70001FFD21462846BDE83840FBF721BB00BF98
:104D8000E803002400000000000000000000000014
:104D9000044B1A68DB6892689B689A4201D9FFF756
:104DA000C7BF7047E80300240000000000000000B7
:104DB000FEE700BF0000000000000000000000004F
:104DC00070B5214B0025044686B081630E4605630D
:104DD000586000F04DFB04F1100304F12802A560B7
:104DE0006563C4E904334FF0FF33C4E90A22C4E920
:104DF0000635C4E90044FBF73BFC2B46024604F1B0
:104E00008800C4E90823C4F88450FFF7A1FC04F12A
:104E10003C0180230D4A204600F022F8012203467F
:104E2000716803926846E36083F82420084A196297
:104E30000092084B05950493D6E90312CDE90112BF
:104E400000F076F806B070BDA80D0024E45F0008FD
:104E5000D45F0008B14D0008000000000000000011
:104E600010B400248B60CA6101F110028C63886168
:104E7000C1E90F43022401238C8400F1280481F846
:104E80002630C36AC1E904431A6001F12C0401F120
:104E90003003C26208464B63C1E90B4310BC704744
:104EA00070B5D0E90234456800211D4A4FF0020E6A
:104EB00043F8285C4FF0010C05691A4E43F86C5C0E
:104EC000456943F84C6C43F8685C0568A3F1380009
:104ED00003F8231C03F824EC03F822CC43F8404CDD
:104EE00043F8084CD46A43F82C5CA3F16C0543F8F2
:104EF000344C43F83C5C02F1280543F8302C43F86D
:104F0000385C43E904112060A3F11801A3F11C04EB
:104F1000D062A3F1480043F8141C43E9074170BD77
:104F2000E8030024D1030008000000000000000096
:104F300008B5FFF7B5FFBDE80840FFF731BE00BF79
:104F400038B5302484F311884839002544181849AD
:104F5000A2602264A4F1240244F8041CE26001224D
:104F6000049984F8262044F8243C44F8201C0221AB
:104F7000104B114AA18404F11001206203F12800B2
:104F8000E261DA6A206104F12C006261A361E563E9
:104F9000A563116004F13002D9622946E06220461F
:104FA000C4E90C22FFF774FE85F31188204638BD52
:104FB000D1030008E8030024DC5F000800000000C3
:104FC00038B5302383F31188124BDC6804F12C05CB
:104FD000E36AA0629D4207D194F8263083B10F2086
:104FE000BDE83840FFF7F4BD1A681846E262FFF7E3
:104FF000D7FDE36AAB42F7D194F82630002BEED10F
:1050000094F825309B07EAD1D4E9043213605A6042
:10501000E5E700BFE80300240000000000000000F6
:1050200008B50146302383F311880820FFF7F0FD0F
:10503000002383F3118808BD000000000000000079
:10504000054A0346D26821B1026003209362FFF74C
:10505000DFBD4FF0FF307047E80300240000000080
:105060000346006820B100221A608162FFF798BDF4
:10507000704700BF000000000000000000000000BA
:10508000084AD26851B1034610B444681060042045
:105090005460226010BC5A60FFF7BABD4FF0FF3079
:1050A000704700BFE803002400000000000000007B
:1050B00003460068834205D002681A60536081622B
:1050C000FFF76EBD704700BF000000000000000049
:1050D00030B40023002400254FF0FF32C0E904451E
:1050E000C0E9002330BCC0E9023370470000000073
:1050F000014B5B6883607047001000E00000000017
:105100000E4A0F4B81685B6810B4946802691B1BE0
:10511000C4685B1A41690134D218026141F100018F
:10512000426841619342026888BF43609342C0E98C
:10513000023438BF036010BC704700BFA80D0024C4
:10514000001000E00000000000000000000000006F
:105150000023C0E900008360704700BF000000002A
:1051600070B52F4B04468068DD6830B3AA68836849
:10517000934207D290F824308260062B36D0072B5A
:1051800020D09BB1234603E09968AA68914202D3DC
:105190001B689C42F8D15A6806202B606A60156033
:1051A0005D60AC62BDE87040FFF712BDD0E900322F
:1051B00013605A60FFF7F4FCE4E7EB6BC4E90253B9
:1051C000EC6370BD866AD0E9003213605A603346E2
:1051D00003E099688268914202D31B689E42F8D12D
:1051E0005A68C0E9003210605860CBE7866AD0E99F
:1051F000003213605A60334603E099688268914236
:1052000002D31B689E42F8D15A6803604260106066
:105210005860B068AA6883689342ABD3B2E700BF16
:10522000E80300240000000000000000000000006F
:1052300008B5302383F31188FFF792FF002383F32F
:10524000118808BD00000000000000000000000000
:10525000174A302310B5D46883F311880268C368F5
:105260008242E3631DD00146206C4BB11A68934221
:1052700003D09268904238BF1046DB68002BF5D10E
:10528000A0600868C26B03680B605960C1E9020244
:10529000C163FFF785FCFFF77BFD002383F31188D3
:1052A00010BD00239360002383F3118810BD00BF5D
:1052B000E8030024000000000000000000000000DF
:1052C000F8B50468A04221D007460D46002604E048
:1052D0000B2A1CD02468A74218D0E3682B43E36054
:1052E00015B123691D42F5D0D4E90103816B90F813
:1052F00024200B430A2A8363EAD1826A1342E9D04D
:105300008662FFF74DFC2468A742E6D1F8BD826AA9
:105310009A43DFD1F4E700BF000000000000000066
:10532000024B0349034AC3E900127047B40D00243D
:1053300030150024000008240000000000000000D8
:10534000084B494210B45C68201A08401968821A58
:105350008A4204D3A24202D810BC5A60704700208F
:1053600010BC7047B40D00240000000000000000D5
:10537000302310B483F311880B4B49425C68201A28
:1053800008401968821A8A4207D3944205D35A60AA
:10539000002383F3118810BC70470020002383F39F
:1053A000118810BC704700BFB40D0024000000003D
:1053B000044B0022044903F10C009A60C3E9001277
:1053C000FFF7C6BEBC0D00247153000800000000AA
:1053D00010B40024C0E90223C0E9004110BC7047AA
:1053E0000022FFF7ADBF00BF00000000000000007A
:1053F00038B5124C124D2046FFF7AAFE04F11001F9
:105400002B460422216114216018FFF7E1FF04F10B
:10541000240004F128012B460422C4E909011C21BF
:1054200004F12C00FFF7D4FF04F13C0104F1400229
:1054300004F14403C4E90F12636438BDD80D00249D
:10544000E153000800000000000000000000000020
:10545000EFF30983203383F30988002383F3118852
:10546000704700BF000000000000000000000000C6
:105470004FF0300C00B58CF3118862B60E4B4FF62E
:10548000FF0E0E49D8680E4A00EA0E0001430D488F
:10549000D960D3F8FC1041F08071C3F8FC10C2F859
:1054A000B00F2020116841F001011160D87783F816
:1054B00022C05DF804FB00BF00ED00E00003FA0528
:1054C000001000E055CEACC5000000000000000058
:1054D000302383F311880D4B5B6813F4006302D112
:1054E00083F31188704710B5EFF309844FF0807390
:1054F000203CE36184F30988FFF70AFC10B1044BF8
:10550000A36110BD034BA36110BD00BF00ED00E01F
:10551000E3030008E60300080000000000000000AC
:1055200008B5FBF785F8FFF793F800F021F800F0D5
:1055300067F900210A4A084600F052FA094A102188
:10554000002000F04DFA084A2021002000F048FA1F
:1055500000F05EF942F21070FFF762FDFAE700BF5B
:10556000106000081C6000082460000800000000B3
:1055700008B500F07DFABDE8084000F051BA00BF60
:105580002DE9F843934D00F073FA40F29A228021FE
:105590002846914CFDF72CF8284640F29A224FF409
:1055A0008071FDF725F8284640F29A224FF40071E9
:1055B000FDF71EF84021012220460D462027DFF886
:1055C0001C82FDF715F80122202120464FF010091A
:1055D000FDF70EF8012210212046FDF709F8804959
:1055E0002583404627837F4EFBF742FD4FF4FA7038
:1055F000A4F81A90FFF714FD4FF4FA70A4F818906D
:10560000FFF70EFD3046FFF713FEAE2167834046DD
:105610006583FEF7ADFD30462583FFF719FE304662
:10562000FFF706FED521678340466583FEF7A0FDA0
:1056300030462583FFF70CFE3046FFF7F9FD802149
:10564000678340466583FEF793FD30462583FFF769
:10565000FFFD3046FFF7ECFDA821678340466583D8
:10566000FEF786FD30462583FFF7F2FD3046FFF753
:10567000DFFD3F21678340466583FEF779FD3046B5
:105680002583FFF7E5FD3046FFF7D2FDD321678381
:1056900040466583FEF76CFD30462583FFF7D8FD55
:1056A0003046FFF7C5FD0021678340466583FEF75E
:1056B0005FFD30462583FFF7CBFD3046FFF7B8FD91
:1056C0002946678340466583FEF752FD30462583B1
:1056D000FFF7BEFD3046FFF7ABFD8D2167834046E7
:1056E0006583FEF745FD30462583FFF7B1FD304663
:1056F000FFF79EFD1421678340466583FEF738FD62
:1057000030462583FFF7A4FD3046FFF791FD39466B
:10571000678340466583FEF72BFD30462583FFF700
:1057200097FD3046FFF784FD00216783404665837F
:10573000FEF71EFD30462583FFF78AFD3046FFF752
:1057400077FDA121678340466583FEF711FD304652
:105750002583FFF77DFD3046FFF76AFDC82167838B
:1057600040466583FEF704FD30462583FFF770FD54
:105770003046FFF75DFDDA21678340466583FEF71B
:10578000F7FC30462583FFF763FD3046FFF750FDF9
:105790001221678340466583FEF7EAFC3046258385
:1057A000FFF756FD3046FFF743FDAF2167834046C4
:1057B0006583FEF7DDFC30462583FFF749FD4FF496
:1057C00080620021084800F07BF9084B084A1A6003
:1057D000BDE8F8830014025800200258F0020024AB
:1057E000346000081C150024200E00242012002420
:1057F00068600008000000000000000000000000D9
:105800004FF480620021014800F05AB9200E0024B4
:105810002DE9F04FB02383B0284FDFF8A490294C36
:10582000294E019340254FF0200A4846A7F1800BEE
:10583000FFF7FEFC01993046A4F81AA06583A8463C
:10584000FEF796FC48462583FFF702FD4846FFF722
:10585000EFFC0021A4F81AA030466583FEF788FC0F
:1058600048462583FFF7F4FC4846FFF7E1FC10218A
:10587000A4F81AA030466583FEF77AFC48462583D3
:10588000FFF7E6FC4846FFF7D3FCA4F818A0A4F8FD
:105890001A8030461BF8011FFEF76AFC2583BB45C2
:1058A000F5D1019D48460BF1800701350195FFF7C1
:1058B000CFFCB82DB6D103B0BDE8F08F9F0E002409
:1058C0001C15002400200258F002002400000000F3
:1058D00010B50A4C0A49E36893F82520D9615207AC
:1058E0000AD4FFF795FF4FF4A570FFF799FBE36823
:1058F00093F825305B07F4D510BD00BFE803002402
:105900002C60000800000000000000000000000003
:105910002DE9F04F2E4F83B0D7F800B00190BBF1C6
:10592000000F4FD09BF806300D46914693424CD85D
:105930009BF80730934238BF4FF03F099BF8043083
:10594000002B3FD00024AA46224E4FF001082146EA
:105950002546DBF80C30484600919847D7F800B050
:1059600000999BF805403CB3019B00221944134663
:1059700002E0D3B29C421FD920FA03FC01321CF092
:10598000010FF6D053447F294FEAE30C03F0070ED2
:10599000EFD801EBCC1C3F2B08FA0EFE1FFA8CFC53
:1059A000E7DC16F80C304EEA030ED3B206F80CE032
:1059B0009BF805409C42DFD801359BF80430E9B2E2
:1059C0008B42C6D803B0BDE8F08F4FF03F09B5E772
:1059D00020120024200E002400000000000000001F
:1059E000F8B50D4B1B68AAB1A3B11E7915461B7AF9
:1059F00012781E44F6B26AB104460F4608E020460B
:105A000039463444FFF784FF15F8012FE4B20AB198
:105A10002306F4D5F8BD00BF2012002400000000CA
:105A200030B50D4D83B02C680CB103B030BDFFF71D
:105A3000A7FD21464FF48062084800F041F8FFF7C7
:105A4000E7FE074B80224FF43C7100940548FFF7B6
:105A500077FA286003B030BD24120024200E002401
:105A6000D1580008281200240000000000000000A7
:105A7000302310B583F31188074C23781BB1002322
:105A800083F3118810BD0548FFF762FB01232370E3
:105A9000002383F3118810BD181500241C15002461
:105AA0002038C3B25E2B07D8042905D800EB80004C
:105AB000024B0344585C7047002070477860000830
:105AC000830730B548D0541E002A3FD0CAB20346DF
:105AD00001E0013C3AD303F8012B9D07F9D1032CD7
